{"abi":[{"type":"constructor","inputs":[{"name":"_uToken","type":"address","internalType":"address"},{"name":"_owner","type":"address","internalType":"address"}],"stateMutability":"nonpayable"},{"type":"function","name":"DECIMAL_PRECISION","inputs":[],"outputs":[{"name":"","type":"uint256","internalType":"uint256"}],"stateMutability":"view"},{"type":"function","name":"MINIMUM_DURATION","inputs":[],"outputs":[{"name":"","type":"uint256","internalType":"uint256"}],"stateMutability":"view"},{"type":"function","name":"acceptOwnership","inputs":[],"outputs":[],"stateMutability":"nonpayable"},{"type":"function","name":"amountStaked","inputs":[{"name":"_user","type":"address","internalType":"address"}],"outputs":[{"name":"","type":"uint256","internalType":"uint256"}],"stateMutability":"view"},{"type":"function","name":"claimRewards","inputs":[],"outputs":[],"stateMutability":"nonpayable"},{"type":"function","name":"depositRewards","inputs":[{"name":"_amount","type":"uint256","internalType":"uint256"}],"outputs":[],"stateMutability":"nonpayable"},{"type":"function","name":"i_uToken","inputs":[],"outputs":[{"name":"","type":"address","internalType":"contract IERC20"}],"stateMutability":"view"},{"type":"function","name":"i_veUrano","inputs":[],"outputs":[{"name":"","type":"address","internalType":"contract veUrano"}],"stateMutability":"view"},{"type":"function","name":"owner","inputs":[],"outputs":[{"name":"","type":"address","internalType":"address"}],"stateMutability":"view"},{"type":"function","name":"pendingOwner","inputs":[],"outputs":[{"name":"","type":"address","internalType":"address"}],"stateMutability":"view"},{"type":"function","name":"renounceOwnership","inputs":[],"outputs":[],"stateMutability":"nonpayable"},{"type":"function","name":"s_accumulatedRewardPerUnitStaked","inputs":[],"outputs":[{"name":"","type":"uint256","internalType":"uint256"}],"stateMutability":"view"},{"type":"function","name":"s_amountRewarded","inputs":[],"outputs":[{"name":"","type":"uint256","internalType":"uint256"}],"stateMutability":"view"},{"type":"function","name":"s_lastRewardTimestamp","inputs":[],"outputs":[{"name":"","type":"uint256","internalType":"uint256"}],"stateMutability":"view"},{"type":"function","name":"s_rewardPerSecond","inputs":[],"outputs":[{"name":"","type":"uint256","internalType":"uint256"}],"stateMutability":"view"},{"type":"function","name":"s_totalReward","inputs":[],"outputs":[{"name":"","type":"uint256","internalType":"uint256"}],"stateMutability":"view"},{"type":"function","name":"s_totalStaked","inputs":[],"outputs":[{"name":"","type":"uint256","internalType":"uint256"}],"stateMutability":"view"},{"type":"function","name":"setRewardPerSecond","inputs":[{"name":"_rewardPerSecond","type":"uint256","internalType":"uint256"}],"outputs":[],"stateMutability":"nonpayable"},{"type":"function","name":"stake","inputs":[{"name":"_amount","type":"uint256","internalType":"uint256"}],"outputs":[],"stateMutability":"nonpayable"},{"type":"function","name":"transferOwnership","inputs":[{"name":"newOwner","type":"address","internalType":"address"}],"outputs":[],"stateMutability":"nonpayable"},{"type":"function","name":"userInfo","inputs":[{"name":"_user","type":"address","internalType":"address"}],"outputs":[{"name":"","type":"tuple","internalType":"struct Staking.UserInfo","components":[{"name":"stakedAmount","type":"uint256","internalType":"uint256"},{"name":"rewardDebt","type":"uint256","internalType":"uint256"},{"name":"rewardEarned","type":"uint256","internalType":"uint256"},{"name":"stakingTimestamp","type":"uint256","internalType":"uint256"}]}],"stateMutability":"view"},{"type":"function","name":"withdraw","inputs":[{"name":"_amount","type":"uint256","internalType":"uint256"}],"outputs":[],"stateMutability":"nonpayable"},{"type":"event","name":"OwnershipTransferStarted","inputs":[{"name":"previousOwner","type":"address","indexed":true,"internalType":"address"},{"name":"newOwner","type":"address","indexed":true,"internalType":"address"}],"anonymous":false},{"type":"event","name":"OwnershipTransferred","inputs":[{"name":"previousOwner","type":"address","indexed":true,"internalType":"address"},{"name":"newOwner","type":"address","indexed":true,"internalType":"address"}],"anonymous":false},{"type":"event","name":"RewardDeposited","inputs":[{"name":"amount","type":"uint256","indexed":true,"internalType":"uint256"}],"anonymous":false},{"type":"event","name":"RewardPerSecondSet","inputs":[{"name":"rewardPerSecond","type":"uint256","indexed":true,"internalType":"uint256"}],"anonymous":false},{"type":"event","name":"RewardsClaimed","inputs":[{"name":"user","type":"address","indexed":true,"internalType":"address"},{"name":"amount","type":"uint256","indexed":true,"internalType":"uint256"}],"anonymous":false},{"type":"event","name":"Staked","inputs":[{"name":"user","type":"address","indexed":true,"internalType":"address"},{"name":"amount","type":"uint256","indexed":true,"internalType":"uint256"}],"anonymous":false},{"type":"event","name":"Withdrawn","inputs":[{"name":"user","type":"address","indexed":true,"internalType":"address"},{"name":"amount","type":"uint256","indexed":true,"internalType":"uint256"}],"anonymous":false},{"type":"error","name":"OwnableInvalidOwner","inputs":[{"name":"owner","type":"address","internalType":"address"}]},{"type":"error","name":"OwnableUnauthorizedAccount","inputs":[{"name":"account","type":"address","internalType":"address"}]},{"type":"error","name":"SafeERC20FailedOperation","inputs":[{"name":"token","type":"address","internalType":"address"}]},{"type":"error","name":"Staking__InsufficientStakedAmount","inputs":[]},{"type":"error","name":"Staking__MinimunDurationNotPassed","inputs":[]},{"type":"error","name":"Staking__NoRewards","inputs":[]},{"type":"error","name":"Staking__ZeroAmount","inputs":[]},{"type":"error","name":"Staking__ZeroDuration","inputs":[]},{"type":"error","name":"Staking__ZeroRewardPerSecond","inputs":[]}],"bytecode":{"object":"0x60c060405234801562000010575f80fd5b5060405162002ee338038062002ee38339818101604052810190620000369190620002c0565b805f73ffffffffffffffffffffffffffffffffffffffff168173ffffffffffffffffffffffffffffffffffffffff1603620000aa575f6040517f1e4fbdf7000000000000000000000000000000000000000000000000000000008152600401620000a1919062000316565b60405180910390fd5b620000bb816200015460201b60201c565b508173ffffffffffffffffffffffffffffffffffffffff1660808173ffffffffffffffffffffffffffffffffffffffff1681525050604051620000fe906200024d565b604051809103905ff08015801562000118573d5f803e3d5ffd5b5073ffffffffffffffffffffffffffffffffffffffff1660a08173ffffffffffffffffffffffffffffffffffffffff1681525050505062000331565b60015f6101000a81549073ffffffffffffffffffffffffffffffffffffffff021916905562000189816200018c60201b60201c565b50565b5f805f9054906101000a900473ffffffffffffffffffffffffffffffffffffffff169050815f806101000a81548173ffffffffffffffffffffffffffffffffffffffff021916908373ffffffffffffffffffffffffffffffffffffffff1602179055508173ffffffffffffffffffffffffffffffffffffffff168173ffffffffffffffffffffffffffffffffffffffff167f8be0079c531659141344cd1fd0a4f28419497f9722a3daafe3b4186f6b6457e060405160405180910390a35050565b6113758062001b6e83390190565b5f80fd5b5f73ffffffffffffffffffffffffffffffffffffffff82169050919050565b5f6200028a826200025f565b9050919050565b6200029c816200027e565b8114620002a7575f80fd5b50565b5f81519050620002ba8162000291565b92915050565b5f8060408385031215620002d957620002d86200025b565b5b5f620002e885828601620002aa565b9250506020620002fb85828601620002aa565b9150509250929050565b62000310816200027e565b82525050565b5f6020820190506200032b5f83018462000305565b92915050565b60805160a0516117f16200037d5f395f818161067e01528181610c3d0152610d3a01525f8181610638015281816107ef01528181610a0001528181610bf60152610db201526117f15ff3fe608060405234801561000f575f80fd5b5060043610610140575f3560e01c80638da5cb5b116100b6578063ec787f261161007a578063ec787f26146102f2578063ef40a67014610310578063ef683cbb14610340578063ef772a601461035e578063ef81c5491461037c578063f2fde38b1461039a57610140565b80638da5cb5b1461025e578063a20baee61461027c578063a694fc3a1461029a578063af059f20146102b6578063e30c3978146102d457610140565b80633a000125116101085780633a000125146101d65780635667e4db146101f457806366da581514610212578063715018a61461022e57806379ba5097146102385780638bdf67f21461024257610140565b80630e02811a146101445780631959a002146101625780632d28e89d146101925780632e1a7d4d146101b0578063372500ab146101cc575b5f80fd5b61014c6103b6565b604051610159919061141c565b60405180910390f35b61017c60048036038101906101779190611493565b6103bc565b6040516101899190611520565b60405180910390f35b61019a61043a565b6040516101a7919061141c565b60405180910390f35b6101ca60048036038101906101c59190611563565b610441565b005b6101d461074d565b005b6101de61087a565b6040516101eb919061141c565b60405180910390f35b6101fc610880565b604051610209919061141c565b60405180910390f35b61022c60048036038101906102279190611563565b610886565b005b6102366108fe565b005b610240610911565b005b61025c60048036038101906102579190611563565b61099f565b005b610266610a75565b604051610273919061159d565b60405180910390f35b610284610a9c565b604051610291919061141c565b60405180910390f35b6102b460048036038101906102af9190611563565b610aa8565b005b6102be610d0a565b6040516102cb919061141c565b60405180910390f35b6102dc610d10565b6040516102e9919061159d565b60405180910390f35b6102fa610d38565b6040516103079190611611565b60405180910390f35b61032a60048036038101906103259190611493565b610d5c565b604051610337919061141c565b60405180910390f35b610348610da4565b604051610355919061141c565b60405180910390f35b610366610daa565b604051610373919061141c565b60405180910390f35b610384610db0565b604051610391919061164a565b60405180910390f35b6103b460048036038101906103af9190611493565b610dd4565b005b60045481565b6103c46113e0565b60085f8373ffffffffffffffffffffffffffffffffffffffff1673ffffffffffffffffffffffffffffffffffffffff1681526020019081526020015f206040518060800160405290815f820154815260200160018201548152602001600282015481526020016003820154815250509050919050565b62093a8081565b334262093a8060085f8473ffffffffffffffffffffffffffffffffffffffff1673ffffffffffffffffffffffffffffffffffffffff1681526020019081526020015f20600301546104929190611690565b11156104ca576040517fcd6bf60f00000000000000000000000000000000000000000000000000000000815260040160405180910390fd5b5f8203610503576040517fa7b70b2e00000000000000000000000000000000000000000000000000000000815260040160405180910390fd5b5f60085f3373ffffffffffffffffffffffffffffffffffffffff1673ffffffffffffffffffffffffffffffffffffffff1681526020019081526020015f206040518060800160405290815f82015481526020016001820154815260200160028201548152602001600382015481525050905082815f015110156105b2576040517f3806d67300000000000000000000000000000000000000000000000000000000815260040160405180910390fd5b6105ba610e80565b6105c4335f610f1f565b8260085f3373ffffffffffffffffffffffffffffffffffffffff1673ffffffffffffffffffffffffffffffffffffffff1681526020019081526020015f205f015f82825461061291906116c3565b925050819055508260025f82825461062a91906116c3565b9250508190555061067c33847f000000000000000000000000000000000000000000000000000000000000000073ffffffffffffffffffffffffffffffffffffffff166110ac9092919063ffffffff16565b7f000000000000000000000000000000000000000000000000000000000000000073ffffffffffffffffffffffffffffffffffffffff16639dc29fac33856040518363ffffffff1660e01b81526004016106d79291906116f6565b5f604051808303815f87803b1580156106ee575f80fd5b505af1158015610700573d5f803e3d5ffd5b50505050823373ffffffffffffffffffffffffffffffffffffffff167f7084f5476618d8e60b11ef0d7d3f06914655adb8793e28ff7f018d4c76d505d560405160405180910390a3505050565b610755610e80565b61075f335f610f1f565b5f60085f3373ffffffffffffffffffffffffffffffffffffffff1673ffffffffffffffffffffffffffffffffffffffff1681526020019081526020015f206002015490505f60085f3373ffffffffffffffffffffffffffffffffffffffff1673ffffffffffffffffffffffffffffffffffffffff1681526020019081526020015f206002018190555061083333827f000000000000000000000000000000000000000000000000000000000000000073ffffffffffffffffffffffffffffffffffffffff166110ac9092919063ffffffff16565b803373ffffffffffffffffffffffffffffffffffffffff167ffc30cddea38e2bf4d6ea7d3f9ed3b6ad7f176419f4963bd81318067a4aee73fe60405160405180910390a350565b60055481565b60065481565b61088e6110ff565b5f81036108c7576040517ff0ab629e00000000000000000000000000000000000000000000000000000000815260040160405180910390fd5b80600481905550807fcd83dbfebc837495703e05a0881416aff7cca2acae7132c9b8254064e26f01ba60405160405180910390a250565b6109066110ff565b61090f5f611186565b565b5f61091a6111b6565b90508073ffffffffffffffffffffffffffffffffffffffff1661093b610d10565b73ffffffffffffffffffffffffffffffffffffffff161461099357806040517f118cdaa700000000000000000000000000000000000000000000000000000000815260040161098a919061159d565b60405180910390fd5b61099c81611186565b50565b6109a76110ff565b5f81036109e0576040517fa7b70b2e00000000000000000000000000000000000000000000000000000000815260040160405180910390fd5b8060035f8282546109f19190611690565b92505081905550610a453330837f000000000000000000000000000000000000000000000000000000000000000073ffffffffffffffffffffffffffffffffffffffff166111bd909392919063ffffffff16565b807f4b19cb5d8df041d8b4d367efa19af33a21d398f599fb445a29acd9d5e56318c660405160405180910390a250565b5f805f9054906101000a900473ffffffffffffffffffffffffffffffffffffffff16905090565b670de0b6b3a764000081565b5f8103610ae1576040517fa7b70b2e00000000000000000000000000000000000000000000000000000000815260040160405180910390fd5b5f6004541480610af357505f60035411155b15610b2a576040517fa984d2e400000000000000000000000000000000000000000000000000000000815260040160405180910390fd5b610b32610e80565b610b3c3382610f1f565b8060085f3373ffffffffffffffffffffffffffffffffffffffff1673ffffffffffffffffffffffffffffffffffffffff1681526020019081526020015f205f015f828254610b8a9190611690565b925050819055504260085f3373ffffffffffffffffffffffffffffffffffffffff1673ffffffffffffffffffffffffffffffffffffffff1681526020019081526020015f20600301819055508060025f828254610be79190611690565b92505081905550610c3b3330837f000000000000000000000000000000000000000000000000000000000000000073ffffffffffffffffffffffffffffffffffffffff166111bd909392919063ffffffff16565b7f000000000000000000000000000000000000000000000000000000000000000073ffffffffffffffffffffffffffffffffffffffff166340c10f1933836040518363ffffffff1660e01b8152600401610c969291906116f6565b5f604051808303815f87803b158015610cad575f80fd5b505af1158015610cbf573d5f803e3d5ffd5b50505050803373ffffffffffffffffffffffffffffffffffffffff167f9e71bc8eea02a63969f509818f2dafb9254532904319f9dbda79b67bd34a5f3d60405160405180910390a350565b60035481565b5f60015f9054906101000a900473ffffffffffffffffffffffffffffffffffffffff16905090565b7f000000000000000000000000000000000000000000000000000000000000000081565b5f60085f8373ffffffffffffffffffffffffffffffffffffffff1673ffffffffffffffffffffffffffffffffffffffff1681526020019081526020015f205f01549050919050565b60075481565b60025481565b7f000000000000000000000000000000000000000000000000000000000000000081565b610ddc6110ff565b8060015f6101000a81548173ffffffffffffffffffffffffffffffffffffffff021916908373ffffffffffffffffffffffffffffffffffffffff1602179055508073ffffffffffffffffffffffffffffffffffffffff16610e3b610a75565b73ffffffffffffffffffffffffffffffffffffffff167f38d16b8cac22d99fc7c124b9cd0de2d3fa1faef420bfe791d8c362d765e2270060405160405180910390a350565b5f60055442610e8f91906116c3565b90505f60025490505f8103610eac57426005819055505050610f1d565b5f610ed360065484600454610ec1919061171d565b610ecb9190611690565b600354611212565b9050806006819055504260058190555081670de0b6b3a764000082610ef8919061171d565b610f02919061178b565b60075f828254610f129190611690565b925050819055505050505b565b5f60085f8473ffffffffffffffffffffffffffffffffffffffff1673ffffffffffffffffffffffffffffffffffffffff1681526020019081526020015f206040518060800160405290815f8201548152602001600182015481526020016002820154815260200160038201548152505090505f8160200151670de0b6b3a7640000835f0151600754610fb1919061171d565b610fbb919061178b565b610fc591906116c3565b90505f831115610fe85782825f01818151610fe09190611690565b915081815250505b8060085f8673ffffffffffffffffffffffffffffffffffffffff1673ffffffffffffffffffffffffffffffffffffffff1681526020019081526020015f206002015f8282546110379190611690565b92505081905550670de0b6b3a7640000600754835f0151611058919061171d565b611062919061178b565b60085f8673ffffffffffffffffffffffffffffffffffffffff1673ffffffffffffffffffffffffffffffffffffffff1681526020019081526020015f206001018190555050505050565b6110b98383836001611228565b6110fa57826040517f5274afe70000000000000000000000000000000000000000000000000000000081526004016110f1919061159d565b60405180910390fd5b505050565b6111076111b6565b73ffffffffffffffffffffffffffffffffffffffff16611125610a75565b73ffffffffffffffffffffffffffffffffffffffff1614611184576111486111b6565b6040517f118cdaa700000000000000000000000000000000000000000000000000000000815260040161117b919061159d565b60405180910390fd5b565b60015f6101000a81549073ffffffffffffffffffffffffffffffffffffffff02191690556111b38161128a565b50565b5f33905090565b6111cb84848484600161134b565b61120c57836040517f5274afe7000000000000000000000000000000000000000000000000000000008152600401611203919061159d565b60405180910390fd5b50505050565b5f61122082841084846113bc565b905092915050565b5f8063a9059cbb60e01b9050604051815f525f1960601c86166004528460245260205f60445f808b5af1925060015f5114831661127c578383151615611270573d5f823e3d81fd5b5f873b113d1516831692505b806040525050949350505050565b5f805f9054906101000a900473ffffffffffffffffffffffffffffffffffffffff169050815f806101000a81548173ffffffffffffffffffffffffffffffffffffffff021916908373ffffffffffffffffffffffffffffffffffffffff1602179055508173ffffffffffffffffffffffffffffffffffffffff168173ffffffffffffffffffffffffffffffffffffffff167f8be0079c531659141344cd1fd0a4f28419497f9722a3daafe3b4186f6b6457e060405160405180910390a35050565b5f806323b872dd60e01b9050604051815f525f1960601c87166004525f1960601c86166024528460445260205f60645f808c5af1925060015f511483166113a957838315161561139d573d5f823e3d81fd5b5f883b113d1516831692505b806040525f606052505095945050505050565b5f6113c6846113d5565b82841802821890509392505050565b5f8115159050919050565b60405180608001604052805f81526020015f81526020015f81526020015f81525090565b5f819050919050565b61141681611404565b82525050565b5f60208201905061142f5f83018461140d565b92915050565b5f80fd5b5f73ffffffffffffffffffffffffffffffffffffffff82169050919050565b5f61146282611439565b9050919050565b61147281611458565b811461147c575f80fd5b50565b5f8135905061148d81611469565b92915050565b5f602082840312156114a8576114a7611435565b5b5f6114b58482850161147f565b91505092915050565b6114c781611404565b82525050565b608082015f8201516114e15f8501826114be565b5060208201516114f460208501826114be565b50604082015161150760408501826114be565b50606082015161151a60608501826114be565b50505050565b5f6080820190506115335f8301846114cd565b92915050565b61154281611404565b811461154c575f80fd5b50565b5f8135905061155d81611539565b92915050565b5f6020828403121561157857611577611435565b5b5f6115858482850161154f565b91505092915050565b61159781611458565b82525050565b5f6020820190506115b05f83018461158e565b92915050565b5f819050919050565b5f6115d96115d46115cf84611439565b6115b6565b611439565b9050919050565b5f6115ea826115bf565b9050919050565b5f6115fb826115e0565b9050919050565b61160b816115f1565b82525050565b5f6020820190506116245f830184611602565b92915050565b5f611634826115e0565b9050919050565b6116448161162a565b82525050565b5f60208201905061165d5f83018461163b565b92915050565b7f4e487b71000000000000000000000000000000000000000000000000000000005f52601160045260245ffd5b5f61169a82611404565b91506116a583611404565b92508282019050808211156116bd576116bc611663565b5b92915050565b5f6116cd82611404565b91506116d883611404565b92508282039050818111156116f0576116ef611663565b5b92915050565b5f6040820190506117095f83018561158e565b611716602083018461140d565b9392505050565b5f61172782611404565b915061173283611404565b925082820261174081611404565b9150828204841483151761175757611756611663565b5b5092915050565b7f4e487b71000000000000000000000000000000000000000000000000000000005f52601260045260245ffd5b5f61179582611404565b91506117a083611404565b9250826117b0576117af61175e565b5b82820490509291505056fea26469706673582212207056145f2116489769f55bb6c91e370b8100dfe96276bb04a9eff6ac632c92e164736f6c63430008180033608060405234801562000010575f80fd5b50336040518060400160405280600781526020017f76655572616e6f000000000000000000000000000000000000000000000000008152506040518060400160405280600781526020017f76655552414e4f0000000000000000000000000000000000000000000000000081525081600390816200008f919062000456565b508060049081620000a1919062000456565b5050505f73ffffffffffffffffffffffffffffffffffffffff168173ffffffffffffffffffffffffffffffffffffffff160362000117575f6040517f1e4fbdf70000000000000000000000000000000000000000000000000000000081526004016200010e91906200057d565b60405180910390fd5b62000128816200012f60201b60201c565b5062000598565b5f60055f9054906101000a900473ffffffffffffffffffffffffffffffffffffffff1690508160055f6101000a81548173ffffffffffffffffffffffffffffffffffffffff021916908373ffffffffffffffffffffffffffffffffffffffff1602179055508173ffffffffffffffffffffffffffffffffffffffff168173ffffffffffffffffffffffffffffffffffffffff167f8be0079c531659141344cd1fd0a4f28419497f9722a3daafe3b4186f6b6457e060405160405180910390a35050565b5f81519050919050565b7f4e487b71000000000000000000000000000000000000000000000000000000005f52604160045260245ffd5b7f4e487b71000000000000000000000000000000000000000000000000000000005f52602260045260245ffd5b5f60028204905060018216806200026e57607f821691505b60208210810362000284576200028362000229565b5b50919050565b5f819050815f5260205f209050919050565b5f6020601f8301049050919050565b5f82821b905092915050565b5f60088302620002e87fffffffffffffffffffffffffffffffffffffffffffffffffffffffffffffffff82620002ab565b620002f48683620002ab565b95508019841693508086168417925050509392505050565b5f819050919050565b5f819050919050565b5f6200033e6200033862000332846200030c565b62000315565b6200030c565b9050919050565b5f819050919050565b62000359836200031e565b62000371620003688262000345565b848454620002b7565b825550505050565b5f90565b6200038762000379565b620003948184846200034e565b505050565b5b81811015620003bb57620003af5f826200037d565b6001810190506200039a565b5050565b601f8211156200040a57620003d4816200028a565b620003df846200029c565b81016020851015620003ef578190505b62000407620003fe856200029c565b83018262000399565b50505b505050565b5f82821c905092915050565b5f6200042c5f19846008026200040f565b1980831691505092915050565b5f6200044683836200041b565b9150826002028217905092915050565b6200046182620001f2565b67ffffffffffffffff8111156200047d576200047c620001fc565b5b62000489825462000256565b62000496828285620003bf565b5f60209050601f831160018114620004cc575f8415620004b7578287015190505b620004c3858262000439565b86555062000532565b601f198416620004dc866200028a565b5f5b828110156200050557848901518255600182019150602085019450602081019050620004de565b8683101562000525578489015162000521601f8916826200041b565b8355505b6001600288020188555050505b505050505050565b5f73ffffffffffffffffffffffffffffffffffffffff82169050919050565b5f62000565826200053a565b9050919050565b620005778162000559565b82525050565b5f602082019050620005925f8301846200056c565b92915050565b610dcf80620005a65f395ff3fe608060405234801561000f575f80fd5b50600436106100e8575f3560e01c8063715018a61161008a5780639dc29fac116100645780639dc29fac14610238578063a9059cbb14610254578063dd62ed3e14610284578063f2fde38b146102b4576100e8565b8063715018a6146101f25780638da5cb5b146101fc57806395d89b411461021a576100e8565b806323b872dd116100c657806323b872dd14610158578063313ce5671461018857806340c10f19146101a657806370a08231146101c2576100e8565b806306fdde03146100ec578063095ea7b31461010a57806318160ddd1461013a575b5f80fd5b6100f46102d0565b6040516101019190610a48565b60405180910390f35b610124600480360381019061011f9190610af9565b610360565b6040516101319190610b51565b60405180910390f35b610142610393565b60405161014f9190610b79565b60405180910390f35b610172600480360381019061016d9190610b92565b61039c565b60405161017f9190610b51565b60405180910390f35b6101906103cf565b60405161019d9190610bfd565b60405180910390f35b6101c060048036038101906101bb9190610af9565b6103d7565b005b6101dc60048036038101906101d79190610c16565b6103ed565b6040516101e99190610b79565b60405180910390f35b6101fa610432565b005b610204610464565b6040516102119190610c50565b60405180910390f35b61022261048c565b60405161022f9190610a48565b60405180910390f35b610252600480360381019061024d9190610af9565b61051c565b005b61026e60048036038101906102699190610af9565b610532565b60405161027b9190610b51565b60405180910390f35b61029e60048036038101906102999190610c69565b610565565b6040516102ab9190610b79565b60405180910390f35b6102ce60048036038101906102c99190610c16565b6105e7565b005b6060600380546102df90610cd4565b80601f016020809104026020016040519081016040528092919081815260200182805461030b90610cd4565b80156103565780601f1061032d57610100808354040283529160200191610356565b820191905f5260205f20905b81548152906001019060200180831161033957829003601f168201915b5050505050905090565b5f6040517fc3cc4ac500000000000000000000000000000000000000000000000000000000815260040160405180910390fd5b5f600254905090565b5f6040517fc3cc4ac500000000000000000000000000000000000000000000000000000000815260040160405180910390fd5b5f6012905090565b6103df610619565b6103e982826106a0565b5050565b5f805f8373ffffffffffffffffffffffffffffffffffffffff1673ffffffffffffffffffffffffffffffffffffffff1681526020019081526020015f20549050919050565b6040517ff1c2a05a00000000000000000000000000000000000000000000000000000000815260040160405180910390fd5b5f60055f9054906101000a900473ffffffffffffffffffffffffffffffffffffffff16905090565b60606004805461049b90610cd4565b80601f01602080910402602001604051908101604052809291908181526020018280546104c790610cd4565b80156105125780601f106104e957610100808354040283529160200191610512565b820191905f5260205f20905b8154815290600101906020018083116104f557829003601f168201915b5050505050905090565b610524610619565b61052e828261071f565b5050565b5f6040517fc3cc4ac500000000000000000000000000000000000000000000000000000000815260040160405180910390fd5b5f60015f8473ffffffffffffffffffffffffffffffffffffffff1673ffffffffffffffffffffffffffffffffffffffff1681526020019081526020015f205f8373ffffffffffffffffffffffffffffffffffffffff1673ffffffffffffffffffffffffffffffffffffffff1681526020019081526020015f2054905092915050565b6040517ff1c2a05a00000000000000000000000000000000000000000000000000000000815260040160405180910390fd5b61062161079e565b73ffffffffffffffffffffffffffffffffffffffff1661063f610464565b73ffffffffffffffffffffffffffffffffffffffff161461069e5761066261079e565b6040517f118cdaa70000000000000000000000000000000000000000000000000000000081526004016106959190610c50565b60405180910390fd5b565b5f73ffffffffffffffffffffffffffffffffffffffff168273ffffffffffffffffffffffffffffffffffffffff1603610710575f6040517fec442f050000000000000000000000000000000000000000000000000000000081526004016107079190610c50565b60405180910390fd5b61071b5f83836107a5565b5050565b5f73ffffffffffffffffffffffffffffffffffffffff168273ffffffffffffffffffffffffffffffffffffffff160361078f575f6040517f96c6fd1e0000000000000000000000000000000000000000000000000000000081526004016107869190610c50565b60405180910390fd5b61079a825f836107a5565b5050565b5f33905090565b5f73ffffffffffffffffffffffffffffffffffffffff168373ffffffffffffffffffffffffffffffffffffffff16036107f5578060025f8282546107e99190610d31565b925050819055506108c3565b5f805f8573ffffffffffffffffffffffffffffffffffffffff1673ffffffffffffffffffffffffffffffffffffffff1681526020019081526020015f205490508181101561087e578381836040517fe450d38c00000000000000000000000000000000000000000000000000000000815260040161087593929190610d64565b60405180910390fd5b8181035f808673ffffffffffffffffffffffffffffffffffffffff1673ffffffffffffffffffffffffffffffffffffffff1681526020019081526020015f2081905550505b5f73ffffffffffffffffffffffffffffffffffffffff168273ffffffffffffffffffffffffffffffffffffffff160361090a578060025f8282540392505081905550610954565b805f808473ffffffffffffffffffffffffffffffffffffffff1673ffffffffffffffffffffffffffffffffffffffff1681526020019081526020015f205f82825401925050819055505b8173ffffffffffffffffffffffffffffffffffffffff168373ffffffffffffffffffffffffffffffffffffffff167fddf252ad1be2c89b69c2b068fc378daa952ba7f163c4a11628f55a4df523b3ef836040516109b19190610b79565b60405180910390a3505050565b5f81519050919050565b5f82825260208201905092915050565b5f5b838110156109f55780820151818401526020810190506109da565b5f8484015250505050565b5f601f19601f8301169050919050565b5f610a1a826109be565b610a2481856109c8565b9350610a348185602086016109d8565b610a3d81610a00565b840191505092915050565b5f6020820190508181035f830152610a608184610a10565b905092915050565b5f80fd5b5f73ffffffffffffffffffffffffffffffffffffffff82169050919050565b5f610a9582610a6c565b9050919050565b610aa581610a8b565b8114610aaf575f80fd5b50565b5f81359050610ac081610a9c565b92915050565b5f819050919050565b610ad881610ac6565b8114610ae2575f80fd5b50565b5f81359050610af381610acf565b92915050565b5f8060408385031215610b0f57610b0e610a68565b5b5f610b1c85828601610ab2565b9250506020610b2d85828601610ae5565b9150509250929050565b5f8115159050919050565b610b4b81610b37565b82525050565b5f602082019050610b645f830184610b42565b92915050565b610b7381610ac6565b82525050565b5f602082019050610b8c5f830184610b6a565b92915050565b5f805f60608486031215610ba957610ba8610a68565b5b5f610bb686828701610ab2565b9350506020610bc786828701610ab2565b9250506040610bd886828701610ae5565b9150509250925092565b5f60ff82169050919050565b610bf781610be2565b82525050565b5f602082019050610c105f830184610bee565b92915050565b5f60208284031215610c2b57610c2a610a68565b5b5f610c3884828501610ab2565b91505092915050565b610c4a81610a8b565b82525050565b5f602082019050610c635f830184610c41565b92915050565b5f8060408385031215610c7f57610c7e610a68565b5b5f610c8c85828601610ab2565b9250506020610c9d85828601610ab2565b9150509250929050565b7f4e487b71000000000000000000000000000000000000000000000000000000005f52602260045260245ffd5b5f6002820490506001821680610ceb57607f821691505b602082108103610cfe57610cfd610ca7565b5b50919050565b7f4e487b71000000000000000000000000000000000000000000000000000000005f52601160045260245ffd5b5f610d3b82610ac6565b9150610d4683610ac6565b9250828201905080821115610d5e57610d5d610d04565b5b92915050565b5f606082019050610d775f830186610c41565b610d846020830185610b6a565b610d916040830184610b6a565b94935050505056fea2646970667358221220e80af9dd2073dc5156f5458cc0a1c418a3598ef384d05e2b897751a521a778e864736f6c63430008180033","linkReferences":{}},"methodIdentifiers":{"DECIMAL_PRECISION()":"a20baee6","MINIMUM_DURATION()":"2d28e89d","acceptOwnership()":"79ba5097","amountStaked(address)":"ef40a670","claimRewards()":"372500ab","depositRewards(uint256)":"8bdf67f2","i_uToken()":"ef81c549","i_veUrano()":"ec787f26","owner()":"8da5cb5b","pendingOwner()":"e30c3978","renounceOwnership()":"715018a6","s_accumulatedRewardPerUnitStaked()":"ef683cbb","s_amountRewarded()":"5667e4db","s_lastRewardTimestamp()":"3a000125","s_rewardPerSecond()":"0e02811a","s_totalReward()":"af059f20","s_totalStaked()":"ef772a60","setRewardPerSecond(uint256)":"66da5815","stake(uint256)":"a694fc3a","transferOwnership(address)":"f2fde38b","userInfo(address)":"1959a002","withdraw(uint256)":"2e1a7d4d"},"id":63}