{"abi":[{"type":"constructor","inputs":[{"name":"_stakingContract","type":"address","internalType":"address"}],"stateMutability":"nonpayable"},{"type":"function","name":"acceptOwnership","inputs":[],"outputs":[],"stateMutability":"nonpayable"},{"type":"function","name":"finalize","inputs":[{"name":"proposalId","type":"uint256","internalType":"uint256"}],"outputs":[],"stateMutability":"nonpayable"},{"type":"function","name":"getProposal","inputs":[{"name":"proposalId","type":"uint256","internalType":"uint256"}],"outputs":[{"name":"","type":"tuple","internalType":"struct UranoGovernance.Proposal","components":[{"name":"id","type":"uint256","internalType":"uint256"},{"name":"proposalType","type":"uint8","internalType":"enum UranoGovernance.ProposalType"},{"name":"description","type":"string","internalType":"string"},{"name":"startTime","type":"uint256","internalType":"uint256"},{"name":"endTime","type":"uint256","internalType":"uint256"},{"name":"votesFor","type":"uint256","internalType":"uint256"},{"name":"votesAgainst","type":"uint256","internalType":"uint256"},{"name":"finalized","type":"bool","internalType":"bool"},{"name":"result","type":"uint8","internalType":"enum UranoGovernance.ProposalResult"}]}],"stateMutability":"view"},{"type":"function","name":"owner","inputs":[],"outputs":[{"name":"","type":"address","internalType":"address"}],"stateMutability":"view"},{"type":"function","name":"pendingOwner","inputs":[],"outputs":[{"name":"","type":"address","internalType":"address"}],"stateMutability":"view"},{"type":"function","name":"proposalCount","inputs":[],"outputs":[{"name":"","type":"uint256","internalType":"uint256"}],"stateMutability":"view"},{"type":"function","name":"proposalResult","inputs":[{"name":"proposalId","type":"uint256","internalType":"uint256"}],"outputs":[{"name":"","type":"uint8","internalType":"enum UranoGovernance.ProposalResult"}],"stateMutability":"view"},{"type":"function","name":"propose","inputs":[{"name":"proposalType","type":"uint8","internalType":"enum UranoGovernance.ProposalType"},{"name":"description","type":"string","internalType":"string"}],"outputs":[{"name":"id","type":"uint256","internalType":"uint256"}],"stateMutability":"nonpayable"},{"type":"function","name":"renounceOwnership","inputs":[],"outputs":[],"stateMutability":"nonpayable"},{"type":"function","name":"stakingContract","inputs":[],"outputs":[{"name":"","type":"address","internalType":"contract Staking"}],"stateMutability":"view"},{"type":"function","name":"transferOwnership","inputs":[{"name":"newOwner","type":"address","internalType":"address"}],"outputs":[],"stateMutability":"nonpayable"},{"type":"function","name":"vote","inputs":[{"name":"proposalId","type":"uint256","internalType":"uint256"},{"name":"support","type":"bool","internalType":"bool"}],"outputs":[],"stateMutability":"nonpayable"},{"type":"event","name":"OwnershipTransferStarted","inputs":[{"name":"previousOwner","type":"address","indexed":true,"internalType":"address"},{"name":"newOwner","type":"address","indexed":true,"internalType":"address"}],"anonymous":false},{"type":"event","name":"OwnershipTransferred","inputs":[{"name":"previousOwner","type":"address","indexed":true,"internalType":"address"},{"name":"newOwner","type":"address","indexed":true,"internalType":"address"}],"anonymous":false},{"type":"event","name":"ProposalCreated","inputs":[{"name":"id","type":"uint256","indexed":true,"internalType":"uint256"},{"name":"proposalType","type":"uint8","indexed":false,"internalType":"enum UranoGovernance.ProposalType"},{"name":"description","type":"string","indexed":false,"internalType":"string"},{"name":"startTime","type":"uint256","indexed":false,"internalType":"uint256"},{"name":"endTime","type":"uint256","indexed":false,"internalType":"uint256"}],"anonymous":false},{"type":"event","name":"ProposalFinalized","inputs":[{"name":"proposalId","type":"uint256","indexed":true,"internalType":"uint256"},{"name":"result","type":"uint8","indexed":true,"internalType":"enum UranoGovernance.ProposalResult"}],"anonymous":false},{"type":"event","name":"VoteCast","inputs":[{"name":"proposalId","type":"uint256","indexed":true,"internalType":"uint256"},{"name":"voter","type":"address","indexed":true,"internalType":"address"},{"name":"support","type":"bool","indexed":false,"internalType":"bool"},{"name":"weight","type":"uint256","indexed":false,"internalType":"uint256"}],"anonymous":false},{"type":"error","name":"OwnableInvalidOwner","inputs":[{"name":"owner","type":"address","internalType":"address"}]},{"type":"error","name":"OwnableUnauthorizedAccount","inputs":[{"name":"account","type":"address","internalType":"address"}]},{"type":"error","name":"UranoGovernance__AlreadyVoted","inputs":[]},{"type":"error","name":"UranoGovernance__NoVotingPower","inputs":[]},{"type":"error","name":"UranoGovernance__VoteAlreadyFinalised","inputs":[]},{"type":"error","name":"UranoGovernance__VotingEnded","inputs":[]},{"type":"error","name":"UranoGovernance__VotingNotOver","inputs":[]},{"type":"error","name":"UranoGovernance__VotingNotStarted","inputs":[]}],"bytecode":{"object":"0x60a060405234801562000010575f80fd5b506040516200201038038062002010833981810160405281019062000036919062000255565b335f73ffffffffffffffffffffffffffffffffffffffff168173ffffffffffffffffffffffffffffffffffffffff1603620000aa575f6040517f1e4fbdf7000000000000000000000000000000000000000000000000000000008152600401620000a1919062000296565b60405180910390fd5b620000bb81620000f760201b60201c565b508073ffffffffffffffffffffffffffffffffffffffff1660808173ffffffffffffffffffffffffffffffffffffffff168152505050620002b1565b60015f6101000a81549073ffffffffffffffffffffffffffffffffffffffff02191690556200012c816200012f60201b60201c565b50565b5f805f9054906101000a900473ffffffffffffffffffffffffffffffffffffffff169050815f806101000a81548173ffffffffffffffffffffffffffffffffffffffff021916908373ffffffffffffffffffffffffffffffffffffffff1602179055508173ffffffffffffffffffffffffffffffffffffffff168173ffffffffffffffffffffffffffffffffffffffff167f8be0079c531659141344cd1fd0a4f28419497f9722a3daafe3b4186f6b6457e060405160405180910390a35050565b5f80fd5b5f73ffffffffffffffffffffffffffffffffffffffff82169050919050565b5f6200021f82620001f4565b9050919050565b620002318162000213565b81146200023c575f80fd5b50565b5f815190506200024f8162000226565b92915050565b5f602082840312156200026d576200026c620001f0565b5b5f6200027c848285016200023f565b91505092915050565b620002908162000213565b82525050565b5f602082019050620002ab5f83018462000285565b92915050565b608051611d3f620002d15f395f8181610aa50152610f5f0152611d3f5ff3fe608060405234801561000f575f80fd5b50600436106100b2575f3560e01c8063c9d27afe1161006f578063c9d27afe14610164578063ce8026b314610180578063da35c664146101b0578063e30c3978146101ce578063ee99205c146101ec578063f2fde38b1461020a576100b2565b806305261aea146100b65780631022b30b146100d2578063715018a61461010257806379ba50971461010c5780638da5cb5b14610116578063c7f758a814610134575b5f80fd5b6100d060048036038101906100cb9190611251565b610226565b005b6100ec60048036038101906100e79190611251565b61058d565b6040516100f991906112ef565b60405180910390f35b61010a6105b7565b005b6101146105ca565b005b61011e610658565b60405161012b9190611347565b60405180910390f35b61014e60048036038101906101499190611251565b61067f565b60405161015b919061152a565b60405180910390f35b61017e60048036038101906101799190611574565b6107fb565b005b61019a60048036038101906101959190611636565b610dd4565b6040516101a791906116a2565b60405180910390f35b6101b8610f2f565b6040516101c591906116a2565b60405180910390f35b6101d6610f35565b6040516101e39190611347565b60405180910390f35b6101f4610f5d565b6040516102019190611716565b60405180910390f35b610224600480360381019061021f9190611759565b610f81565b005b5f60035f8381526020019081526020015f20604051806101200160405290815f8201548152602001600182015f9054906101000a900460ff1660018111156102715761027061127c565b5b60018111156102835761028261127c565b5b8152602001600282018054610297906117b1565b80601f01602080910402602001604051908101604052809291908181526020018280546102c3906117b1565b801561030e5780601f106102e55761010080835404028352916020019161030e565b820191905f5260205f20905b8154815290600101906020018083116102f157829003601f168201915b5050505050815260200160038201548152602001600482015481526020016005820154815260200160068201548152602001600782015f9054906101000a900460ff161515151581526020016007820160019054906101000a900460ff16600281111561037e5761037d61127c565b5b60028111156103905761038f61127c565b5b81525050905080608001514210156103d4576040517f26d95cf100000000000000000000000000000000000000000000000000000000815260040160405180910390fd5b8060e0015115610410576040517f370c7a3a00000000000000000000000000000000000000000000000000000000815260040160405180910390fd5b60018160e00190151590811515815250508060c001518160a001511161043757600261043a565b60015b81610100019060028111156104525761045161127c565b5b908160028111156104665761046561127c565b5b815250508060035f8481526020019081526020015f205f820151815f01556020820151816001015f6101000a81548160ff021916908360018111156104ae576104ad61127c565b5b021790555060408201518160020190816104c891906119a2565b50606082015181600301556080820151816004015560a0820151816005015560c0820151816006015560e0820151816007015f6101000a81548160ff0219169083151502179055506101008201518160070160016101000a81548160ff0219169083600281111561053c5761053b61127c565b5b0217905550905050806101000151600281111561055c5761055b61127c565b5b827f34a42c4ce0a88d16ad098de6406057747139a2a3dd8dd8616ee7bbabcecb768e60405160405180910390a35050565b5f60035f8381526020019081526020015f2060070160019054906101000a900460ff169050919050565b6105bf61102d565b6105c85f6110b4565b565b5f6105d36110e4565b90508073ffffffffffffffffffffffffffffffffffffffff166105f4610f35565b73ffffffffffffffffffffffffffffffffffffffff161461064c57806040517f118cdaa70000000000000000000000000000000000000000000000000000000081526004016106439190611347565b60405180910390fd5b610655816110b4565b50565b5f805f9054906101000a900473ffffffffffffffffffffffffffffffffffffffff16905090565b6106876111ac565b60035f8381526020019081526020015f20604051806101200160405290815f8201548152602001600182015f9054906101000a900460ff1660018111156106d1576106d061127c565b5b60018111156106e3576106e261127c565b5b81526020016002820180546106f7906117b1565b80601f0160208091040260200160405190810160405280929190818152602001828054610723906117b1565b801561076e5780601f106107455761010080835404028352916020019161076e565b820191905f5260205f20905b81548152906001019060200180831161075157829003601f168201915b5050505050815260200160038201548152602001600482015481526020016005820154815260200160068201548152602001600782015f9054906101000a900460ff161515151581526020016007820160019054906101000a900460ff1660028111156107de576107dd61127c565b5b60028111156107f0576107ef61127c565b5b815250509050919050565b5f60035f8481526020019081526020015f20604051806101200160405290815f8201548152602001600182015f9054906101000a900460ff1660018111156108465761084561127c565b5b60018111156108585761085761127c565b5b815260200160028201805461086c906117b1565b80601f0160208091040260200160405190810160405280929190818152602001828054610898906117b1565b80156108e35780601f106108ba576101008083540402835291602001916108e3565b820191905f5260205f20905b8154815290600101906020018083116108c657829003601f168201915b5050505050815260200160038201548152602001600482015481526020016005820154815260200160068201548152602001600782015f9054906101000a900460ff161515151581526020016007820160019054906101000a900460ff1660028111156109535761095261127c565b5b60028111156109655761096461127c565b5b8152505090505f42905081606001518110156109ad576040517f10cf1b9400000000000000000000000000000000000000000000000000000000815260040160405180910390fd5b816080015181106109ea576040517f9e64dd2d00000000000000000000000000000000000000000000000000000000815260040160405180910390fd5b5f60028111156109fd576109fc61127c565b5b60045f845f015181526020019081526020015f205f3373ffffffffffffffffffffffffffffffffffffffff1673ffffffffffffffffffffffffffffffffffffffff1681526020019081526020015f205f9054906101000a900460ff166002811115610a6b57610a6a61127c565b5b14610aa2576040517f833988b700000000000000000000000000000000000000000000000000000000815260040160405180910390fd5b5f7f000000000000000000000000000000000000000000000000000000000000000073ffffffffffffffffffffffffffffffffffffffff1663ef40a670336040518263ffffffff1660e01b8152600401610afc9190611347565b602060405180830381865afa158015610b17573d5f803e3d5ffd5b505050506040513d601f19601f82011682018060405250810190610b3b9190611a85565b90505f8111610b76576040517fb1bc83fa00000000000000000000000000000000000000000000000000000000815260040160405180910390fd5b8315610c1157808360a001818151610b8e9190611add565b91508181525050600160045f855f015181526020019081526020015f205f3373ffffffffffffffffffffffffffffffffffffffff1673ffffffffffffffffffffffffffffffffffffffff1681526020019081526020015f205f6101000a81548160ff02191690836002811115610c0757610c0661127c565b5b0217905550610ca2565b808360c001818151610c239190611add565b91508181525050600260045f855f015181526020019081526020015f205f3373ffffffffffffffffffffffffffffffffffffffff1673ffffffffffffffffffffffffffffffffffffffff1681526020019081526020015f205f6101000a81548160ff02191690836002811115610c9c57610c9b61127c565b5b02179055505b8260035f8781526020019081526020015f205f820151815f01556020820151816001015f6101000a81548160ff02191690836001811115610ce657610ce561127c565b5b02179055506040820151816002019081610d0091906119a2565b50606082015181600301556080820151816004015560a0820151816005015560c0820151816006015560e0820151816007015f6101000a81548160ff0219169083151502179055506101008201518160070160016101000a81548160ff02191690836002811115610d7457610d7361127c565b5b02179055509050503373ffffffffffffffffffffffffffffffffffffffff16857fcbdf6214089cba887ecbf35a0b6a734589959c9763342c756bb2a80ca2bc9f6e8684604051610dc5929190611b1f565b60405180910390a35050505050565b5f610ddd61102d565b5f806001811115610df157610df061127c565b5b856001811115610e0457610e0361127c565b5b14610e125762093a80610e17565b6201fa405b62ffffff1690505f60035f60025f8154610e3090611b46565b91905081905581526020019081526020015f209050600254815f018190555085816001015f6101000a81548160ff02191690836001811115610e7557610e7461127c565b5b02179055508484826002019182610e8d929190611b97565b504281600301819055508142610ea39190611add565b81600401819055505f8160070160016101000a81548160ff02191690836002811115610ed257610ed161127c565b5b02179055506002547ff7cc5584ee332228e269cc5d7d3ac396c6b9b6d8895efa819bca4ff3469eefc887878785600301548660040154604051610f19959493929190611cbd565b60405180910390a2600254925050509392505050565b60025481565b5f60015f9054906101000a900473ffffffffffffffffffffffffffffffffffffffff16905090565b7f000000000000000000000000000000000000000000000000000000000000000081565b610f8961102d565b8060015f6101000a81548173ffffffffffffffffffffffffffffffffffffffff021916908373ffffffffffffffffffffffffffffffffffffffff1602179055508073ffffffffffffffffffffffffffffffffffffffff16610fe8610658565b73ffffffffffffffffffffffffffffffffffffffff167f38d16b8cac22d99fc7c124b9cd0de2d3fa1faef420bfe791d8c362d765e2270060405160405180910390a350565b6110356110e4565b73ffffffffffffffffffffffffffffffffffffffff16611053610658565b73ffffffffffffffffffffffffffffffffffffffff16146110b2576110766110e4565b6040517f118cdaa70000000000000000000000000000000000000000000000000000000081526004016110a99190611347565b60405180910390fd5b565b60015f6101000a81549073ffffffffffffffffffffffffffffffffffffffff02191690556110e1816110eb565b50565b5f33905090565b5f805f9054906101000a900473ffffffffffffffffffffffffffffffffffffffff169050815f806101000a81548173ffffffffffffffffffffffffffffffffffffffff021916908373ffffffffffffffffffffffffffffffffffffffff1602179055508173ffffffffffffffffffffffffffffffffffffffff168173ffffffffffffffffffffffffffffffffffffffff167f8be0079c531659141344cd1fd0a4f28419497f9722a3daafe3b4186f6b6457e060405160405180910390a35050565b6040518061012001604052805f81526020015f60018111156111d1576111d061127c565b5b8152602001606081526020015f81526020015f81526020015f81526020015f81526020015f151581526020015f60028111156112105761120f61127c565b5b81525090565b5f80fd5b5f80fd5b5f819050919050565b6112308161121e565b811461123a575f80fd5b50565b5f8135905061124b81611227565b92915050565b5f6020828403121561126657611265611216565b5b5f6112738482850161123d565b91505092915050565b7f4e487b71000000000000000000000000000000000000000000000000000000005f52602160045260245ffd5b600381106112ba576112b961127c565b5b50565b5f8190506112ca826112a9565b919050565b5f6112d9826112bd565b9050919050565b6112e9816112cf565b82525050565b5f6020820190506113025f8301846112e0565b92915050565b5f73ffffffffffffffffffffffffffffffffffffffff82169050919050565b5f61133182611308565b9050919050565b61134181611327565b82525050565b5f60208201905061135a5f830184611338565b92915050565b6113698161121e565b82525050565b600281106113805761137f61127c565b5b50565b5f8190506113908261136f565b919050565b5f61139f82611383565b9050919050565b6113af81611395565b82525050565b5f81519050919050565b5f82825260208201905092915050565b5f5b838110156113ec5780820151818401526020810190506113d1565b5f8484015250505050565b5f601f19601f8301169050919050565b5f611411826113b5565b61141b81856113bf565b935061142b8185602086016113cf565b611434816113f7565b840191505092915050565b5f8115159050919050565b6114538161143f565b82525050565b611462816112cf565b82525050565b5f61012083015f83015161147e5f860182611360565b50602083015161149160208601826113a6565b50604083015184820360408601526114a98282611407565b91505060608301516114be6060860182611360565b5060808301516114d16080860182611360565b5060a08301516114e460a0860182611360565b5060c08301516114f760c0860182611360565b5060e083015161150a60e086018261144a565b5061010083015161151f610100860182611459565b508091505092915050565b5f6020820190508181035f8301526115428184611468565b905092915050565b6115538161143f565b811461155d575f80fd5b50565b5f8135905061156e8161154a565b92915050565b5f806040838503121561158a57611589611216565b5b5f6115978582860161123d565b92505060206115a885828601611560565b9150509250929050565b600281106115be575f80fd5b50565b5f813590506115cf816115b2565b92915050565b5f80fd5b5f80fd5b5f80fd5b5f8083601f8401126115f6576115f56115d5565b5b8235905067ffffffffffffffff811115611613576116126115d9565b5b60208301915083600182028301111561162f5761162e6115dd565b5b9250929050565b5f805f6040848603121561164d5761164c611216565b5b5f61165a868287016115c1565b935050602084013567ffffffffffffffff81111561167b5761167a61121a565b5b611687868287016115e1565b92509250509250925092565b61169c8161121e565b82525050565b5f6020820190506116b55f830184611693565b92915050565b5f819050919050565b5f6116de6116d96116d484611308565b6116bb565b611308565b9050919050565b5f6116ef826116c4565b9050919050565b5f611700826116e5565b9050919050565b611710816116f6565b82525050565b5f6020820190506117295f830184611707565b92915050565b61173881611327565b8114611742575f80fd5b50565b5f813590506117538161172f565b92915050565b5f6020828403121561176e5761176d611216565b5b5f61177b84828501611745565b91505092915050565b7f4e487b71000000000000000000000000000000000000000000000000000000005f52602260045260245ffd5b5f60028204905060018216806117c857607f821691505b6020821081036117db576117da611784565b5b50919050565b7f4e487b71000000000000000000000000000000000000000000000000000000005f52604160045260245ffd5b5f819050815f5260205f209050919050565b5f6020601f8301049050919050565b5f82821b905092915050565b5f6008830261186a7fffffffffffffffffffffffffffffffffffffffffffffffffffffffffffffffff8261182f565b611874868361182f565b95508019841693508086168417925050509392505050565b5f6118a66118a161189c8461121e565b6116bb565b61121e565b9050919050565b5f819050919050565b6118bf8361188c565b6118d36118cb826118ad565b84845461183b565b825550505050565b5f90565b6118e76118db565b6118f28184846118b6565b505050565b5b818110156119155761190a5f826118df565b6001810190506118f8565b5050565b601f82111561195a5761192b8161180e565b61193484611820565b81016020851015611943578190505b61195761194f85611820565b8301826118f7565b50505b505050565b5f82821c905092915050565b5f61197a5f198460080261195f565b1980831691505092915050565b5f611992838361196b565b9150826002028217905092915050565b6119ab826113b5565b67ffffffffffffffff8111156119c4576119c36117e1565b5b6119ce82546117b1565b6119d9828285611919565b5f60209050601f831160018114611a0a575f84156119f8578287015190505b611a028582611987565b865550611a69565b601f198416611a188661180e565b5f5b82811015611a3f57848901518255600182019150602085019450602081019050611a1a565b86831015611a5c5784890151611a58601f89168261196b565b8355505b6001600288020188555050505b505050505050565b5f81519050611a7f81611227565b92915050565b5f60208284031215611a9a57611a99611216565b5b5f611aa784828501611a71565b91505092915050565b7f4e487b71000000000000000000000000000000000000000000000000000000005f52601160045260245ffd5b5f611ae78261121e565b9150611af28361121e565b9250828201905080821115611b0a57611b09611ab0565b5b92915050565b611b198161143f565b82525050565b5f604082019050611b325f830185611b10565b611b3f6020830184611693565b9392505050565b5f611b508261121e565b91507fffffffffffffffffffffffffffffffffffffffffffffffffffffffffffffffff8203611b8257611b81611ab0565b5b600182019050919050565b5f82905092915050565b611ba18383611b8d565b67ffffffffffffffff811115611bba57611bb96117e1565b5b611bc482546117b1565b611bcf828285611919565b5f601f831160018114611bfc575f8415611bea578287013590505b611bf48582611987565b865550611c5b565b601f198416611c0a8661180e565b5f5b82811015611c3157848901358255600182019150602085019450602081019050611c0c565b86831015611c4e5784890135611c4a601f89168261196b565b8355505b6001600288020188555050505b50505050505050565b611c6d81611395565b82525050565b5f82825260208201905092915050565b828183375f83830152505050565b5f611c9c8385611c73565b9350611ca9838584611c83565b611cb2836113f7565b840190509392505050565b5f608082019050611cd05f830188611c64565b8181036020830152611ce3818688611c91565b9050611cf26040830185611693565b611cff6060830184611693565b969550505050505056fea2646970667358221220170cfeb70a99c853abc68c54a89e389ef2400b583db9432088ee154daecf525164736f6c63430008180033","linkReferences":{}},"methodIdentifiers":{"acceptOwnership()":"79ba5097","finalize(uint256)":"05261aea","getProposal(uint256)":"c7f758a8","owner()":"8da5cb5b","pendingOwner()":"e30c3978","proposalCount()":"da35c664","proposalResult(uint256)":"1022b30b","propose(uint8,string)":"ce8026b3","renounceOwnership()":"715018a6","stakingContract()":"ee99205c","transferOwnership(address)":"f2fde38b","vote(uint256,bool)":"c9d27afe"},"id":64}