{"abi":[{"type":"constructor","inputs":[{"name":"_admin","type":"address","internalType":"address"}],"stateMutability":"nonpayable"},{"type":"function","name":"CLOCK_MODE","inputs":[],"outputs":[{"name":"","type":"string","internalType":"string"}],"stateMutability":"pure"},{"type":"function","name":"MAX_SUPPLY","inputs":[],"outputs":[{"name":"","type":"uint256","internalType":"uint256"}],"stateMutability":"view"},{"type":"function","name":"allowance","inputs":[{"name":"owner","type":"address","internalType":"address"},{"name":"spender","type":"address","internalType":"address"}],"outputs":[{"name":"","type":"uint256","internalType":"uint256"}],"stateMutability":"view"},{"type":"function","name":"approve","inputs":[{"name":"spender","type":"address","internalType":"address"},{"name":"value","type":"uint256","internalType":"uint256"}],"outputs":[{"name":"","type":"bool","internalType":"bool"}],"stateMutability":"nonpayable"},{"type":"function","name":"balanceOf","inputs":[{"name":"account","type":"address","internalType":"address"}],"outputs":[{"name":"","type":"uint256","internalType":"uint256"}],"stateMutability":"view"},{"type":"function","name":"checkpoints","inputs":[{"name":"account","type":"address","internalType":"address"},{"name":"pos","type":"uint32","internalType":"uint32"}],"outputs":[{"name":"","type":"tuple","internalType":"struct Checkpoints.Checkpoint208","components":[{"name":"_key","type":"uint48","internalType":"uint48"},{"name":"_value","type":"uint208","internalType":"uint208"}]}],"stateMutability":"view"},{"type":"function","name":"clock","inputs":[],"outputs":[{"name":"","type":"uint48","internalType":"uint48"}],"stateMutability":"view"},{"type":"function","name":"decimals","inputs":[],"outputs":[{"name":"","type":"uint8","internalType":"uint8"}],"stateMutability":"view"},{"type":"function","name":"delegate","inputs":[{"name":"delegatee","type":"address","internalType":"address"}],"outputs":[],"stateMutability":"nonpayable"},{"type":"function","name":"delegateBySig","inputs":[{"name":"delegatee","type":"address","internalType":"address"},{"name":"nonce","type":"uint256","internalType":"uint256"},{"name":"expiry","type":"uint256","internalType":"uint256"},{"name":"v","type":"uint8","internalType":"uint8"},{"name":"r","type":"bytes32","internalType":"bytes32"},{"name":"s","type":"bytes32","internalType":"bytes32"}],"outputs":[],"stateMutability":"nonpayable"},{"type":"function","name":"delegates","inputs":[{"name":"account","type":"address","internalType":"address"}],"outputs":[{"name":"","type":"address","internalType":"address"}],"stateMutability":"view"},{"type":"function","name":"eip712Domain","inputs":[],"outputs":[{"name":"fields","type":"bytes1","internalType":"bytes1"},{"name":"name","type":"string","internalType":"string"},{"name":"version","type":"string","internalType":"string"},{"name":"chainId","type":"uint256","internalType":"uint256"},{"name":"verifyingContract","type":"address","internalType":"address"},{"name":"salt","type":"bytes32","internalType":"bytes32"},{"name":"extensions","type":"uint256[]","internalType":"uint256[]"}],"stateMutability":"view"},{"type":"function","name":"getPastTotalSupply","inputs":[{"name":"timepoint","type":"uint256","internalType":"uint256"}],"outputs":[{"name":"","type":"uint256","internalType":"uint256"}],"stateMutability":"view"},{"type":"function","name":"getPastVotes","inputs":[{"name":"account","type":"address","internalType":"address"},{"name":"timepoint","type":"uint256","internalType":"uint256"}],"outputs":[{"name":"","type":"uint256","internalType":"uint256"}],"stateMutability":"view"},{"type":"function","name":"getVotes","inputs":[{"name":"account","type":"address","internalType":"address"}],"outputs":[{"name":"","type":"uint256","internalType":"uint256"}],"stateMutability":"view"},{"type":"function","name":"name","inputs":[],"outputs":[{"name":"","type":"string","internalType":"string"}],"stateMutability":"view"},{"type":"function","name":"nonces","inputs":[{"name":"owner","type":"address","internalType":"address"}],"outputs":[{"name":"","type":"uint256","internalType":"uint256"}],"stateMutability":"view"},{"type":"function","name":"numCheckpoints","inputs":[{"name":"account","type":"address","internalType":"address"}],"outputs":[{"name":"","type":"uint32","internalType":"uint32"}],"stateMutability":"view"},{"type":"function","name":"symbol","inputs":[],"outputs":[{"name":"","type":"string","internalType":"string"}],"stateMutability":"view"},{"type":"function","name":"totalSupply","inputs":[],"outputs":[{"name":"","type":"uint256","internalType":"uint256"}],"stateMutability":"view"},{"type":"function","name":"transfer","inputs":[{"name":"to","type":"address","internalType":"address"},{"name":"value","type":"uint256","internalType":"uint256"}],"outputs":[{"name":"","type":"bool","internalType":"bool"}],"stateMutability":"nonpayable"},{"type":"function","name":"transferFrom","inputs":[{"name":"from","type":"address","internalType":"address"},{"name":"to","type":"address","internalType":"address"},{"name":"value","type":"uint256","internalType":"uint256"}],"outputs":[{"name":"","type":"bool","internalType":"bool"}],"stateMutability":"nonpayable"},{"type":"event","name":"Approval","inputs":[{"name":"owner","type":"address","indexed":true,"internalType":"address"},{"name":"spender","type":"address","indexed":true,"internalType":"address"},{"name":"value","type":"uint256","indexed":false,"internalType":"uint256"}],"anonymous":false},{"type":"event","name":"DelegateChanged","inputs":[{"name":"delegator","type":"address","indexed":true,"internalType":"address"},{"name":"fromDelegate","type":"address","indexed":true,"internalType":"address"},{"name":"toDelegate","type":"address","indexed":true,"internalType":"address"}],"anonymous":false},{"type":"event","name":"DelegateVotesChanged","inputs":[{"name":"delegate","type":"address","indexed":true,"internalType":"address"},{"name":"previousVotes","type":"uint256","indexed":false,"internalType":"uint256"},{"name":"newVotes","type":"uint256","indexed":false,"internalType":"uint256"}],"anonymous":false},{"type":"event","name":"EIP712DomainChanged","inputs":[],"anonymous":false},{"type":"event","name":"Transfer","inputs":[{"name":"from","type":"address","indexed":true,"internalType":"address"},{"name":"to","type":"address","indexed":true,"internalType":"address"},{"name":"value","type":"uint256","indexed":false,"internalType":"uint256"}],"anonymous":false},{"type":"error","name":"CheckpointUnorderedInsertion","inputs":[]},{"type":"error","name":"ECDSAInvalidSignature","inputs":[]},{"type":"error","name":"ECDSAInvalidSignatureLength","inputs":[{"name":"length","type":"uint256","internalType":"uint256"}]},{"type":"error","name":"ECDSAInvalidSignatureS","inputs":[{"name":"s","type":"bytes32","internalType":"bytes32"}]},{"type":"error","name":"ERC20ExceededSafeSupply","inputs":[{"name":"increasedSupply","type":"uint256","internalType":"uint256"},{"name":"cap","type":"uint256","internalType":"uint256"}]},{"type":"error","name":"ERC20InsufficientAllowance","inputs":[{"name":"spender","type":"address","internalType":"address"},{"name":"allowance","type":"uint256","internalType":"uint256"},{"name":"needed","type":"uint256","internalType":"uint256"}]},{"type":"error","name":"ERC20InsufficientBalance","inputs":[{"name":"sender","type":"address","internalType":"address"},{"name":"balance","type":"uint256","internalType":"uint256"},{"name":"needed","type":"uint256","internalType":"uint256"}]},{"type":"error","name":"ERC20InvalidApprover","inputs":[{"name":"approver","type":"address","internalType":"address"}]},{"type":"error","name":"ERC20InvalidReceiver","inputs":[{"name":"receiver","type":"address","internalType":"address"}]},{"type":"error","name":"ERC20InvalidSender","inputs":[{"name":"sender","type":"address","internalType":"address"}]},{"type":"error","name":"ERC20InvalidSpender","inputs":[{"name":"spender","type":"address","internalType":"address"}]},{"type":"error","name":"ERC5805FutureLookup","inputs":[{"name":"timepoint","type":"uint256","internalType":"uint256"},{"name":"clock","type":"uint48","internalType":"uint48"}]},{"type":"error","name":"ERC6372InconsistentClock","inputs":[]},{"type":"error","name":"InvalidAccountNonce","inputs":[{"name":"account","type":"address","internalType":"address"},{"name":"currentNonce","type":"uint256","internalType":"uint256"}]},{"type":"error","name":"InvalidShortString","inputs":[]},{"type":"error","name":"SafeCastOverflowedUintDowncast","inputs":[{"name":"bits","type":"uint8","internalType":"uint8"},{"name":"value","type":"uint256","internalType":"uint256"}]},{"type":"error","name":"StringTooLong","inputs":[{"name":"str","type":"string","internalType":"string"}]},{"type":"error","name":"VotesExpiredSignature","inputs":[{"name":"expiry","type":"uint256","internalType":"uint256"}]}],"bytecode":{"object":"0x61016060405234801562000011575f80fd5b5060405162004afd38038062004afd833981810160405281019062000037919062000feb565b6040518060400160405280600a81526020017f5572616e6f546f6b656e000000000000000000000000000000000000000000008152506040518060400160405280600181526020017f31000000000000000000000000000000000000000000000000000000000000008152506040518060400160405280600a81526020017f5572616e6f546f6b656e000000000000000000000000000000000000000000008152506040518060400160405280600581526020017f5552414e4f00000000000000000000000000000000000000000000000000000081525081600390816200012091906200127f565b5080600490816200013291906200127f565b5050506200014b6005836200020960201b90919060201c565b6101208181525050620001696006826200020960201b90919060201c565b6101408181525050818051906020012060e08181525050808051906020012061010081815250504660a08181525050620001a86200025e60201b60201c565b608081815250503073ffffffffffffffffffffffffffffffffffffffff1660c08173ffffffffffffffffffffffffffffffffffffffff1681525050505062000202816aa56fa5b99019a5c8000000620002ba60201b60201c565b50620017c6565b5f6020835110156200022e5762000226836200034460201b60201c565b905062000258565b826200024083620003ae60201b60201c565b5f0190816200025091906200127f565b5060ff5f1b90505b92915050565b5f7f8b73c3c69bb8fe3d512ecc4cf759cc79239f7b179b0ffacaa9a75d522b39400f60e0516101005146306040516020016200029f9594939291906200139f565b60405160208183030381529060405280519060200120905090565b5f73ffffffffffffffffffffffffffffffffffffffff168273ffffffffffffffffffffffffffffffffffffffff16036200032d575f6040517fec442f05000000000000000000000000000000000000000000000000000000008152600401620003249190620013fa565b60405180910390fd5b620003405f8383620003b760201b60201c565b5050565b5f80829050601f815111156200039357826040517f305a27a90000000000000000000000000000000000000000000000000000000081526004016200038a91906200149f565b60405180910390fd5b805181620003a190620014f0565b5f1c175f1b915050919050565b5f819050919050565b620003ca8383836200048960201b60201c565b5f73ffffffffffffffffffffffffffffffffffffffff168373ffffffffffffffffffffffffffffffffffffffff160362000471575f6200040f620006ad60201b60201c565b90505f62000422620006b660201b60201c565b9050808211156200046e5781816040517f1cb15d26000000000000000000000000000000000000000000000000000000008152600401620004659291906200155f565b60405180910390fd5b50505b62000484838383620006d960201b60201c565b505050565b5f73ffffffffffffffffffffffffffffffffffffffff168373ffffffffffffffffffffffffffffffffffffffff1603620004dd578060025f828254620004d09190620015b7565b92505081905550620005ae565b5f805f8573ffffffffffffffffffffffffffffffffffffffff1673ffffffffffffffffffffffffffffffffffffffff1681526020019081526020015f205490508181101562000569578381836040517fe450d38c0000000000000000000000000000000000000000000000000000000081526004016200056093929190620015f1565b60405180910390fd5b8181035f808673ffffffffffffffffffffffffffffffffffffffff1673ffffffffffffffffffffffffffffffffffffffff1681526020019081526020015f2081905550505b5f73ffffffffffffffffffffffffffffffffffffffff168273ffffffffffffffffffffffffffffffffffffffff1603620005f7578060025f828254039250508190555062000641565b805f808473ffffffffffffffffffffffffffffffffffffffff1673ffffffffffffffffffffffffffffffffffffffff1681526020019081526020015f205f82825401925050819055505b8173ffffffffffffffffffffffffffffffffffffffff168373ffffffffffffffffffffffffffffffffffffffff167fddf252ad1be2c89b69c2b068fc378daa952ba7f163c4a11628f55a4df523b3ef83604051620006a091906200162c565b60405180910390a3505050565b5f600254905090565b5f79ffffffffffffffffffffffffffffffffffffffffffffffffffff8016905090565b5f73ffffffffffffffffffffffffffffffffffffffff168373ffffffffffffffffffffffffffffffffffffffff16036200073f576200073c600a620007dd60201b62000aed176200073084620007f460201b60201c565b6200086460201b60201c565b50505b5f73ffffffffffffffffffffffffffffffffffffffff168273ffffffffffffffffffffffffffffffffffffffff1603620007a557620007a2600a620008b360201b62000b02176200079684620007f460201b60201c565b6200086460201b60201c565b50505b620007d8620007ba84620008ca60201b60201c565b620007cb84620008ca60201b60201c565b836200092f60201b60201c565b505050565b5f8183620007ec91906200166c565b905092915050565b5f79ffffffffffffffffffffffffffffffffffffffffffffffffffff80168211156200085c5760d0826040517f6dfcc650000000000000000000000000000000000000000000000000000000008152600401620008539291906200170d565b60405180910390fd5b819050919050565b5f80620008a76200087a62000bd960201b60201c565b620008966200088f8862000be060201b60201c565b868860201c565b8762000c4e60201b9092919060201c565b91509150935093915050565b5f8183620008c2919062001738565b905092915050565b5f60085f8373ffffffffffffffffffffffffffffffffffffffff1673ffffffffffffffffffffffffffffffffffffffff1681526020019081526020015f205f9054906101000a900473ffffffffffffffffffffffffffffffffffffffff169050919050565b8173ffffffffffffffffffffffffffffffffffffffff168373ffffffffffffffffffffffffffffffffffffffff16141580156200096b57505f81115b1562000bd4575f73ffffffffffffffffffffffffffffffffffffffff168373ffffffffffffffffffffffffffffffffffffffff161462000aa2575f8062000a1160095f8773ffffffffffffffffffffffffffffffffffffffff1673ffffffffffffffffffffffffffffffffffffffff1681526020019081526020015f20620008b360201b62000b021762000a0586620007f460201b60201c565b6200086460201b60201c565b79ffffffffffffffffffffffffffffffffffffffffffffffffffff16915079ffffffffffffffffffffffffffffffffffffffffffffffffffff1691508473ffffffffffffffffffffffffffffffffffffffff167fdec2bacdd2f05b59de34da9b523dff8be42e5e38e818c82fdb0bae774387a724838360405162000a979291906200155f565b60405180910390a250505b5f73ffffffffffffffffffffffffffffffffffffffff168273ffffffffffffffffffffffffffffffffffffffff161462000bd3575f8062000b4260095f8673ffffffffffffffffffffffffffffffffffffffff1673ffffffffffffffffffffffffffffffffffffffff1681526020019081526020015f20620007dd60201b62000aed1762000b3686620007f460201b60201c565b6200086460201b60201c565b79ffffffffffffffffffffffffffffffffffffffffffffffffffff16915079ffffffffffffffffffffffffffffffffffffffffffffffffffff1691508373ffffffffffffffffffffffffffffffffffffffff167fdec2bacdd2f05b59de34da9b523dff8be42e5e38e818c82fdb0bae774387a724838360405162000bc89291906200155f565b60405180910390a250505b5b505050565b5f42905090565b5f80825f018054905090505f811462000c445762000c15835f0160018362000c0991906200178c565b62000c7160201b60201c565b5f0160069054906101000a900479ffffffffffffffffffffffffffffffffffffffffffffffffffff1662000c46565b5f5b915050919050565b5f8062000c65855f01858562000c8360201b60201c565b91509150935093915050565b5f825f528160205f2001905092915050565b5f805f858054905090505f81111562000e9e575f62000cb78760018462000cab91906200178c565b62000c7160201b60201c565b90505f815f015f9054906101000a900465ffffffffffff1690505f825f0160069054906101000a900479ffffffffffffffffffffffffffffffffffffffffffffffffffff1690508765ffffffffffff168265ffffffffffff16111562000d49576040517f2520601d00000000000000000000000000000000000000000000000000000000815260040160405180910390fd5b8765ffffffffffff168265ffffffffffff160362000db55786835f0160066101000a81548179ffffffffffffffffffffffffffffffffffffffffffffffffffff021916908379ffffffffffffffffffffffffffffffffffffffffffffffffffff16021790555062000e8e565b8860405180604001604052808a65ffffffffffff1681526020018979ffffffffffffffffffffffffffffffffffffffffffffffffffff16815250908060018154018082558091505060019003905f5260205f20015f909190919091505f820151815f015f6101000a81548165ffffffffffff021916908365ffffffffffff1602179055506020820151815f0160066101000a81548179ffffffffffffffffffffffffffffffffffffffffffffffffffff021916908379ffffffffffffffffffffffffffffffffffffffffffffffffffff16021790555050505b8087955095505050505062000f7e565b8560405180604001604052808765ffffffffffff1681526020018679ffffffffffffffffffffffffffffffffffffffffffffffffffff16815250908060018154018082558091505060019003905f5260205f20015f909190919091505f820151815f015f6101000a81548165ffffffffffff021916908365ffffffffffff1602179055506020820151815f0160066101000a81548179ffffffffffffffffffffffffffffffffffffffffffffffffffff021916908379ffffffffffffffffffffffffffffffffffffffffffffffffffff16021790555050505f8492509250505b935093915050565b5f80fd5b5f73ffffffffffffffffffffffffffffffffffffffff82169050919050565b5f62000fb58262000f8a565b9050919050565b62000fc78162000fa9565b811462000fd2575f80fd5b50565b5f8151905062000fe58162000fbc565b92915050565b5f6020828403121562001003576200100262000f86565b5b5f620010128482850162000fd5565b91505092915050565b5f81519050919050565b7f4e487b71000000000000000000000000000000000000000000000000000000005f52604160045260245ffd5b7f4e487b71000000000000000000000000000000000000000000000000000000005f52602260045260245ffd5b5f60028204905060018216806200109757607f821691505b602082108103620010ad57620010ac62001052565b5b50919050565b5f819050815f5260205f209050919050565b5f6020601f8301049050919050565b5f82821b905092915050565b5f60088302620011117fffffffffffffffffffffffffffffffffffffffffffffffffffffffffffffffff82620010d4565b6200111d8683620010d4565b95508019841693508086168417925050509392505050565b5f819050919050565b5f819050919050565b5f62001167620011616200115b8462001135565b6200113e565b62001135565b9050919050565b5f819050919050565b620011828362001147565b6200119a62001191826200116e565b848454620010e0565b825550505050565b5f90565b620011b0620011a2565b620011bd81848462001177565b505050565b5b81811015620011e457620011d85f82620011a6565b600181019050620011c3565b5050565b601f8211156200123357620011fd81620010b3565b6200120884620010c5565b8101602085101562001218578190505b620012306200122785620010c5565b830182620011c2565b50505b505050565b5f82821c905092915050565b5f620012555f198460080262001238565b1980831691505092915050565b5f6200126f838362001244565b9150826002028217905092915050565b6200128a826200101b565b67ffffffffffffffff811115620012a657620012a562001025565b5b620012b282546200107f565b620012bf828285620011e8565b5f60209050601f831160018114620012f5575f8415620012e0578287015190505b620012ec858262001262565b8655506200135b565b601f1984166200130586620010b3565b5f5b828110156200132e5784890151825560018201915060208501945060208101905062001307565b868310156200134e57848901516200134a601f89168262001244565b8355505b6001600288020188555050505b505050505050565b5f819050919050565b620013778162001363565b82525050565b620013888162001135565b82525050565b620013998162000fa9565b82525050565b5f60a082019050620013b45f8301886200136c565b620013c360208301876200136c565b620013d260408301866200136c565b620013e160608301856200137d565b620013f060808301846200138e565b9695505050505050565b5f6020820190506200140f5f8301846200138e565b92915050565b5f82825260208201905092915050565b5f5b838110156200144457808201518184015260208101905062001427565b5f8484015250505050565b5f601f19601f8301169050919050565b5f6200146b826200101b565b62001477818562001415565b93506200148981856020860162001425565b62001494816200144f565b840191505092915050565b5f6020820190508181035f830152620014b981846200145f565b905092915050565b5f81519050919050565b5f819050602082019050919050565b5f620014e7825162001363565b80915050919050565b5f620014fc82620014c1565b826200150884620014cb565b90506200151581620014da565b925060208210156200155857620015537fffffffffffffffffffffffffffffffffffffffffffffffffffffffffffffffff83602003600802620010d4565b831692505b5050919050565b5f604082019050620015745f8301856200137d565b6200158360208301846200137d565b9392505050565b7f4e487b71000000000000000000000000000000000000000000000000000000005f52601160045260245ffd5b5f620015c38262001135565b9150620015d08362001135565b9250828201905080821115620015eb57620015ea6200158a565b5b92915050565b5f606082019050620016065f8301866200138e565b6200161560208301856200137d565b6200162460408301846200137d565b949350505050565b5f602082019050620016415f8301846200137d565b92915050565b5f79ffffffffffffffffffffffffffffffffffffffffffffffffffff82169050919050565b5f620016788262001647565b9150620016858362001647565b9250828201905079ffffffffffffffffffffffffffffffffffffffffffffffffffff811115620016ba57620016b96200158a565b5b92915050565b5f819050919050565b5f60ff82169050919050565b5f620016f5620016ef620016e984620016c0565b6200113e565b620016c9565b9050919050565b6200170781620016d5565b82525050565b5f604082019050620017225f830185620016fc565b6200173160208301846200137d565b9392505050565b5f620017448262001647565b9150620017518362001647565b9250828203905079ffffffffffffffffffffffffffffffffffffffffffffffffffff8111156200178657620017856200158a565b5b92915050565b5f620017988262001135565b9150620017a58362001135565b9250828203905081811115620017c057620017bf6200158a565b5b92915050565b60805160a05160c05160e0516101005161012051610140516132e5620018185f395f610fb401525f610f7901525f6122b801525f61229701525f6119d301525f611a2901525f611a5201526132e55ff3fe608060405234801561000f575f80fd5b5060043610610140575f3560e01c806370a08231116100b657806395d89b411161007a57806395d89b41146103b85780639ab24eb0146103d6578063a9059cbb14610406578063c3cda52014610436578063dd62ed3e14610452578063f1127ed81461048257610140565b806370a08231146102e65780637ecebe001461031657806384b0196e146103465780638e539e8c1461036a57806391ddadf41461039a57610140565b806332cb6b0c1161010857806332cb6b0c146101fe5780633a46b1a81461021c5780634bf5d7e91461024c578063587cde1e1461026a5780635c19a95c1461029a5780636fcfff45146102b657610140565b806306fdde0314610144578063095ea7b31461016257806318160ddd1461019257806323b872dd146101b0578063313ce567146101e0575b5f80fd5b61014c6104b2565b604051610159919061272b565b60405180910390f35b61017c600480360381019061017791906127dc565b610542565b6040516101899190612834565b60405180910390f35b61019a610564565b6040516101a7919061285c565b60405180910390f35b6101ca60048036038101906101c59190612875565b61056d565b6040516101d79190612834565b60405180910390f35b6101e861059b565b6040516101f591906128e0565b60405180910390f35b6102066105a3565b604051610213919061285c565b60405180910390f35b610236600480360381019061023191906127dc565b6105b2565b604051610243919061285c565b60405180910390f35b61025461062e565b604051610261919061272b565b60405180910390f35b610284600480360381019061027f91906128f9565b61066b565b6040516102919190612933565b60405180910390f35b6102b460048036038101906102af91906128f9565b6106d0565b005b6102d060048036038101906102cb91906128f9565b6106e9565b6040516102dd919061296a565b60405180910390f35b61030060048036038101906102fb91906128f9565b6106fa565b60405161030d919061285c565b60405180910390f35b610330600480360381019061032b91906128f9565b61073f565b60405161033d919061285c565b60405180910390f35b61034e610785565b6040516103619796959493929190612a8c565b60405180910390f35b610384600480360381019061037f9190612b0e565b61082a565b604051610391919061285c565b60405180910390f35b6103a261086a565b6040516103af9190612b59565b60405180910390f35b6103c0610871565b6040516103cd919061272b565b60405180910390f35b6103f060048036038101906103eb91906128f9565b610901565b6040516103fd919061285c565b60405180910390f35b610420600480360381019061041b91906127dc565b61096a565b60405161042d9190612834565b60405180910390f35b610450600480360381019061044b9190612bc6565b61098c565b005b61046c60048036038101906104679190612c4f565b610a51565b604051610479919061285c565b60405180910390f35b61049c60048036038101906104979190612cb7565b610ad3565b6040516104a99190612d65565b60405180910390f35b6060600380546104c190612dab565b80601f01602080910402602001604051908101604052809291908181526020018280546104ed90612dab565b80156105385780601f1061050f57610100808354040283529160200191610538565b820191905f5260205f20905b81548152906001019060200180831161051b57829003601f168201915b5050505050905090565b5f8061054c610b17565b9050610559818585610b1e565b600191505092915050565b5f600254905090565b5f80610577610b17565b9050610584858285610b30565b61058f858585610bc3565b60019150509392505050565b5f6012905090565b6aa56fa5b99019a5c800000081565b5f61060a6105bf83610cb3565b60095f8673ffffffffffffffffffffffffffffffffffffffff1673ffffffffffffffffffffffffffffffffffffffff1681526020019081526020015f20610d1e90919063ffffffff16565b79ffffffffffffffffffffffffffffffffffffffffffffffffffff16905092915050565b60606040518060400160405280600e81526020017f6d6f64653d74696d657374616d70000000000000000000000000000000000000815250905090565b5f60085f8373ffffffffffffffffffffffffffffffffffffffff1673ffffffffffffffffffffffffffffffffffffffff1681526020019081526020015f205f9054906101000a900473ffffffffffffffffffffffffffffffffffffffff169050919050565b5f6106d9610b17565b90506106e58183610e0b565b5050565b5f6106f382610f1b565b9050919050565b5f805f8373ffffffffffffffffffffffffffffffffffffffff1673ffffffffffffffffffffffffffffffffffffffff1681526020019081526020015f20549050919050565b5f60075f8373ffffffffffffffffffffffffffffffffffffffff1673ffffffffffffffffffffffffffffffffffffffff1681526020019081526020015f20549050919050565b5f6060805f805f6060610796610f70565b61079e610fab565b46305f801b5f67ffffffffffffffff8111156107bd576107bc612ddb565b5b6040519080825280602002602001820160405280156107eb5781602001602082028036833780820191505090505b507f0f00000000000000000000000000000000000000000000000000000000000000959493929190965096509650965096509650965090919293949596565b5f61084761083783610cb3565b600a610d1e90919063ffffffff16565b79ffffffffffffffffffffffffffffffffffffffffffffffffffff169050919050565b5f42905090565b60606004805461088090612dab565b80601f01602080910402602001604051908101604052809291908181526020018280546108ac90612dab565b80156108f75780601f106108ce576101008083540402835291602001916108f7565b820191905f5260205f20905b8154815290600101906020018083116108da57829003601f168201915b5050505050905090565b5f61094760095f8473ffffffffffffffffffffffffffffffffffffffff1673ffffffffffffffffffffffffffffffffffffffff1681526020019081526020015f20610fe6565b79ffffffffffffffffffffffffffffffffffffffffffffffffffff169050919050565b5f80610974610b17565b9050610981818585610bc3565b600191505092915050565b834211156109d157836040517f4683af0e0000000000000000000000000000000000000000000000000000000081526004016109c8919061285c565b60405180910390fd5b5f610a32610a2a7fe48329057bfd03d55e49b547132e39cffd9c1820ad7b9d4c5307691425d15adf898989604051602001610a0f9493929190612e08565b60405160208183030381529060405280519060200120611048565b858585611061565b9050610a3e818761108f565b610a488188610e0b565b50505050505050565b5f60015f8473ffffffffffffffffffffffffffffffffffffffff1673ffffffffffffffffffffffffffffffffffffffff1681526020019081526020015f205f8373ffffffffffffffffffffffffffffffffffffffff1673ffffffffffffffffffffffffffffffffffffffff1681526020019081526020015f2054905092915050565b610adb612665565b610ae583836110e6565b905092915050565b5f8183610afa9190612e78565b905092915050565b5f8183610b0f9190612ec5565b905092915050565b5f33905090565b610b2b8383836001611145565b505050565b5f610b3b8484610a51565b90507fffffffffffffffffffffffffffffffffffffffffffffffffffffffffffffffff811015610bbd5781811015610bae578281836040517ffb8f41b2000000000000000000000000000000000000000000000000000000008152600401610ba593929190612f12565b60405180910390fd5b610bbc84848484035f611145565b5b50505050565b5f73ffffffffffffffffffffffffffffffffffffffff168373ffffffffffffffffffffffffffffffffffffffff1603610c33575f6040517f96c6fd1e000000000000000000000000000000000000000000000000000000008152600401610c2a9190612933565b60405180910390fd5b5f73ffffffffffffffffffffffffffffffffffffffff168273ffffffffffffffffffffffffffffffffffffffff1603610ca3575f6040517fec442f05000000000000000000000000000000000000000000000000000000008152600401610c9a9190612933565b60405180910390fd5b610cae838383611314565b505050565b5f80610cbd61086a565b90508065ffffffffffff168310610d0d5782816040517fecd3f81e000000000000000000000000000000000000000000000000000000008152600401610d04929190612f47565b60405180910390fd5b610d16836113c2565b915050919050565b5f80835f018054905090505f808290506005831115610d9f575f610d418461141b565b84610d4c9190612f6e565b9050610d5a875f01826115b5565b5f015f9054906101000a900465ffffffffffff1665ffffffffffff168665ffffffffffff161015610d8d57809150610d9d565b600181610d9a9190612fa1565b92505b505b5f610dae875f018785856115c7565b90505f8114610dfd57610dcf875f01600183610dca9190612f6e565b6115b5565b5f0160069054906101000a900479ffffffffffffffffffffffffffffffffffffffffffffffffffff16610dff565b5f5b94505050505092915050565b5f610e158361066b565b90508160085f8573ffffffffffffffffffffffffffffffffffffffff1673ffffffffffffffffffffffffffffffffffffffff1681526020019081526020015f205f6101000a81548173ffffffffffffffffffffffffffffffffffffffff021916908373ffffffffffffffffffffffffffffffffffffffff1602179055508173ffffffffffffffffffffffffffffffffffffffff168173ffffffffffffffffffffffffffffffffffffffff168473ffffffffffffffffffffffffffffffffffffffff167f3134e8a2e6d97e929a7e54011ea5485d7d196dd5f0ba4d4ef95803e8e3fc257f60405160405180910390a4610f168183610f118661163c565b61164d565b505050565b5f610f69610f6460095f8573ffffffffffffffffffffffffffffffffffffffff1673ffffffffffffffffffffffffffffffffffffffff1681526020019081526020015f206118bd565b6118cc565b9050919050565b6060610fa660057f000000000000000000000000000000000000000000000000000000000000000061192390919063ffffffff16565b905090565b6060610fe160067f000000000000000000000000000000000000000000000000000000000000000061192390919063ffffffff16565b905090565b5f80825f018054905090505f811461103e57611010835f0160018361100b9190612f6e565b6115b5565b5f0160069054906101000a900479ffffffffffffffffffffffffffffffffffffffffffffffffffff16611040565b5f5b915050919050565b5f61105a6110546119d0565b83611a86565b9050919050565b5f805f8061107188888888611ac6565b9250925092506110818282611bad565b829350505050949350505050565b5f61109983611d0f565b90508082146110e15782816040517f752d88c00000000000000000000000000000000000000000000000000000000081526004016110d8929190612fd4565b60405180910390fd5b505050565b6110ee612665565b61113d8260095f8673ffffffffffffffffffffffffffffffffffffffff1673ffffffffffffffffffffffffffffffffffffffff1681526020019081526020015f20611d6290919063ffffffff16565b905092915050565b5f73ffffffffffffffffffffffffffffffffffffffff168473ffffffffffffffffffffffffffffffffffffffff16036111b5575f6040517fe602df050000000000000000000000000000000000000000000000000000000081526004016111ac9190612933565b60405180910390fd5b5f73ffffffffffffffffffffffffffffffffffffffff168373ffffffffffffffffffffffffffffffffffffffff1603611225575f6040517f94280d6200000000000000000000000000000000000000000000000000000000815260040161121c9190612933565b60405180910390fd5b8160015f8673ffffffffffffffffffffffffffffffffffffffff1673ffffffffffffffffffffffffffffffffffffffff1681526020019081526020015f205f8573ffffffffffffffffffffffffffffffffffffffff1673ffffffffffffffffffffffffffffffffffffffff1681526020019081526020015f2081905550801561130e578273ffffffffffffffffffffffffffffffffffffffff168473ffffffffffffffffffffffffffffffffffffffff167f8c5be1e5ebec7d5bd14f71427d1e84f3dd0314c0f7b2291e5b200ac8c7c3b92584604051611305919061285c565b60405180910390a35b50505050565b61131f838383611e31565b5f73ffffffffffffffffffffffffffffffffffffffff168373ffffffffffffffffffffffffffffffffffffffff16036113b2575f61135b610564565b90505f61136661204a565b9050808211156113af5781816040517f1cb15d260000000000000000000000000000000000000000000000000000000081526004016113a6929190612ffb565b60405180910390fd5b50505b6113bd83838361206d565b505050565b5f65ffffffffffff8016821115611413576030826040517f6dfcc65000000000000000000000000000000000000000000000000000000000815260040161140a929190613064565b60405180910390fd5b819050919050565b5f6001821161142c578190506115b0565b5f8290505f60019050700100000000000000000000000000000000821061145c57608082901c9150604081901b90505b68010000000000000000821061147b57604082901c9150602081901b90505b640100000000821061149657602082901c9150601081901b90505b6201000082106114af57601082901c9150600881901b90505b61010082106114c757600882901c9150600481901b90505b601082106114de57600482901c9150600281901b90505b600482106114ee57600181901b90505b600181600302901c9050600181858161150a5761150961308b565b5b048201901c905060018185816115235761152261308b565b5b048201901c9050600181858161153c5761153b61308b565b5b048201901c905060018185816115555761155461308b565b5b048201901c9050600181858161156e5761156d61308b565b5b048201901c905060018185816115875761158661308b565b5b048201901c90506115a98185816115a1576115a061308b565b5b048211612125565b8103925050505b919050565b5f825f528160205f2001905092915050565b5f5b81831015611631575f6115dc8484612130565b90508465ffffffffffff166115f187836115b5565b5f015f9054906101000a900465ffffffffffff1665ffffffffffff16111561161b5780925061162b565b6001816116289190612fa1565b93505b506115c9565b819050949350505050565b5f611646826106fa565b9050919050565b8173ffffffffffffffffffffffffffffffffffffffff168373ffffffffffffffffffffffffffffffffffffffff161415801561168857505f81115b156118b8575f73ffffffffffffffffffffffffffffffffffffffff168373ffffffffffffffffffffffffffffffffffffffff16146117a2575f8061171360095f8773ffffffffffffffffffffffffffffffffffffffff1673ffffffffffffffffffffffffffffffffffffffff1681526020019081526020015f20610b0261170e86612155565b6121c2565b79ffffffffffffffffffffffffffffffffffffffffffffffffffff16915079ffffffffffffffffffffffffffffffffffffffffffffffffffff1691508473ffffffffffffffffffffffffffffffffffffffff167fdec2bacdd2f05b59de34da9b523dff8be42e5e38e818c82fdb0bae774387a7248383604051611797929190612ffb565b60405180910390a250505b5f73ffffffffffffffffffffffffffffffffffffffff168273ffffffffffffffffffffffffffffffffffffffff16146118b7575f8061182860095f8673ffffffffffffffffffffffffffffffffffffffff1673ffffffffffffffffffffffffffffffffffffffff1681526020019081526020015f20610aed61182386612155565b6121c2565b79ffffffffffffffffffffffffffffffffffffffffffffffffffff16915079ffffffffffffffffffffffffffffffffffffffffffffffffffff1691508373ffffffffffffffffffffffffffffffffffffffff167fdec2bacdd2f05b59de34da9b523dff8be42e5e38e818c82fdb0bae774387a72483836040516118ac929190612ffb565b60405180910390a250505b5b505050565b5f815f01805490509050919050565b5f63ffffffff801682111561191b576020826040517f6dfcc6500000000000000000000000000000000000000000000000000000000081526004016119129291906130f1565b60405180910390fd5b819050919050565b606060ff5f1b831461193f5761193883612201565b90506119ca565b81805461194b90612dab565b80601f016020809104026020016040519081016040528092919081815260200182805461197790612dab565b80156119c25780601f10611999576101008083540402835291602001916119c2565b820191905f5260205f20905b8154815290600101906020018083116119a557829003601f168201915b505050505090505b92915050565b5f7f000000000000000000000000000000000000000000000000000000000000000073ffffffffffffffffffffffffffffffffffffffff163073ffffffffffffffffffffffffffffffffffffffff16148015611a4b57507f000000000000000000000000000000000000000000000000000000000000000046145b15611a78577f00000000000000000000000000000000000000000000000000000000000000009050611a83565b611a80612273565b90505b90565b5f6040517f190100000000000000000000000000000000000000000000000000000000000081528360028201528260228201526042812091505092915050565b5f805f7f7fffffffffffffffffffffffffffffff5d576e7357a4501ddfe92f46681b20a0845f1c1115611b02575f600385925092509250611ba3565b5f6001888888886040515f8152602001604052604051611b259493929190613118565b6020604051602081039080840390855afa158015611b45573d5f803e3d5ffd5b5050506020604051035190505f73ffffffffffffffffffffffffffffffffffffffff168173ffffffffffffffffffffffffffffffffffffffff1603611b96575f60015f801b93509350935050611ba3565b805f805f1b935093509350505b9450945094915050565b5f6003811115611bc057611bbf61315b565b5b826003811115611bd357611bd261315b565b5b0315611d0b5760016003811115611bed57611bec61315b565b5b826003811115611c0057611bff61315b565b5b03611c37576040517ff645eedf00000000000000000000000000000000000000000000000000000000815260040160405180910390fd5b60026003811115611c4b57611c4a61315b565b5b826003811115611c5e57611c5d61315b565b5b03611ca257805f1c6040517ffce698f7000000000000000000000000000000000000000000000000000000008152600401611c99919061285c565b60405180910390fd5b600380811115611cb557611cb461315b565b5b826003811115611cc857611cc761315b565b5b03611d0a57806040517fd78bce0c000000000000000000000000000000000000000000000000000000008152600401611d019190613188565b60405180910390fd5b5b5050565b5f60075f8373ffffffffffffffffffffffffffffffffffffffff1673ffffffffffffffffffffffffffffffffffffffff1681526020019081526020015f205f815480929190600101919050559050919050565b611d6a612665565b825f018263ffffffff1681548110611d8557611d846131a1565b5b905f5260205f20016040518060400160405290815f82015f9054906101000a900465ffffffffffff1665ffffffffffff1665ffffffffffff1681526020015f820160069054906101000a900479ffffffffffffffffffffffffffffffffffffffffffffffffffff1679ffffffffffffffffffffffffffffffffffffffffffffffffffff1679ffffffffffffffffffffffffffffffffffffffffffffffffffff1681525050905092915050565b5f73ffffffffffffffffffffffffffffffffffffffff168373ffffffffffffffffffffffffffffffffffffffff1603611e81578060025f828254611e759190612fa1565b92505081905550611f4f565b5f805f8573ffffffffffffffffffffffffffffffffffffffff1673ffffffffffffffffffffffffffffffffffffffff1681526020019081526020015f2054905081811015611f0a578381836040517fe450d38c000000000000000000000000000000000000000000000000000000008152600401611f0193929190612f12565b60405180910390fd5b8181035f808673ffffffffffffffffffffffffffffffffffffffff1673ffffffffffffffffffffffffffffffffffffffff1681526020019081526020015f2081905550505b5f73ffffffffffffffffffffffffffffffffffffffff168273ffffffffffffffffffffffffffffffffffffffff1603611f96578060025f8282540392505081905550611fe0565b805f808473ffffffffffffffffffffffffffffffffffffffff1673ffffffffffffffffffffffffffffffffffffffff1681526020019081526020015f205f82825401925050819055505b8173ffffffffffffffffffffffffffffffffffffffff168373ffffffffffffffffffffffffffffffffffffffff167fddf252ad1be2c89b69c2b068fc378daa952ba7f163c4a11628f55a4df523b3ef8360405161203d919061285c565b60405180910390a3505050565b5f79ffffffffffffffffffffffffffffffffffffffffffffffffffff8016905090565b5f73ffffffffffffffffffffffffffffffffffffffff168373ffffffffffffffffffffffffffffffffffffffff16036120b9576120b6600a610aed6120b184612155565b6121c2565b50505b5f73ffffffffffffffffffffffffffffffffffffffff168273ffffffffffffffffffffffffffffffffffffffff160361210557612102600a610b026120fd84612155565b6121c2565b50505b6121206121118461066b565b61211a8461066b565b8361164d565b505050565b5f8115159050919050565b5f600282841861214091906131ce565b82841661214d9190612fa1565b905092915050565b5f79ffffffffffffffffffffffffffffffffffffffffffffffffffff80168211156121ba5760d0826040517f6dfcc6500000000000000000000000000000000000000000000000000000000081526004016121b1929190613237565b60405180910390fd5b819050919050565b5f806121f56121cf61086a565b6121e56121db88610fe6565b868863ffffffff16565b876123089092919063ffffffff16565b91509150935093915050565b60605f61220d83612323565b90505f602067ffffffffffffffff81111561222b5761222a612ddb565b5b6040519080825280601f01601f19166020018201604052801561225d5781602001600182028036833780820191505090505b5090508181528360208201528092505050919050565b5f7f8b73c3c69bb8fe3d512ecc4cf759cc79239f7b179b0ffacaa9a75d522b39400f7f00000000000000000000000000000000000000000000000000000000000000007f000000000000000000000000000000000000000000000000000000000000000046306040516020016122ed95949392919061325e565b60405160208183030381529060405280519060200120905090565b5f80612317855f018585612371565b91509150935093915050565b5f8060ff835f1c169050601f811115612368576040517fb3512b0c00000000000000000000000000000000000000000000000000000000815260040160405180910390fd5b80915050919050565b5f805f858054905090505f81111561257d575f61239a876001846123959190612f6e565b6115b5565b90505f815f015f9054906101000a900465ffffffffffff1690505f825f0160069054906101000a900479ffffffffffffffffffffffffffffffffffffffffffffffffffff1690508765ffffffffffff168265ffffffffffff16111561242b576040517f2520601d00000000000000000000000000000000000000000000000000000000815260040160405180910390fd5b8765ffffffffffff168265ffffffffffff16036124955786835f0160066101000a81548179ffffffffffffffffffffffffffffffffffffffffffffffffffff021916908379ffffffffffffffffffffffffffffffffffffffffffffffffffff16021790555061256e565b8860405180604001604052808a65ffffffffffff1681526020018979ffffffffffffffffffffffffffffffffffffffffffffffffffff16815250908060018154018082558091505060019003905f5260205f20015f909190919091505f820151815f015f6101000a81548165ffffffffffff021916908365ffffffffffff1602179055506020820151815f0160066101000a81548179ffffffffffffffffffffffffffffffffffffffffffffffffffff021916908379ffffffffffffffffffffffffffffffffffffffffffffffffffff16021790555050505b8087955095505050505061265d565b8560405180604001604052808765ffffffffffff1681526020018679ffffffffffffffffffffffffffffffffffffffffffffffffffff16815250908060018154018082558091505060019003905f5260205f20015f909190919091505f820151815f015f6101000a81548165ffffffffffff021916908365ffffffffffff1602179055506020820151815f0160066101000a81548179ffffffffffffffffffffffffffffffffffffffffffffffffffff021916908379ffffffffffffffffffffffffffffffffffffffffffffffffffff16021790555050505f8492509250505b935093915050565b60405180604001604052805f65ffffffffffff1681526020015f79ffffffffffffffffffffffffffffffffffffffffffffffffffff1681525090565b5f81519050919050565b5f82825260208201905092915050565b5f5b838110156126d85780820151818401526020810190506126bd565b5f8484015250505050565b5f601f19601f8301169050919050565b5f6126fd826126a1565b61270781856126ab565b93506127178185602086016126bb565b612720816126e3565b840191505092915050565b5f6020820190508181035f83015261274381846126f3565b905092915050565b5f80fd5b5f73ffffffffffffffffffffffffffffffffffffffff82169050919050565b5f6127788261274f565b9050919050565b6127888161276e565b8114612792575f80fd5b50565b5f813590506127a38161277f565b92915050565b5f819050919050565b6127bb816127a9565b81146127c5575f80fd5b50565b5f813590506127d6816127b2565b92915050565b5f80604083850312156127f2576127f161274b565b5b5f6127ff85828601612795565b9250506020612810858286016127c8565b9150509250929050565b5f8115159050919050565b61282e8161281a565b82525050565b5f6020820190506128475f830184612825565b92915050565b612856816127a9565b82525050565b5f60208201905061286f5f83018461284d565b92915050565b5f805f6060848603121561288c5761288b61274b565b5b5f61289986828701612795565b93505060206128aa86828701612795565b92505060406128bb868287016127c8565b9150509250925092565b5f60ff82169050919050565b6128da816128c5565b82525050565b5f6020820190506128f35f8301846128d1565b92915050565b5f6020828403121561290e5761290d61274b565b5b5f61291b84828501612795565b91505092915050565b61292d8161276e565b82525050565b5f6020820190506129465f830184612924565b92915050565b5f63ffffffff82169050919050565b6129648161294c565b82525050565b5f60208201905061297d5f83018461295b565b92915050565b5f7fff0000000000000000000000000000000000000000000000000000000000000082169050919050565b6129b781612983565b82525050565b5f819050919050565b6129cf816129bd565b82525050565b5f81519050919050565b5f82825260208201905092915050565b5f819050602082019050919050565b612a07816127a9565b82525050565b5f612a1883836129fe565b60208301905092915050565b5f602082019050919050565b5f612a3a826129d5565b612a4481856129df565b9350612a4f836129ef565b805f5b83811015612a7f578151612a668882612a0d565b9750612a7183612a24565b925050600181019050612a52565b5085935050505092915050565b5f60e082019050612a9f5f83018a6129ae565b8181036020830152612ab181896126f3565b90508181036040830152612ac581886126f3565b9050612ad4606083018761284d565b612ae16080830186612924565b612aee60a08301856129c6565b81810360c0830152612b008184612a30565b905098975050505050505050565b5f60208284031215612b2357612b2261274b565b5b5f612b30848285016127c8565b91505092915050565b5f65ffffffffffff82169050919050565b612b5381612b39565b82525050565b5f602082019050612b6c5f830184612b4a565b92915050565b612b7b816128c5565b8114612b85575f80fd5b50565b5f81359050612b9681612b72565b92915050565b612ba5816129bd565b8114612baf575f80fd5b50565b5f81359050612bc081612b9c565b92915050565b5f805f805f8060c08789031215612be057612bdf61274b565b5b5f612bed89828a01612795565b9650506020612bfe89828a016127c8565b9550506040612c0f89828a016127c8565b9450506060612c2089828a01612b88565b9350506080612c3189828a01612bb2565b92505060a0612c4289828a01612bb2565b9150509295509295509295565b5f8060408385031215612c6557612c6461274b565b5b5f612c7285828601612795565b9250506020612c8385828601612795565b9150509250929050565b612c968161294c565b8114612ca0575f80fd5b50565b5f81359050612cb181612c8d565b92915050565b5f8060408385031215612ccd57612ccc61274b565b5b5f612cda85828601612795565b9250506020612ceb85828601612ca3565b9150509250929050565b612cfe81612b39565b82525050565b5f79ffffffffffffffffffffffffffffffffffffffffffffffffffff82169050919050565b612d3281612d04565b82525050565b604082015f820151612d4c5f850182612cf5565b506020820151612d5f6020850182612d29565b50505050565b5f604082019050612d785f830184612d38565b92915050565b7f4e487b71000000000000000000000000000000000000000000000000000000005f52602260045260245ffd5b5f6002820490506001821680612dc257607f821691505b602082108103612dd557612dd4612d7e565b5b50919050565b7f4e487b71000000000000000000000000000000000000000000000000000000005f52604160045260245ffd5b5f608082019050612e1b5f8301876129c6565b612e286020830186612924565b612e35604083018561284d565b612e42606083018461284d565b95945050505050565b7f4e487b71000000000000000000000000000000000000000000000000000000005f52601160045260245ffd5b5f612e8282612d04565b9150612e8d83612d04565b9250828201905079ffffffffffffffffffffffffffffffffffffffffffffffffffff811115612ebf57612ebe612e4b565b5b92915050565b5f612ecf82612d04565b9150612eda83612d04565b9250828203905079ffffffffffffffffffffffffffffffffffffffffffffffffffff811115612f0c57612f0b612e4b565b5b92915050565b5f606082019050612f255f830186612924565b612f32602083018561284d565b612f3f604083018461284d565b949350505050565b5f604082019050612f5a5f83018561284d565b612f676020830184612b4a565b9392505050565b5f612f78826127a9565b9150612f83836127a9565b9250828203905081811115612f9b57612f9a612e4b565b5b92915050565b5f612fab826127a9565b9150612fb6836127a9565b9250828201905080821115612fce57612fcd612e4b565b5b92915050565b5f604082019050612fe75f830185612924565b612ff4602083018461284d565b9392505050565b5f60408201905061300e5f83018561284d565b61301b602083018461284d565b9392505050565b5f819050919050565b5f819050919050565b5f61304e61304961304484613022565b61302b565b6128c5565b9050919050565b61305e81613034565b82525050565b5f6040820190506130775f830185613055565b613084602083018461284d565b9392505050565b7f4e487b71000000000000000000000000000000000000000000000000000000005f52601260045260245ffd5b5f819050919050565b5f6130db6130d66130d1846130b8565b61302b565b6128c5565b9050919050565b6130eb816130c1565b82525050565b5f6040820190506131045f8301856130e2565b613111602083018461284d565b9392505050565b5f60808201905061312b5f8301876129c6565b61313860208301866128d1565b61314560408301856129c6565b61315260608301846129c6565b95945050505050565b7f4e487b71000000000000000000000000000000000000000000000000000000005f52602160045260245ffd5b5f60208201905061319b5f8301846129c6565b92915050565b7f4e487b71000000000000000000000000000000000000000000000000000000005f52603260045260245ffd5b5f6131d8826127a9565b91506131e3836127a9565b9250826131f3576131f261308b565b5b828204905092915050565b5f819050919050565b5f61322161321c613217846131fe565b61302b565b6128c5565b9050919050565b61323181613207565b82525050565b5f60408201905061324a5f830185613228565b613257602083018461284d565b9392505050565b5f60a0820190506132715f8301886129c6565b61327e60208301876129c6565b61328b60408301866129c6565b613298606083018561284d565b6132a56080830184612924565b969550505050505056fea264697066735822122055927ee18810fdae3cb9b6e7cf31953bcd86689c937197c617772e31b97a624464736f6c63430008180033","linkReferences":{}},"methodIdentifiers":{"CLOCK_MODE()":"4bf5d7e9","MAX_SUPPLY()":"32cb6b0c","allowance(address,address)":"dd62ed3e","approve(address,uint256)":"095ea7b3","balanceOf(address)":"70a08231","checkpoints(address,uint32)":"f1127ed8","clock()":"91ddadf4","decimals()":"313ce567","delegate(address)":"5c19a95c","delegateBySig(address,uint256,uint256,uint8,bytes32,bytes32)":"c3cda520","delegates(address)":"587cde1e","eip712Domain()":"84b0196e","getPastTotalSupply(uint256)":"8e539e8c","getPastVotes(address,uint256)":"3a46b1a8","getVotes(address)":"9ab24eb0","name()":"06fdde03","nonces(address)":"7ecebe00","numCheckpoints(address)":"6fcfff45","symbol()":"95d89b41","totalSupply()":"18160ddd","transfer(address,uint256)":"a9059cbb","transferFrom(address,address,uint256)":"23b872dd"},"id":65}