{"abi":[{"type":"constructor","inputs":[{"name":"_usdc","type":"address","internalType":"address"},{"name":"_uranoToken","type":"address","internalType":"address"},{"name":"_owner","type":"address","internalType":"address"},{"name":"_staking","type":"address","internalType":"address"}],"stateMutability":"nonpayable"},{"type":"function","name":"acceptOwnership","inputs":[],"outputs":[],"stateMutability":"nonpayable"},{"type":"function","name":"createuShare","inputs":[{"name":"_name","type":"string","internalType":"string"},{"name":"_symbol","type":"string","internalType":"string"},{"name":"_totalSupply","type":"uint256","internalType":"uint256"},{"name":"_uShareInfoParams","type":"tuple","internalType":"struct uShareFactory.uShareInfoParams","components":[{"name":"uShareAmount","type":"uint256","internalType":"uint256"},{"name":"uSharePriceInUSDC","type":"uint256","internalType":"uint256"},{"name":"minUranoAmountForPreSale","type":"uint256","internalType":"uint256"},{"name":"snapshotBlock","type":"uint256","internalType":"uint256"},{"name":"saleDuration","type":"uint256","internalType":"uint256"},{"name":"hasCashflow","type":"bool","internalType":"bool"}]}],"outputs":[{"name":"uShareId","type":"bytes32","internalType":"bytes32"}],"stateMutability":"nonpayable"},{"type":"function","name":"i_uShareMarket","inputs":[],"outputs":[{"name":"","type":"address","internalType":"contract uShareMarket"}],"stateMutability":"view"},{"type":"function","name":"i_usdc","inputs":[],"outputs":[{"name":"","type":"address","internalType":"address"}],"stateMutability":"view"},{"type":"function","name":"owner","inputs":[],"outputs":[{"name":"","type":"address","internalType":"address"}],"stateMutability":"view"},{"type":"function","name":"pendingOwner","inputs":[],"outputs":[{"name":"","type":"address","internalType":"address"}],"stateMutability":"view"},{"type":"function","name":"renounceOwnership","inputs":[],"outputs":[],"stateMutability":"nonpayable"},{"type":"function","name":"s_uShareId","inputs":[{"name":"uShareToken","type":"address","internalType":"address"}],"outputs":[{"name":"uShareId","type":"bytes32","internalType":"bytes32"}],"stateMutability":"view"},{"type":"function","name":"setuShareId","inputs":[{"name":"_uShareToken","type":"address","internalType":"address"},{"name":"_uShareId","type":"bytes32","internalType":"bytes32"}],"outputs":[],"stateMutability":"nonpayable"},{"type":"function","name":"transferOwnership","inputs":[{"name":"newOwner","type":"address","internalType":"address"}],"outputs":[],"stateMutability":"nonpayable"},{"type":"event","name":"OwnershipTransferStarted","inputs":[{"name":"previousOwner","type":"address","indexed":true,"internalType":"address"},{"name":"newOwner","type":"address","indexed":true,"internalType":"address"}],"anonymous":false},{"type":"event","name":"OwnershipTransferred","inputs":[{"name":"previousOwner","type":"address","indexed":true,"internalType":"address"},{"name":"newOwner","type":"address","indexed":true,"internalType":"address"}],"anonymous":false},{"type":"event","name":"uShareCreated","inputs":[{"name":"uShareToken","type":"address","indexed":true,"internalType":"address"},{"name":"uShareId","type":"bytes32","indexed":true,"internalType":"bytes32"}],"anonymous":false},{"type":"event","name":"uShareIdSet","inputs":[{"name":"uShareToken","type":"address","indexed":true,"internalType":"address"},{"name":"uShareId","type":"bytes32","indexed":true,"internalType":"bytes32"}],"anonymous":false},{"type":"error","name":"OwnableInvalidOwner","inputs":[{"name":"owner","type":"address","internalType":"address"}]},{"type":"error","name":"OwnableUnauthorizedAccount","inputs":[{"name":"account","type":"address","internalType":"address"}]},{"type":"error","name":"uShareFactory__InvaliduShareAmount","inputs":[]},{"type":"error","name":"uShareFactory__NotuShareMarket","inputs":[]},{"type":"error","name":"uShareFactory__uShareIdAlreadySet","inputs":[]}],"bytecode":{"object":"0x60c060405234801562000010575f80fd5b5060405162007fe338038062007fe38339818101604052810190620000369190620002d5565b815f73ffffffffffffffffffffffffffffffffffffffff168173ffffffffffffffffffffffffffffffffffffffff1603620000aa575f6040517f1e4fbdf7000000000000000000000000000000000000000000000000000000008152600401620000a1919062000355565b60405180910390fd5b620000bb816200016960201b60201c565b5083838383604051620000ce9062000262565b620000dd949392919062000370565b604051809103905ff080158015620000f7573d5f803e3d5ffd5b5073ffffffffffffffffffffffffffffffffffffffff1660808173ffffffffffffffffffffffffffffffffffffffff16815250508373ffffffffffffffffffffffffffffffffffffffff1660a08173ffffffffffffffffffffffffffffffffffffffff168152505050505050620003bb565b60015f6101000a81549073ffffffffffffffffffffffffffffffffffffffff02191690556200019e81620001a160201b60201c565b50565b5f805f9054906101000a900473ffffffffffffffffffffffffffffffffffffffff169050815f806101000a81548173ffffffffffffffffffffffffffffffffffffffff021916908373ffffffffffffffffffffffffffffffffffffffff1602179055508173ffffffffffffffffffffffffffffffffffffffff168173ffffffffffffffffffffffffffffffffffffffff167f8be0079c531659141344cd1fd0a4f28419497f9722a3daafe3b4186f6b6457e060405160405180910390a35050565b613a93806200455083390190565b5f80fd5b5f73ffffffffffffffffffffffffffffffffffffffff82169050919050565b5f6200029f8262000274565b9050919050565b620002b18162000293565b8114620002bc575f80fd5b50565b5f81519050620002cf81620002a6565b92915050565b5f805f8060808587031215620002f057620002ef62000270565b5b5f620002ff87828801620002bf565b94505060206200031287828801620002bf565b93505060406200032587828801620002bf565b92505060606200033887828801620002bf565b91505092959194509250565b6200034f8162000293565b82525050565b5f6020820190506200036a5f83018462000344565b92915050565b5f608082019050620003855f83018762000344565b62000394602083018662000344565b620003a3604083018562000344565b620003b2606083018462000344565b95945050505050565b60805160a051614150620004005f395f818161054d01526107d801525f81816102280152818161030a015281816104df0152818161056e01526105c901526141505ff3fe608060405234801562000010575f80fd5b5060043610620000aa575f3560e01c8063bde4d946116200006d578063bde4d9461462000140578063d980bb751462000160578063e30c39781462000196578063f2fde38b14620001b8578063ff40e1d014620001d857620000aa565b8063376be44714620000ae578063715018a614620000e45780637421533d14620000f057806379ba509714620001125780638da5cb5b146200011e575b5f80fd5b620000cc6004803603810190620000c6919062000a12565b620001fa565b604051620000db919062000a5c565b60405180910390f35b620000ee6200020f565b005b620000fa62000226565b60405162000109919062000ade565b60405180910390f35b6200011c6200024a565b005b62000128620002e1565b60405162000137919062000b0a565b60405180910390f35b6200015e600480360381019062000158919062000b54565b62000308565b005b6200017e600480360381019062000178919062000e15565b62000491565b6040516200018d919062000a5c565b60405180910390f35b620001a0620006fe565b604051620001af919062000b0a565b60405180910390f35b620001d66004803603810190620001d0919062000a12565b62000726565b005b620001e2620007d6565b604051620001f1919062000b0a565b60405180910390f35b6002602052805f5260405f205f915090505481565b62000219620007fa565b620002245f6200088a565b565b7f000000000000000000000000000000000000000000000000000000000000000081565b5f62000255620008bc565b90508073ffffffffffffffffffffffffffffffffffffffff1662000278620006fe565b73ffffffffffffffffffffffffffffffffffffffff1614620002d357806040517f118cdaa7000000000000000000000000000000000000000000000000000000008152600401620002ca919062000b0a565b60405180910390fd5b620002de816200088a565b50565b5f805f9054906101000a900473ffffffffffffffffffffffffffffffffffffffff16905090565b7f000000000000000000000000000000000000000000000000000000000000000073ffffffffffffffffffffffffffffffffffffffff163373ffffffffffffffffffffffffffffffffffffffff16146200038e576040517fc40d01d600000000000000000000000000000000000000000000000000000000815260040160405180910390fd5b5f801b60025f8473ffffffffffffffffffffffffffffffffffffffff1673ffffffffffffffffffffffffffffffffffffffff1681526020019081526020015f20541462000407576040517f5f70cc5600000000000000000000000000000000000000000000000000000000815260040160405180910390fd5b8060025f8473ffffffffffffffffffffffffffffffffffffffff1673ffffffffffffffffffffffffffffffffffffffff1681526020019081526020015f2081905550808273ffffffffffffffffffffffffffffffffffffffff167f8da43d2bf77b8f06a01e1aae363a51705ab8218cd511d10103c4ad2aef1233e960405160405180910390a35050565b5f6200049c620007fa565b82825f015114620004d9576040517fc609c17300000000000000000000000000000000000000000000000000000000815260040160405180910390fd5b5f8585857f00000000000000000000000000000000000000000000000000000000000000006040516200050c9062000984565b6200051b949392919062000f58565b604051809103905ff08015801562000535573d5f803e3d5ffd5b5090505f8360a001516200054a575f620005c5565b817f00000000000000000000000000000000000000000000000000000000000000007f00000000000000000000000000000000000000000000000000000000000000006040516200059b9062000992565b620005a99392919062000fb1565b604051809103905ff080158015620005c3573d5f803e3d5ffd5b505b90507f000000000000000000000000000000000000000000000000000000000000000073ffffffffffffffffffffffffffffffffffffffff16632139e2a983865f01518760200151886040015189606001518a60800151886040518863ffffffff1660e01b815260040162000641979695949392919062000fec565b5f604051808303815f87803b15801562000659575f80fd5b505af11580156200066c573d5f803e3d5ffd5b5050505060025f8373ffffffffffffffffffffffffffffffffffffffff1673ffffffffffffffffffffffffffffffffffffffff1681526020019081526020015f20549250828273ffffffffffffffffffffffffffffffffffffffff167f725b6ac1c4c70cdf8ac3a4c1507466d03a2a9a9530fe3481fd61c8f80f0cf97760405160405180910390a35050949350505050565b5f60015f9054906101000a900473ffffffffffffffffffffffffffffffffffffffff16905090565b62000730620007fa565b8060015f6101000a81548173ffffffffffffffffffffffffffffffffffffffff021916908373ffffffffffffffffffffffffffffffffffffffff1602179055508073ffffffffffffffffffffffffffffffffffffffff1662000791620002e1565b73ffffffffffffffffffffffffffffffffffffffff167f38d16b8cac22d99fc7c124b9cd0de2d3fa1faef420bfe791d8c362d765e2270060405160405180910390a350565b7f000000000000000000000000000000000000000000000000000000000000000081565b62000804620008bc565b73ffffffffffffffffffffffffffffffffffffffff1662000824620002e1565b73ffffffffffffffffffffffffffffffffffffffff161462000888576200084a620008bc565b6040517f118cdaa70000000000000000000000000000000000000000000000000000000081526004016200087f919062000b0a565b60405180910390fd5b565b60015f6101000a81549073ffffffffffffffffffffffffffffffffffffffff0219169055620008b981620008c3565b50565b5f33905090565b5f805f9054906101000a900473ffffffffffffffffffffffffffffffffffffffff169050815f806101000a81548173ffffffffffffffffffffffffffffffffffffffff021916908373ffffffffffffffffffffffffffffffffffffffff1602179055508173ffffffffffffffffffffffffffffffffffffffff168173ffffffffffffffffffffffffffffffffffffffff167f8be0079c531659141344cd1fd0a4f28419497f9722a3daafe3b4186f6b6457e060405160405180910390a35050565b611b3a806200106883390190565b6115798062002ba283390190565b5f604051905090565b5f80fd5b5f80fd5b5f73ffffffffffffffffffffffffffffffffffffffff82169050919050565b5f620009dc82620009b1565b9050919050565b620009ee81620009d0565b8114620009f9575f80fd5b50565b5f8135905062000a0c81620009e3565b92915050565b5f6020828403121562000a2a5762000a29620009a9565b5b5f62000a3984828501620009fc565b91505092915050565b5f819050919050565b62000a568162000a42565b82525050565b5f60208201905062000a715f83018462000a4b565b92915050565b5f819050919050565b5f62000aa062000a9a62000a9484620009b1565b62000a77565b620009b1565b9050919050565b5f62000ab38262000a80565b9050919050565b5f62000ac68262000aa7565b9050919050565b62000ad88162000aba565b82525050565b5f60208201905062000af35f83018462000acd565b92915050565b62000b0481620009d0565b82525050565b5f60208201905062000b1f5f83018462000af9565b92915050565b62000b308162000a42565b811462000b3b575f80fd5b50565b5f8135905062000b4e8162000b25565b92915050565b5f806040838503121562000b6d5762000b6c620009a9565b5b5f62000b7c85828601620009fc565b925050602062000b8f8582860162000b3e565b9150509250929050565b5f80fd5b5f80fd5b5f601f19601f8301169050919050565b7f4e487b71000000000000000000000000000000000000000000000000000000005f52604160045260245ffd5b62000be98262000ba1565b810181811067ffffffffffffffff8211171562000c0b5762000c0a62000bb1565b5b80604052505050565b5f62000c1f620009a0565b905062000c2d828262000bde565b919050565b5f67ffffffffffffffff82111562000c4f5762000c4e62000bb1565b5b62000c5a8262000ba1565b9050602081019050919050565b828183375f83830152505050565b5f62000c8b62000c858462000c32565b62000c14565b90508281526020810184848401111562000caa5762000ca962000b9d565b5b62000cb784828562000c67565b509392505050565b5f82601f83011262000cd65762000cd562000b99565b5b813562000ce884826020860162000c75565b91505092915050565b5f819050919050565b62000d058162000cf1565b811462000d10575f80fd5b50565b5f8135905062000d238162000cfa565b92915050565b5f80fd5b5f8115159050919050565b62000d438162000d2d565b811462000d4e575f80fd5b50565b5f8135905062000d618162000d38565b92915050565b5f60c0828403121562000d7f5762000d7e62000d29565b5b62000d8b60c062000c14565b90505f62000d9c8482850162000d13565b5f83015250602062000db18482850162000d13565b602083015250604062000dc78482850162000d13565b604083015250606062000ddd8482850162000d13565b606083015250608062000df38482850162000d13565b60808301525060a062000e098482850162000d51565b60a08301525092915050565b5f805f80610120858703121562000e315762000e30620009a9565b5b5f85013567ffffffffffffffff81111562000e515762000e50620009ad565b5b62000e5f8782880162000cbf565b945050602085013567ffffffffffffffff81111562000e835762000e82620009ad565b5b62000e918782880162000cbf565b935050604062000ea48782880162000d13565b925050606062000eb78782880162000d67565b91505092959194509250565b5f81519050919050565b5f82825260208201905092915050565b5f5b8381101562000efc57808201518184015260208101905062000edf565b5f8484015250505050565b5f62000f138262000ec3565b62000f1f818562000ecd565b935062000f3181856020860162000edd565b62000f3c8162000ba1565b840191505092915050565b62000f528162000cf1565b82525050565b5f6080820190508181035f83015262000f72818762000f07565b9050818103602083015262000f88818662000f07565b905062000f99604083018562000f47565b62000fa8606083018462000af9565b95945050505050565b5f60608201905062000fc65f83018662000af9565b62000fd5602083018562000af9565b62000fe4604083018462000af9565b949350505050565b5f60e082019050620010015f83018a62000af9565b62001010602083018962000f47565b6200101f604083018862000f47565b6200102e606083018762000f47565b6200103d608083018662000f47565b6200104c60a083018562000f47565b6200105b60c083018462000af9565b9897505050505050505056fe608060405234801562000010575f80fd5b5060405162001b3a38038062001b3a83398181016040528101906200003691906200074b565b8383816003908162000049919062000a26565b5080600490816200005b919062000a26565b5050506200007033836200008d60201b60201c565b620000833382846200011760201b60201c565b5050505062000c04565b5f73ffffffffffffffffffffffffffffffffffffffff168273ffffffffffffffffffffffffffffffffffffffff160362000100575f6040517fec442f05000000000000000000000000000000000000000000000000000000008152600401620000f7919062000b1b565b60405180910390fd5b620001135f83836200013160201b60201c565b5050565b6200012c83838360016200035560201b60201c565b505050565b5f73ffffffffffffffffffffffffffffffffffffffff168373ffffffffffffffffffffffffffffffffffffffff160362000185578060025f82825462000178919062000b63565b9250508190555062000256565b5f805f8573ffffffffffffffffffffffffffffffffffffffff1673ffffffffffffffffffffffffffffffffffffffff1681526020019081526020015f205490508181101562000211578381836040517fe450d38c000000000000000000000000000000000000000000000000000000008152600401620002089392919062000bae565b60405180910390fd5b8181035f808673ffffffffffffffffffffffffffffffffffffffff1673ffffffffffffffffffffffffffffffffffffffff1681526020019081526020015f2081905550505b5f73ffffffffffffffffffffffffffffffffffffffff168273ffffffffffffffffffffffffffffffffffffffff16036200029f578060025f8282540392505081905550620002e9565b805f808473ffffffffffffffffffffffffffffffffffffffff1673ffffffffffffffffffffffffffffffffffffffff1681526020019081526020015f205f82825401925050819055505b8173ffffffffffffffffffffffffffffffffffffffff168373ffffffffffffffffffffffffffffffffffffffff167fddf252ad1be2c89b69c2b068fc378daa952ba7f163c4a11628f55a4df523b3ef8360405162000348919062000be9565b60405180910390a3505050565b5f73ffffffffffffffffffffffffffffffffffffffff168473ffffffffffffffffffffffffffffffffffffffff1603620003c8575f6040517fe602df05000000000000000000000000000000000000000000000000000000008152600401620003bf919062000b1b565b60405180910390fd5b5f73ffffffffffffffffffffffffffffffffffffffff168373ffffffffffffffffffffffffffffffffffffffff16036200043b575f6040517f94280d6200000000000000000000000000000000000000000000000000000000815260040162000432919062000b1b565b60405180910390fd5b8160015f8673ffffffffffffffffffffffffffffffffffffffff1673ffffffffffffffffffffffffffffffffffffffff1681526020019081526020015f205f8573ffffffffffffffffffffffffffffffffffffffff1673ffffffffffffffffffffffffffffffffffffffff1681526020019081526020015f2081905550801562000527578273ffffffffffffffffffffffffffffffffffffffff168473ffffffffffffffffffffffffffffffffffffffff167f8c5be1e5ebec7d5bd14f71427d1e84f3dd0314c0f7b2291e5b200ac8c7c3b925846040516200051e919062000be9565b60405180910390a35b50505050565b5f604051905090565b5f80fd5b5f80fd5b5f80fd5b5f80fd5b5f601f19601f8301169050919050565b7f4e487b71000000000000000000000000000000000000000000000000000000005f52604160045260245ffd5b6200058e8262000546565b810181811067ffffffffffffffff82111715620005b057620005af62000556565b5b80604052505050565b5f620005c46200052d565b9050620005d2828262000583565b919050565b5f67ffffffffffffffff821115620005f457620005f362000556565b5b620005ff8262000546565b9050602081019050919050565b5f5b838110156200062b5780820151818401526020810190506200060e565b5f8484015250505050565b5f6200064c6200064684620005d7565b620005b9565b9050828152602081018484840111156200066b576200066a62000542565b5b620006788482856200060c565b509392505050565b5f82601f8301126200069757620006966200053e565b5b8151620006a984826020860162000636565b91505092915050565b5f819050919050565b620006c681620006b2565b8114620006d1575f80fd5b50565b5f81519050620006e481620006bb565b92915050565b5f73ffffffffffffffffffffffffffffffffffffffff82169050919050565b5f6200071582620006ea565b9050919050565b620007278162000709565b811462000732575f80fd5b50565b5f8151905062000745816200071c565b92915050565b5f805f806080858703121562000766576200076562000536565b5b5f85015167ffffffffffffffff8111156200078657620007856200053a565b5b620007948782880162000680565b945050602085015167ffffffffffffffff811115620007b857620007b76200053a565b5b620007c68782880162000680565b9350506040620007d987828801620006d4565b9250506060620007ec8782880162000735565b91505092959194509250565b5f81519050919050565b7f4e487b71000000000000000000000000000000000000000000000000000000005f52602260045260245ffd5b5f60028204905060018216806200084757607f821691505b6020821081036200085d576200085c62000802565b5b50919050565b5f819050815f5260205f209050919050565b5f6020601f8301049050919050565b5f82821b905092915050565b5f60088302620008c17fffffffffffffffffffffffffffffffffffffffffffffffffffffffffffffffff8262000884565b620008cd868362000884565b95508019841693508086168417925050509392505050565b5f819050919050565b5f6200090e620009086200090284620006b2565b620008e5565b620006b2565b9050919050565b5f819050919050565b6200092983620008ee565b62000941620009388262000915565b84845462000890565b825550505050565b5f90565b6200095762000949565b620009648184846200091e565b505050565b5b818110156200098b576200097f5f826200094d565b6001810190506200096a565b5050565b601f821115620009da57620009a48162000863565b620009af8462000875565b81016020851015620009bf578190505b620009d7620009ce8562000875565b83018262000969565b50505b505050565b5f82821c905092915050565b5f620009fc5f1984600802620009df565b1980831691505092915050565b5f62000a168383620009eb565b9150826002028217905092915050565b62000a3182620007f8565b67ffffffffffffffff81111562000a4d5762000a4c62000556565b5b62000a5982546200082f565b62000a668282856200098f565b5f60209050601f83116001811462000a9c575f841562000a87578287015190505b62000a93858262000a09565b86555062000b02565b601f19841662000aac8662000863565b5f5b8281101562000ad55784890151825560018201915060208501945060208101905062000aae565b8683101562000af5578489015162000af1601f891682620009eb565b8355505b6001600288020188555050505b505050505050565b62000b158162000709565b82525050565b5f60208201905062000b305f83018462000b0a565b92915050565b7f4e487b71000000000000000000000000000000000000000000000000000000005f52601160045260245ffd5b5f62000b6f82620006b2565b915062000b7c83620006b2565b925082820190508082111562000b975762000b9662000b36565b5b92915050565b62000ba881620006b2565b82525050565b5f60608201905062000bc35f83018662000b0a565b62000bd2602083018562000b9d565b62000be1604083018462000b9d565b949350505050565b5f60208201905062000bfe5f83018462000b9d565b92915050565b610f288062000c125f395ff3fe608060405234801561000f575f80fd5b50600436106100a7575f3560e01c806342966c681161006f57806342966c681461016557806370a082311461018157806379cc6790146101b157806395d89b41146101cd578063a9059cbb146101eb578063dd62ed3e1461021b576100a7565b806306fdde03146100ab578063095ea7b3146100c957806318160ddd146100f957806323b872dd14610117578063313ce56714610147575b5f80fd5b6100b361024b565b6040516100c09190610b76565b60405180910390f35b6100e360048036038101906100de9190610c27565b6102db565b6040516100f09190610c7f565b60405180910390f35b6101016102fd565b60405161010e9190610ca7565b60405180910390f35b610131600480360381019061012c9190610cc0565b610306565b60405161013e9190610c7f565b60405180910390f35b61014f610334565b60405161015c9190610d2b565b60405180910390f35b61017f600480360381019061017a9190610d44565b61033c565b005b61019b60048036038101906101969190610d6f565b610350565b6040516101a89190610ca7565b60405180910390f35b6101cb60048036038101906101c69190610c27565b610395565b005b6101d56103b5565b6040516101e29190610b76565b60405180910390f35b61020560048036038101906102009190610c27565b610445565b6040516102129190610c7f565b60405180910390f35b61023560048036038101906102309190610d9a565b610467565b6040516102429190610ca7565b60405180910390f35b60606003805461025a90610e05565b80601f016020809104026020016040519081016040528092919081815260200182805461028690610e05565b80156102d15780601f106102a8576101008083540402835291602001916102d1565b820191905f5260205f20905b8154815290600101906020018083116102b457829003601f168201915b5050505050905090565b5f806102e56104e9565b90506102f28185856104f0565b600191505092915050565b5f600254905090565b5f806103106104e9565b905061031d858285610502565b610328858585610595565b60019150509392505050565b5f6012905090565b61034d6103476104e9565b82610685565b50565b5f805f8373ffffffffffffffffffffffffffffffffffffffff1673ffffffffffffffffffffffffffffffffffffffff1681526020019081526020015f20549050919050565b6103a7826103a16104e9565b83610502565b6103b18282610685565b5050565b6060600480546103c490610e05565b80601f01602080910402602001604051908101604052809291908181526020018280546103f090610e05565b801561043b5780601f106104125761010080835404028352916020019161043b565b820191905f5260205f20905b81548152906001019060200180831161041e57829003601f168201915b5050505050905090565b5f8061044f6104e9565b905061045c818585610595565b600191505092915050565b5f60015f8473ffffffffffffffffffffffffffffffffffffffff1673ffffffffffffffffffffffffffffffffffffffff1681526020019081526020015f205f8373ffffffffffffffffffffffffffffffffffffffff1673ffffffffffffffffffffffffffffffffffffffff1681526020019081526020015f2054905092915050565b5f33905090565b6104fd8383836001610704565b505050565b5f61050d8484610467565b90507fffffffffffffffffffffffffffffffffffffffffffffffffffffffffffffffff81101561058f5781811015610580578281836040517ffb8f41b200000000000000000000000000000000000000000000000000000000815260040161057793929190610e44565b60405180910390fd5b61058e84848484035f610704565b5b50505050565b5f73ffffffffffffffffffffffffffffffffffffffff168373ffffffffffffffffffffffffffffffffffffffff1603610605575f6040517f96c6fd1e0000000000000000000000000000000000000000000000000000000081526004016105fc9190610e79565b60405180910390fd5b5f73ffffffffffffffffffffffffffffffffffffffff168273ffffffffffffffffffffffffffffffffffffffff1603610675575f6040517fec442f0500000000000000000000000000000000000000000000000000000000815260040161066c9190610e79565b60405180910390fd5b6106808383836108d3565b505050565b5f73ffffffffffffffffffffffffffffffffffffffff168273ffffffffffffffffffffffffffffffffffffffff16036106f5575f6040517f96c6fd1e0000000000000000000000000000000000000000000000000000000081526004016106ec9190610e79565b60405180910390fd5b610700825f836108d3565b5050565b5f73ffffffffffffffffffffffffffffffffffffffff168473ffffffffffffffffffffffffffffffffffffffff1603610774575f6040517fe602df0500000000000000000000000000000000000000000000000000000000815260040161076b9190610e79565b60405180910390fd5b5f73ffffffffffffffffffffffffffffffffffffffff168373ffffffffffffffffffffffffffffffffffffffff16036107e4575f6040517f94280d620000000000000000000000000000000000000000000000000000000081526004016107db9190610e79565b60405180910390fd5b8160015f8673ffffffffffffffffffffffffffffffffffffffff1673ffffffffffffffffffffffffffffffffffffffff1681526020019081526020015f205f8573ffffffffffffffffffffffffffffffffffffffff1673ffffffffffffffffffffffffffffffffffffffff1681526020019081526020015f208190555080156108cd578273ffffffffffffffffffffffffffffffffffffffff168473ffffffffffffffffffffffffffffffffffffffff167f8c5be1e5ebec7d5bd14f71427d1e84f3dd0314c0f7b2291e5b200ac8c7c3b925846040516108c49190610ca7565b60405180910390a35b50505050565b5f73ffffffffffffffffffffffffffffffffffffffff168373ffffffffffffffffffffffffffffffffffffffff1603610923578060025f8282546109179190610ebf565b925050819055506109f1565b5f805f8573ffffffffffffffffffffffffffffffffffffffff1673ffffffffffffffffffffffffffffffffffffffff1681526020019081526020015f20549050818110156109ac578381836040517fe450d38c0000000000000000000000000000000000000000000000000000000081526004016109a393929190610e44565b60405180910390fd5b8181035f808673ffffffffffffffffffffffffffffffffffffffff1673ffffffffffffffffffffffffffffffffffffffff1681526020019081526020015f2081905550505b5f73ffffffffffffffffffffffffffffffffffffffff168273ffffffffffffffffffffffffffffffffffffffff1603610a38578060025f8282540392505081905550610a82565b805f808473ffffffffffffffffffffffffffffffffffffffff1673ffffffffffffffffffffffffffffffffffffffff1681526020019081526020015f205f82825401925050819055505b8173ffffffffffffffffffffffffffffffffffffffff168373ffffffffffffffffffffffffffffffffffffffff167fddf252ad1be2c89b69c2b068fc378daa952ba7f163c4a11628f55a4df523b3ef83604051610adf9190610ca7565b60405180910390a3505050565b5f81519050919050565b5f82825260208201905092915050565b5f5b83811015610b23578082015181840152602081019050610b08565b5f8484015250505050565b5f601f19601f8301169050919050565b5f610b4882610aec565b610b528185610af6565b9350610b62818560208601610b06565b610b6b81610b2e565b840191505092915050565b5f6020820190508181035f830152610b8e8184610b3e565b905092915050565b5f80fd5b5f73ffffffffffffffffffffffffffffffffffffffff82169050919050565b5f610bc382610b9a565b9050919050565b610bd381610bb9565b8114610bdd575f80fd5b50565b5f81359050610bee81610bca565b92915050565b5f819050919050565b610c0681610bf4565b8114610c10575f80fd5b50565b5f81359050610c2181610bfd565b92915050565b5f8060408385031215610c3d57610c3c610b96565b5b5f610c4a85828601610be0565b9250506020610c5b85828601610c13565b9150509250929050565b5f8115159050919050565b610c7981610c65565b82525050565b5f602082019050610c925f830184610c70565b92915050565b610ca181610bf4565b82525050565b5f602082019050610cba5f830184610c98565b92915050565b5f805f60608486031215610cd757610cd6610b96565b5b5f610ce486828701610be0565b9350506020610cf586828701610be0565b9250506040610d0686828701610c13565b9150509250925092565b5f60ff82169050919050565b610d2581610d10565b82525050565b5f602082019050610d3e5f830184610d1c565b92915050565b5f60208284031215610d5957610d58610b96565b5b5f610d6684828501610c13565b91505092915050565b5f60208284031215610d8457610d83610b96565b5b5f610d9184828501610be0565b91505092915050565b5f8060408385031215610db057610daf610b96565b5b5f610dbd85828601610be0565b9250506020610dce85828601610be0565b9150509250929050565b7f4e487b71000000000000000000000000000000000000000000000000000000005f52602260045260245ffd5b5f6002820490506001821680610e1c57607f821691505b602082108103610e2f57610e2e610dd8565b5b50919050565b610e3e81610bb9565b82525050565b5f606082019050610e575f830186610e35565b610e646020830185610c98565b610e716040830184610c98565b949350505050565b5f602082019050610e8c5f830184610e35565b92915050565b7f4e487b71000000000000000000000000000000000000000000000000000000005f52601160045260245ffd5b5f610ec982610bf4565b9150610ed483610bf4565b9250828201905080821115610eec57610eeb610e92565b5b9291505056fea264697066735822122030c15a75feb32358a640e57c56a6e9bf174cfc6c1990a52a81c876d006ea9b2364736f6c6343000818003360e060405234801562000010575f80fd5b506040516200157938038062001579833981810160405281019062000036919062000140565b8273ffffffffffffffffffffffffffffffffffffffff1660808173ffffffffffffffffffffffffffffffffffffffff16815250508173ffffffffffffffffffffffffffffffffffffffff1660a08173ffffffffffffffffffffffffffffffffffffffff16815250508073ffffffffffffffffffffffffffffffffffffffff1660c08173ffffffffffffffffffffffffffffffffffffffff168152505050505062000199565b5f80fd5b5f73ffffffffffffffffffffffffffffffffffffffff82169050919050565b5f6200010a82620000df565b9050919050565b6200011c81620000fe565b811462000127575f80fd5b50565b5f815190506200013a8162000111565b92915050565b5f805f606084860312156200015a5762000159620000db565b5b5f62000169868287016200012a565b93505060206200017c868287016200012a565b92505060406200018f868287016200012a565b9150509250925092565b60805160a05160c051611392620001e75f395f818161072e015261096101525f8181610353015281816106950152610ac601525f8181610567015281816108a9015261093d01526113925ff3fe608060405234801561000f575f80fd5b5060043610610114575f3560e01c80637421533d116100a0578063b2a7d8261161006f578063b2a7d82614610298578063bdd071fb146102b6578063ef40a670146102d2578063ef683cbb14610302578063ef772a601461032057610114565b80637421533d14610222578063a20baee614610240578063a694fc3a1461025e578063af059f201461027a57610114565b80632d28e89d116100e75780632d28e89d146101a25780632e1a7d4d146101c0578063372500ab146101dc5780633a000125146101e65780635667e4db1461020457610114565b80630e02811a146101185780630e39673d146101365780631347e985146101545780631959a00214610172575b5f80fd5b61012061033e565b60405161012d9190610fac565b60405180910390f35b61013e610344565b60405161014b9190610fdf565b60405180910390f35b61015c610351565b6040516101699190611072565b60405180910390f35b61018c600480360381019061018791906110ca565b610375565b6040516101999190611157565b60405180910390f35b6101aa6103f3565b6040516101b79190610fac565b60405180910390f35b6101da60048036038101906101d5919061119a565b6103fa565b005b6101e46105f3565b005b6101ee610720565b6040516101fb9190610fac565b60405180910390f35b61020c610726565b6040516102199190610fac565b60405180910390f35b61022a61072c565b60405161023791906111d4565b60405180910390f35b610248610750565b6040516102559190610fac565b60405180910390f35b6102786004803603810190610273919061119a565b61075c565b005b610282610935565b60405161028f9190610fac565b60405180910390f35b6102a061093b565b6040516102ad9190611072565b60405180910390f35b6102d060048036038101906102cb91906111ed565b61095f565b005b6102ec60048036038101906102e791906110ca565b610b3d565b6040516102f99190610fac565b60405180910390f35b61030a610b85565b6040516103179190610fac565b60405180910390f35b610328610b8b565b6040516103359190610fac565b60405180910390f35b60025481565b5f60045460015411905090565b7f000000000000000000000000000000000000000000000000000000000000000081565b61037d610f70565b60065f8373ffffffffffffffffffffffffffffffffffffffff1673ffffffffffffffffffffffffffffffffffffffff1681526020019081526020015f206040518060800160405290815f820154815260200160018201548152602001600282015481526020016003820154815250509050919050565b62093a8081565b5f8103610433576040517fc8a107b100000000000000000000000000000000000000000000000000000000815260040160405180910390fd5b5f60065f3373ffffffffffffffffffffffffffffffffffffffff1673ffffffffffffffffffffffffffffffffffffffff1681526020019081526020015f206040518060800160405290815f82015481526020016001820154815260200160028201548152602001600382015481525050905081815f015110156104e2576040517f439bdff300000000000000000000000000000000000000000000000000000000815260040160405180910390fd5b6104ea610b90565b6104f4335f610c2e565b8160065f3373ffffffffffffffffffffffffffffffffffffffff1673ffffffffffffffffffffffffffffffffffffffff1681526020019081526020015f205f015f8282546105429190611258565b92505081905550815f808282546105599190611258565b925050819055506105ab33837f000000000000000000000000000000000000000000000000000000000000000073ffffffffffffffffffffffffffffffffffffffff16610dbb9092919063ffffffff16565b813373ffffffffffffffffffffffffffffffffffffffff167f7084f5476618d8e60b11ef0d7d3f06914655adb8793e28ff7f018d4c76d505d560405160405180910390a35050565b6105fb610b90565b610605335f610c2e565b5f60065f3373ffffffffffffffffffffffffffffffffffffffff1673ffffffffffffffffffffffffffffffffffffffff1681526020019081526020015f206002015490505f60065f3373ffffffffffffffffffffffffffffffffffffffff1673ffffffffffffffffffffffffffffffffffffffff1681526020019081526020015f20600201819055506106d933827f000000000000000000000000000000000000000000000000000000000000000073ffffffffffffffffffffffffffffffffffffffff16610dbb9092919063ffffffff16565b803373ffffffffffffffffffffffffffffffffffffffff167ffc30cddea38e2bf4d6ea7d3f9ed3b6ad7f176419f4963bd81318067a4aee73fe60405160405180910390a350565b60035481565b60045481565b7f000000000000000000000000000000000000000000000000000000000000000081565b670de0b6b3a764000081565b5f8103610795576040517fc8a107b100000000000000000000000000000000000000000000000000000000815260040160405180910390fd5b5f60025414806107a757505f60015411155b156107de576040517f272aae2d00000000000000000000000000000000000000000000000000000000815260040160405180910390fd5b6107e6610b90565b6107f03382610c2e565b8060065f3373ffffffffffffffffffffffffffffffffffffffff1673ffffffffffffffffffffffffffffffffffffffff1681526020019081526020015f205f015f82825461083e919061128b565b925050819055504260065f3373ffffffffffffffffffffffffffffffffffffffff1673ffffffffffffffffffffffffffffffffffffffff1681526020019081526020015f2060030181905550805f8082825461089a919061128b565b925050819055506108ee3330837f000000000000000000000000000000000000000000000000000000000000000073ffffffffffffffffffffffffffffffffffffffff16610e0e909392919063ffffffff16565b803373ffffffffffffffffffffffffffffffffffffffff167f9e71bc8eea02a63969f509818f2dafb9254532904319f9dbda79b67bd34a5f3d60405160405180910390a350565b60015481565b7f000000000000000000000000000000000000000000000000000000000000000081565b7f000000000000000000000000000000000000000000000000000000000000000073ffffffffffffffffffffffffffffffffffffffff163373ffffffffffffffffffffffffffffffffffffffff16146109e4576040517f71bc737400000000000000000000000000000000000000000000000000000000815260040160405180910390fd5b5f8203610a1d576040517fc8a107b100000000000000000000000000000000000000000000000000000000815260040160405180910390fd5b5f8103610a56576040517fc7514ab400000000000000000000000000000000000000000000000000000000815260040160405180910390fd5b8160015f828254610a67919061128b565b925050819055505f600454600154610a7f9190611258565b90505f811115610aab578183610a9591906112eb565b81610aa0919061128b565b600281905550610abe565b8183610ab791906112eb565b6002819055505b610b0b3330857f000000000000000000000000000000000000000000000000000000000000000073ffffffffffffffffffffffffffffffffffffffff16610e0e909392919063ffffffff16565b827f4b19cb5d8df041d8b4d367efa19af33a21d398f599fb445a29acd9d5e56318c660405160405180910390a2505050565b5f60065f8373ffffffffffffffffffffffffffffffffffffffff1673ffffffffffffffffffffffffffffffffffffffff1681526020019081526020015f205f01549050919050565b60055481565b5f5481565b5f60035442610b9f9190611258565b90505f805490505f8103610bbb57426003819055505050610c2c565b5f610be260045484600254610bd0919061131b565b610bda919061128b565b600154610e63565b9050806004819055504260038190555081670de0b6b3a764000082610c07919061131b565b610c1191906112eb565b60055f828254610c21919061128b565b925050819055505050505b565b5f60065f8473ffffffffffffffffffffffffffffffffffffffff1673ffffffffffffffffffffffffffffffffffffffff1681526020019081526020015f206040518060800160405290815f8201548152602001600182015481526020016002820154815260200160038201548152505090505f8160200151670de0b6b3a7640000835f0151600554610cc0919061131b565b610cca91906112eb565b610cd49190611258565b90505f831115610cf75782825f01818151610cef919061128b565b915081815250505b8060065f8673ffffffffffffffffffffffffffffffffffffffff1673ffffffffffffffffffffffffffffffffffffffff1681526020019081526020015f206002015f828254610d46919061128b565b92505081905550670de0b6b3a7640000600554835f0151610d67919061131b565b610d7191906112eb565b60065f8673ffffffffffffffffffffffffffffffffffffffff1673ffffffffffffffffffffffffffffffffffffffff1681526020019081526020015f206001018190555050505050565b610dc88383836001610e79565b610e0957826040517f5274afe7000000000000000000000000000000000000000000000000000000008152600401610e0091906111d4565b60405180910390fd5b505050565b610e1c848484846001610edb565b610e5d57836040517f5274afe7000000000000000000000000000000000000000000000000000000008152600401610e5491906111d4565b60405180910390fd5b50505050565b5f610e718284108484610f4c565b905092915050565b5f8063a9059cbb60e01b9050604051815f525f1960601c86166004528460245260205f60445f808b5af1925060015f51148316610ecd578383151615610ec1573d5f823e3d81fd5b5f873b113d1516831692505b806040525050949350505050565b5f806323b872dd60e01b9050604051815f525f1960601c87166004525f1960601c86166024528460445260205f60645f808c5af1925060015f51148316610f39578383151615610f2d573d5f823e3d81fd5b5f883b113d1516831692505b806040525f606052505095945050505050565b5f610f5684610f65565b82841802821890509392505050565b5f8115159050919050565b60405180608001604052805f81526020015f81526020015f81526020015f81525090565b5f819050919050565b610fa681610f94565b82525050565b5f602082019050610fbf5f830184610f9d565b92915050565b5f8115159050919050565b610fd981610fc5565b82525050565b5f602082019050610ff25f830184610fd0565b92915050565b5f73ffffffffffffffffffffffffffffffffffffffff82169050919050565b5f819050919050565b5f61103a61103561103084610ff8565b611017565b610ff8565b9050919050565b5f61104b82611020565b9050919050565b5f61105c82611041565b9050919050565b61106c81611052565b82525050565b5f6020820190506110855f830184611063565b92915050565b5f80fd5b5f61109982610ff8565b9050919050565b6110a98161108f565b81146110b3575f80fd5b50565b5f813590506110c4816110a0565b92915050565b5f602082840312156110df576110de61108b565b5b5f6110ec848285016110b6565b91505092915050565b6110fe81610f94565b82525050565b608082015f8201516111185f8501826110f5565b50602082015161112b60208501826110f5565b50604082015161113e60408501826110f5565b50606082015161115160608501826110f5565b50505050565b5f60808201905061116a5f830184611104565b92915050565b61117981610f94565b8114611183575f80fd5b50565b5f8135905061119481611170565b92915050565b5f602082840312156111af576111ae61108b565b5b5f6111bc84828501611186565b91505092915050565b6111ce8161108f565b82525050565b5f6020820190506111e75f8301846111c5565b92915050565b5f80604083850312156112035761120261108b565b5b5f61121085828601611186565b925050602061122185828601611186565b9150509250929050565b7f4e487b71000000000000000000000000000000000000000000000000000000005f52601160045260245ffd5b5f61126282610f94565b915061126d83610f94565b92508282039050818111156112855761128461122b565b5b92915050565b5f61129582610f94565b91506112a083610f94565b92508282019050808211156112b8576112b761122b565b5b92915050565b7f4e487b71000000000000000000000000000000000000000000000000000000005f52601260045260245ffd5b5f6112f582610f94565b915061130083610f94565b9250826113105761130f6112be565b5b828204905092915050565b5f61132582610f94565b915061133083610f94565b925082820261133e81610f94565b915082820484148315176113555761135461122b565b5b509291505056fea2646970667358221220fc935e045d63a7aad3e24ecbdc44d75e8ec6a9de2f912dc19f83e02618dd9efa64736f6c63430008180033a26469706673582212200ad3b6b5fe0f9e0ba572f6f45c3a7e0a4de1617af013fd32971849b2e4a6fd7564736f6c6343000818003361014060405234801562000011575f80fd5b5060405162003a9338038062003a938339818101604052810190620000379190620003a2565b815f73ffffffffffffffffffffffffffffffffffffffff168173ffffffffffffffffffffffffffffffffffffffff1603620000ab575f6040517f1e4fbdf7000000000000000000000000000000000000000000000000000000008152600401620000a2919062000422565b60405180910390fd5b620000bc816200024460201b60201c565b503373ffffffffffffffffffffffffffffffffffffffff1660808173ffffffffffffffffffffffffffffffffffffffff16815250508373ffffffffffffffffffffffffffffffffffffffff1660a08173ffffffffffffffffffffffffffffffffffffffff16815250508373ffffffffffffffffffffffffffffffffffffffff1663313ce5676040518163ffffffff1660e01b8152600401602060405180830381865afa1580156200016f573d5f803e3d5ffd5b505050506040513d601f19601f8201168201806040525081019062000195919062000478565b60ff166101008160ff168152505061010051600a620001b591906200062e565b670de0b6b3a7640000620001ca9190620006ab565b61012081815250508273ffffffffffffffffffffffffffffffffffffffff1660c08173ffffffffffffffffffffffffffffffffffffffff16815250508073ffffffffffffffffffffffffffffffffffffffff1660e08173ffffffffffffffffffffffffffffffffffffffff168152505050505050620006e2565b60015f6101000a81549073ffffffffffffffffffffffffffffffffffffffff021916905562000279816200027c60201b60201c565b50565b5f805f9054906101000a900473ffffffffffffffffffffffffffffffffffffffff169050815f806101000a81548173ffffffffffffffffffffffffffffffffffffffff021916908373ffffffffffffffffffffffffffffffffffffffff1602179055508173ffffffffffffffffffffffffffffffffffffffff168173ffffffffffffffffffffffffffffffffffffffff167f8be0079c531659141344cd1fd0a4f28419497f9722a3daafe3b4186f6b6457e060405160405180910390a35050565b5f80fd5b5f73ffffffffffffffffffffffffffffffffffffffff82169050919050565b5f6200036c8262000341565b9050919050565b6200037e8162000360565b811462000389575f80fd5b50565b5f815190506200039c8162000373565b92915050565b5f805f8060808587031215620003bd57620003bc6200033d565b5b5f620003cc878288016200038c565b9450506020620003df878288016200038c565b9350506040620003f2878288016200038c565b925050606062000405878288016200038c565b91505092959194509250565b6200041c8162000360565b82525050565b5f602082019050620004375f83018462000411565b92915050565b5f60ff82169050919050565b62000454816200043d565b81146200045f575f80fd5b50565b5f81519050620004728162000449565b92915050565b5f6020828403121562000490576200048f6200033d565b5b5f6200049f8482850162000462565b91505092915050565b7f4e487b71000000000000000000000000000000000000000000000000000000005f52601160045260245ffd5b5f8160011c9050919050565b5f808291508390505b600185111562000532578086048111156200050a5762000509620004a8565b5b60018516156200051a5780820291505b80810290506200052a85620004d5565b9450620004ea565b94509492505050565b5f826200054c57600190506200061e565b816200055b575f90506200061e565b81600181146200057457600281146200057f57620005b5565b60019150506200061e565b60ff841115620005945762000593620004a8565b5b8360020a915084821115620005ae57620005ad620004a8565b5b506200061e565b5060208310610133831016604e8410600b8410161715620005ef5782820a905083811115620005e957620005e8620004a8565b5b6200061e565b620005fe8484846001620004e1565b92509050818404811115620006185762000617620004a8565b5b81810290505b9392505050565b5f819050919050565b5f6200063a8262000625565b915062000647836200043d565b9250620006767fffffffffffffffffffffffffffffffffffffffffffffffffffffffffffffffff84846200053b565b905092915050565b7f4e487b71000000000000000000000000000000000000000000000000000000005f52601260045260245ffd5b5f620006b78262000625565b9150620006c48362000625565b925082620006d757620006d66200067e565b5b828204905092915050565b60805160a05160c05160e05161010051610120516133156200077e5f395f818161091b01526123f701525f8181610397015261241801525f818161157c015261257301525f6108f701525f818161075001528181610c360152818161108e01528181611405015281816118d901528181611c5401528181612300015261237c01525f81816103bb0152818161080d015261110801526133155ff3fe608060405234801561000f575f80fd5b5060043610610135575f3560e01c806377130fe3116100b6578063d5bd20851161007a578063d5bd2085146102c9578063e30c3978146102e5578063f201287714610303578063f2fde38b14610333578063fe52529a1461034f578063ff40e1d01461036b57610135565b806377130fe31461024b57806379ba5097146102675780638436c8ff146102715780638a4bc0371461028f5780638da5cb5b146102ab57610135565b80633f930941116100fd5780633f930941146101cd5780633fc35553146101eb57806342e95e4c1461020757806357e0acc714610223578063715018a61461024157610135565b8063019a40f4146101395780630de78d32146101575780632139e2a91461017557806323f9d589146101915780632fa9f6a5146101af575b5f80fd5b610141610389565b60405161014e9190612854565b60405180910390f35b61015f610395565b60405161016c9190612888565b60405180910390f35b61018f600480360381019061018a9190612932565b6103b9565b005b6101996108ee565b6040516101a69190612854565b60405180910390f35b6101b76108f5565b6040516101c49190612a2a565b60405180910390f35b6101d5610919565b6040516101e29190612854565b60405180910390f35b61020560048036038101906102009190612a76565b61093d565b005b610221600480360381019061021c9190612a76565b610cb0565b005b61022b611106565b6040516102389190612ac3565b60405180910390f35b61024961112a565b005b61026560048036038101906102609190612adc565b61113d565b005b61026f6114ec565b005b61027961157a565b6040516102869190612b4c565b60405180910390f35b6102a960048036038101906102a49190612b65565b61159e565b005b6102b361197e565b6040516102c09190612ac3565b60405180910390f35b6102e360048036038101906102de9190612a76565b6119a5565b005b6102ed611dae565b6040516102fa9190612ac3565b60405180910390f35b61031d60048036038101906103189190612b65565b611dd6565b60405161032a9190612d00565b60405180910390f35b61034d60048036038101906103489190612d1a565b611f35565b005b61036960048036038101906103649190612a76565b611fe1565b005b61037361237a565b6040516103809190612ac3565b60405180910390f35b670de0b6b3a764000081565b7f000000000000000000000000000000000000000000000000000000000000000081565b7f000000000000000000000000000000000000000000000000000000000000000073ffffffffffffffffffffffffffffffffffffffff163373ffffffffffffffffffffffffffffffffffffffff161461043e576040517f9d2e98ca00000000000000000000000000000000000000000000000000000000815260040160405180910390fd5b5f73ffffffffffffffffffffffffffffffffffffffff168773ffffffffffffffffffffffffffffffffffffffff16036104a3576040517facaa94cc00000000000000000000000000000000000000000000000000000000815260040160405180910390fd5b5f86036104dc576040517ff9ded5be00000000000000000000000000000000000000000000000000000000815260040160405180910390fd5b5f8503610515576040517f44883d7800000000000000000000000000000000000000000000000000000000815260040160405180910390fd5b5f87878760405160200161052b93929190612daa565b6040516020818303038152906040528051906020012090506040518061016001604052808973ffffffffffffffffffffffffffffffffffffffff1681526020018881526020015f81526020018781526020016001600581111561059157610590612bae565b5b81526020014281526020018681526020018581526020018481526020015f81526020018373ffffffffffffffffffffffffffffffffffffffff1681525060025f8381526020019081526020015f205f820151815f015f6101000a81548173ffffffffffffffffffffffffffffffffffffffff021916908373ffffffffffffffffffffffffffffffffffffffff1602179055506020820151816001015560408201518160020155606082015181600301556080820151816004015f6101000a81548160ff0219169083600581111561066b5761066a612bae565b5b021790555060a0820151816005015560c0820151816006015560e082015181600701556101008201518160080155610120820151816009015561014082015181600a015f6101000a81548173ffffffffffffffffffffffffffffffffffffffff021916908373ffffffffffffffffffffffffffffffffffffffff16021790555090505061071b3330898b73ffffffffffffffffffffffffffffffffffffffff1661239e909392919063ffffffff16565b5f73ffffffffffffffffffffffffffffffffffffffff168273ffffffffffffffffffffffffffffffffffffffff161461080b577f000000000000000000000000000000000000000000000000000000000000000073ffffffffffffffffffffffffffffffffffffffff1663095ea7b3837fffffffffffffffffffffffffffffffffffffffffffffffffffffffffffffffff6040518363ffffffff1660e01b81526004016107c9929190612de6565b6020604051808303815f875af11580156107e5573d5f803e3d5ffd5b505050506040513d601f19601f820116820180604052508101906108099190612e42565b505b7f000000000000000000000000000000000000000000000000000000000000000073ffffffffffffffffffffffffffffffffffffffff1663bde4d94689836040518363ffffffff1660e01b8152600401610866929190612e7c565b5f604051808303815f87803b15801561087d575f80fd5b505af115801561088f573d5f803e3d5ffd5b505050508773ffffffffffffffffffffffffffffffffffffffff16817fce40d4a797dc4606926684f9bab9c4109fd74028ef4a36a4f577a375300351cc89896040516108dc929190612ea3565b60405180910390a35050505050505050565b6202a30081565b7f000000000000000000000000000000000000000000000000000000000000000081565b7f000000000000000000000000000000000000000000000000000000000000000081565b5f60025f8481526020019081526020015f20604051806101600160405290815f82015f9054906101000a900473ffffffffffffffffffffffffffffffffffffffff1673ffffffffffffffffffffffffffffffffffffffff1673ffffffffffffffffffffffffffffffffffffffff168152602001600182015481526020016002820154815260200160038201548152602001600482015f9054906101000a900460ff1660058111156109f1576109f0612bae565b5b6005811115610a0357610a02612bae565b5b81526020016005820154815260200160068201548152602001600782015481526020016008820154815260200160098201548152602001600a82015f9054906101000a900473ffffffffffffffffffffffffffffffffffffffff1673ffffffffffffffffffffffffffffffffffffffff1673ffffffffffffffffffffffffffffffffffffffff168152505090506202a3008160a00151610aa39190612ef7565b421015610adc576040517fef262bda00000000000000000000000000000000000000000000000000000000815260040160405180910390fd5b60016005811115610af057610aef612bae565b5b81608001516005811115610b0757610b06612bae565b5b14610b3e576040517f5693f4ab00000000000000000000000000000000000000000000000000000000815260040160405180910390fd5b5f8203610b77576040517ff9ded5be00000000000000000000000000000000000000000000000000000000815260040160405180910390fd5b5f81604001518260200151610b8c9190612f2a565b905080831115610b9a578092505b610ba782606001516123f3565b831015610be0576040517f1ae700d200000000000000000000000000000000000000000000000000000000815260040160405180910390fd5b5f670de0b6b3a7640000836060015185610bfa9190612f5d565b610c049190612fcb565b9050826040015184610c169190612ef7565b60025f8781526020019081526020015f2060020181905550610c7b3330837f000000000000000000000000000000000000000000000000000000000000000073ffffffffffffffffffffffffffffffffffffffff1661239e909392919063ffffffff16565b610ca93385855f015173ffffffffffffffffffffffffffffffffffffffff1661245e9092919063ffffffff16565b5050505050565b610cb86124b1565b5f801b8203610cf3576040517f04f7c90400000000000000000000000000000000000000000000000000000000815260040160405180910390fd5b5f8103610d2c576040517f3f375cad00000000000000000000000000000000000000000000000000000000815260040160405180910390fd5b5f60025f8481526020019081526020015f20604051806101600160405290815f82015f9054906101000a900473ffffffffffffffffffffffffffffffffffffffff1673ffffffffffffffffffffffffffffffffffffffff1673ffffffffffffffffffffffffffffffffffffffff168152602001600182015481526020016002820154815260200160038201548152602001600482015f9054906101000a900460ff166005811115610de057610ddf612bae565b5b6005811115610df257610df1612bae565b5b81526020016005820154815260200160068201548152602001600782015481526020016008820154815260200160098201548152602001600a82015f9054906101000a900473ffffffffffffffffffffffffffffffffffffffff1673ffffffffffffffffffffffffffffffffffffffff1673ffffffffffffffffffffffffffffffffffffffff168152505090505f73ffffffffffffffffffffffffffffffffffffffff1681610140015173ffffffffffffffffffffffffffffffffffffffff1614610fce5780610140015173ffffffffffffffffffffffffffffffffffffffff16630e39673d6040518163ffffffff1660e01b8152600401602060405180830381865afa158015610f05573d5f803e3d5ffd5b505050506040513d601f19601f82011682018060405250810190610f299190612e42565b80610f92575060026005811115610f4357610f42612bae565b5b81608001516005811115610f5a57610f59612bae565b5b14158015610f91575060036005811115610f7757610f76612bae565b5b81608001516005811115610f8e57610f8d612bae565b5b14155b5b15610fc9576040517f9727484600000000000000000000000000000000000000000000000000000000815260040160405180910390fd5b611031565b60026005811115610fe257610fe1612bae565b5b81608001516005811115610ff957610ff8612bae565b5b14611030576040517fd1c92ac700000000000000000000000000000000000000000000000000000000815260040160405180910390fd5b5b600460025f8581526020019081526020015f206004015f6101000a81548160ff0219169083600581111561106857611067612bae565b5b02179055508160025f8581526020019081526020015f20600901819055506110d33330847f000000000000000000000000000000000000000000000000000000000000000073ffffffffffffffffffffffffffffffffffffffff1661239e909392919063ffffffff16565b81837f35d370c3755731f350557bb89d4fed48ff675ad80293da87e45ec9ef20fa399f60405160405180910390a3505050565b7f000000000000000000000000000000000000000000000000000000000000000081565b6111326124b1565b61113b5f612538565b565b6111456124b1565b5f60025f8581526020019081526020015f20604051806101600160405290815f82015f9054906101000a900473ffffffffffffffffffffffffffffffffffffffff1673ffffffffffffffffffffffffffffffffffffffff1673ffffffffffffffffffffffffffffffffffffffff168152602001600182015481526020016002820154815260200160038201548152602001600482015f9054906101000a900460ff1660058111156111f9576111f8612bae565b5b600581111561120b5761120a612bae565b5b81526020016005820154815260200160068201548152602001600782015481526020016008820154815260200160098201548152602001600a82015f9054906101000a900473ffffffffffffffffffffffffffffffffffffffff1673ffffffffffffffffffffffffffffffffffffffff1673ffffffffffffffffffffffffffffffffffffffff16815250509050600260058111156112ac576112ab612bae565b5b816080015160058111156112c3576112c2612bae565b5b141580156112fa5750600360058111156112e0576112df612bae565b5b816080015160058111156112f7576112f6612bae565b5b14155b15611331576040517fd1c92ac700000000000000000000000000000000000000000000000000000000815260040160405180910390fd5b5f73ffffffffffffffffffffffffffffffffffffffff1681610140015173ffffffffffffffffffffffffffffffffffffffff160361139b576040517ff79ca78000000000000000000000000000000000000000000000000000000000815260040160405180910390fd5b600260058111156113af576113ae612bae565b5b816080015160058111156113c6576113c5612bae565b5b036113fd576003816080019060058111156113e4576113e3612bae565b5b908160058111156113f8576113f7612bae565b5b815250505b61144a3330857f000000000000000000000000000000000000000000000000000000000000000073ffffffffffffffffffffffffffffffffffffffff1661239e909392919063ffffffff16565b80610140015173ffffffffffffffffffffffffffffffffffffffff1663bdd071fb84846040518363ffffffff1660e01b815260040161148a929190612ea3565b5f604051808303815f87803b1580156114a1575f80fd5b505af11580156114b3573d5f803e3d5ffd5b505050508183857f9ee8bb40d1b73566ab8cdada5f50c875db78066643b96ce7f0f4b53cfb5802f760405160405180910390a450505050565b5f6114f5612568565b90508073ffffffffffffffffffffffffffffffffffffffff16611516611dae565b73ffffffffffffffffffffffffffffffffffffffff161461156e57806040517f118cdaa70000000000000000000000000000000000000000000000000000000081526004016115659190612ac3565b60405180910390fd5b61157781612538565b50565b7f000000000000000000000000000000000000000000000000000000000000000081565b6115a66124b1565b5f801b81036115e1576040517f04f7c90400000000000000000000000000000000000000000000000000000000815260040160405180910390fd5b5f60025f8381526020019081526020015f20604051806101600160405290815f82015f9054906101000a900473ffffffffffffffffffffffffffffffffffffffff1673ffffffffffffffffffffffffffffffffffffffff1673ffffffffffffffffffffffffffffffffffffffff168152602001600182015481526020016002820154815260200160038201548152602001600482015f9054906101000a900460ff16600581111561169557611694612bae565b5b60058111156116a7576116a6612bae565b5b81526020016005820154815260200160068201548152602001600782015481526020016008820154815260200160098201548152602001600a82015f9054906101000a900473ffffffffffffffffffffffffffffffffffffffff1673ffffffffffffffffffffffffffffffffffffffff1673ffffffffffffffffffffffffffffffffffffffff168152505090506001600581111561174857611747612bae565b5b8160800151600581111561175f5761175e612bae565b5b14611796576040517f5693f4ab00000000000000000000000000000000000000000000000000000000815260040160405180910390fd5b8061010001518160a001516117ab9190612ef7565b4210156117e4576040517fd1c92ac700000000000000000000000000000000000000000000000000000000815260040160405180910390fd5b5f670de0b6b3a7640000826060015183604001516118029190612f5d565b61180c9190612fcb565b90505f826040015183602001516118239190612f2a565b90506002805f8681526020019081526020015f206004015f6101000a81548160ff0219169083600581111561185b5761185a612bae565b5b02179055505f8111156118d257825f015173ffffffffffffffffffffffffffffffffffffffff166342966c68826040518263ffffffff1660e01b81526004016118a49190612854565b5f604051808303815f87803b1580156118bb575f80fd5b505af11580156118cd573d5f803e3d5ffd5b505050505b61191d33837f000000000000000000000000000000000000000000000000000000000000000073ffffffffffffffffffffffffffffffffffffffff1661245e9092919063ffffffff16565b83827f03c6e1086bf3f14e6997cca809f9dd90d3254092fb0b219e516e45625a70cd0f60405160405180910390a3837f1390d3e1afd773aa59cdfd2c556e5a69ff973da1a0c9e9450586cd29be3cb3f460405160405180910390a250505050565b5f805f9054906101000a900473ffffffffffffffffffffffffffffffffffffffff16905090565b5f60025f8481526020019081526020015f20604051806101600160405290815f82015f9054906101000a900473ffffffffffffffffffffffffffffffffffffffff1673ffffffffffffffffffffffffffffffffffffffff1673ffffffffffffffffffffffffffffffffffffffff168152602001600182015481526020016002820154815260200160038201548152602001600482015f9054906101000a900460ff166005811115611a5957611a58612bae565b5b6005811115611a6b57611a6a612bae565b5b81526020016005820154815260200160068201548152602001600782015481526020016008820154815260200160098201548152602001600a82015f9054906101000a900473ffffffffffffffffffffffffffffffffffffffff1673ffffffffffffffffffffffffffffffffffffffff1673ffffffffffffffffffffffffffffffffffffffff168152505090505f801b8303611b33576040517f04f7c90400000000000000000000000000000000000000000000000000000000815260040160405180910390fd5b60046005811115611b4757611b46612bae565b5b81608001516005811115611b5e57611b5d612bae565b5b14611b95576040517fa8dd1e7200000000000000000000000000000000000000000000000000000000815260040160405180910390fd5b5f8160400151670de0b6b3a7640000836101200151611bb49190612f5d565b611bbe9190612fcb565b90505f670de0b6b3a76400008285611bd69190612f5d565b611be09190612fcb565b9050825f015173ffffffffffffffffffffffffffffffffffffffff166379cc679033866040518363ffffffff1660e01b8152600401611c20929190612de6565b5f604051808303815f87803b158015611c37575f80fd5b505af1158015611c49573d5f803e3d5ffd5b50505050611c9833827f000000000000000000000000000000000000000000000000000000000000000073ffffffffffffffffffffffffffffffffffffffff1661245e9092919063ffffffff16565b5f835f015173ffffffffffffffffffffffffffffffffffffffff166318160ddd6040518163ffffffff1660e01b8152600401602060405180830381865afa158015611ce5573d5f803e3d5ffd5b505050506040513d601f19601f82011682018060405250810190611d09919061300f565b03611d7857600560025f8781526020019081526020015f206004015f6101000a81548160ff02191690836005811115611d4557611d44612bae565b5b0217905550847fd10685aca788ed9a420350e305bc811cc0b8d1785556cea8ed44c53dfee1defa60405160405180910390a25b8084867f7645c5f5e5d03a99c03bb86805723aefcbc4e6e56a7550f764e02547c89c3f3f60405160405180910390a45050505050565b5f60015f9054906101000a900473ffffffffffffffffffffffffffffffffffffffff16905090565b611dde6127af565b60025f8381526020019081526020015f20604051806101600160405290815f82015f9054906101000a900473ffffffffffffffffffffffffffffffffffffffff1673ffffffffffffffffffffffffffffffffffffffff1673ffffffffffffffffffffffffffffffffffffffff168152602001600182015481526020016002820154815260200160038201548152602001600482015f9054906101000a900460ff166005811115611e9157611e90612bae565b5b6005811115611ea357611ea2612bae565b5b81526020016005820154815260200160068201548152602001600782015481526020016008820154815260200160098201548152602001600a82015f9054906101000a900473ffffffffffffffffffffffffffffffffffffffff1673ffffffffffffffffffffffffffffffffffffffff1673ffffffffffffffffffffffffffffffffffffffff16815250509050919050565b611f3d6124b1565b8060015f6101000a81548173ffffffffffffffffffffffffffffffffffffffff021916908373ffffffffffffffffffffffffffffffffffffffff1602179055508073ffffffffffffffffffffffffffffffffffffffff16611f9c61197e565b73ffffffffffffffffffffffffffffffffffffffff167f38d16b8cac22d99fc7c124b9cd0de2d3fa1faef420bfe791d8c362d765e2270060405160405180910390a350565b5f60025f8481526020019081526020015f20604051806101600160405290815f82015f9054906101000a900473ffffffffffffffffffffffffffffffffffffffff1673ffffffffffffffffffffffffffffffffffffffff1673ffffffffffffffffffffffffffffffffffffffff168152602001600182015481526020016002820154815260200160038201548152602001600482015f9054906101000a900460ff16600581111561209557612094612bae565b5b60058111156120a7576120a6612bae565b5b81526020016005820154815260200160068201548152602001600782015481526020016008820154815260200160098201548152602001600a82015f9054906101000a900473ffffffffffffffffffffffffffffffffffffffff1673ffffffffffffffffffffffffffffffffffffffff1673ffffffffffffffffffffffffffffffffffffffff168152505090506001600581111561214857612147612bae565b5b8160800151600581111561215f5761215e612bae565b5b14612196576040517f5693f4ab00000000000000000000000000000000000000000000000000000000815260040160405180910390fd5b5f82036121cf576040517ff9ded5be00000000000000000000000000000000000000000000000000000000815260040160405180910390fd5b6121dc81606001516123f3565b821015612215576040517f1ae700d200000000000000000000000000000000000000000000000000000000815260040160405180910390fd5b6122238160c001513361256f565b612259576040517f4b9adc8100000000000000000000000000000000000000000000000000000000815260040160405180910390fd5b5f8160400151826020015161226e9190612f2a565b9050808311156122aa576040517f612d122900000000000000000000000000000000000000000000000000000000815260040160405180910390fd5b5f670de0b6b3a76400008360600151856122c49190612f5d565b6122ce9190612fcb565b90508260400151846122e09190612ef7565b60025f8781526020019081526020015f20600201819055506123453330837f000000000000000000000000000000000000000000000000000000000000000073ffffffffffffffffffffffffffffffffffffffff1661239e909392919063ffffffff16565b6123733385855f015173ffffffffffffffffffffffffffffffffffffffff1661245e9092919063ffffffff16565b5050505050565b7f000000000000000000000000000000000000000000000000000000000000000081565b6123ac84848484600161261b565b6123ed57836040517f5274afe70000000000000000000000000000000000000000000000000000000081526004016123e49190612ac3565b60405180910390fd5b50505050565b5f817f00000000000000000000000000000000000000000000000000000000000000007f0000000000000000000000000000000000000000000000000000000000000000600a6124439190613169565b61244d9190612f5d565b6124579190612fcb565b9050919050565b61246b838383600161268c565b6124ac57826040517f5274afe70000000000000000000000000000000000000000000000000000000081526004016124a39190612ac3565b60405180910390fd5b505050565b6124b9612568565b73ffffffffffffffffffffffffffffffffffffffff166124d761197e565b73ffffffffffffffffffffffffffffffffffffffff1614612536576124fa612568565b6040517f118cdaa700000000000000000000000000000000000000000000000000000000815260040161252d9190612ac3565b60405180910390fd5b565b60015f6101000a81549073ffffffffffffffffffffffffffffffffffffffff0219169055612565816126ee565b50565b5f33905090565b5f807f000000000000000000000000000000000000000000000000000000000000000073ffffffffffffffffffffffffffffffffffffffff16631959a002846040518263ffffffff1660e01b81526004016125ca9190612ac3565b608060405180830381865afa1580156125e5573d5f803e3d5ffd5b505050506040513d601f19601f8201168201806040525081019061260991906132b4565b905083815f0151101591505092915050565b5f806323b872dd60e01b9050604051815f525f1960601c87166004525f1960601c86166024528460445260205f60645f808c5af1925060015f5114831661267957838315161561266d573d5f823e3d81fd5b5f883b113d1516831692505b806040525f606052505095945050505050565b5f8063a9059cbb60e01b9050604051815f525f1960601c86166004528460245260205f60445f808b5af1925060015f511483166126e05783831516156126d4573d5f823e3d81fd5b5f873b113d1516831692505b806040525050949350505050565b5f805f9054906101000a900473ffffffffffffffffffffffffffffffffffffffff169050815f806101000a81548173ffffffffffffffffffffffffffffffffffffffff021916908373ffffffffffffffffffffffffffffffffffffffff1602179055508173ffffffffffffffffffffffffffffffffffffffff168173ffffffffffffffffffffffffffffffffffffffff167f8be0079c531659141344cd1fd0a4f28419497f9722a3daafe3b4186f6b6457e060405160405180910390a35050565b6040518061016001604052805f73ffffffffffffffffffffffffffffffffffffffff1681526020015f81526020015f81526020015f81526020015f60058111156127fc576127fb612bae565b5b81526020015f81526020015f81526020015f81526020015f81526020015f81526020015f73ffffffffffffffffffffffffffffffffffffffff1681525090565b5f819050919050565b61284e8161283c565b82525050565b5f6020820190506128675f830184612845565b92915050565b5f60ff82169050919050565b6128828161286d565b82525050565b5f60208201905061289b5f830184612879565b92915050565b5f604051905090565b5f80fd5b5f73ffffffffffffffffffffffffffffffffffffffff82169050919050565b5f6128d7826128ae565b9050919050565b6128e7816128cd565b81146128f1575f80fd5b50565b5f81359050612902816128de565b92915050565b6129118161283c565b811461291b575f80fd5b50565b5f8135905061292c81612908565b92915050565b5f805f805f805f60e0888a03121561294d5761294c6128aa565b5b5f61295a8a828b016128f4565b975050602061296b8a828b0161291e565b965050604061297c8a828b0161291e565b955050606061298d8a828b0161291e565b945050608061299e8a828b0161291e565b93505060a06129af8a828b0161291e565b92505060c06129c08a828b016128f4565b91505092959891949750929550565b5f819050919050565b5f6129f26129ed6129e8846128ae565b6129cf565b6128ae565b9050919050565b5f612a03826129d8565b9050919050565b5f612a14826129f9565b9050919050565b612a2481612a0a565b82525050565b5f602082019050612a3d5f830184612a1b565b92915050565b5f819050919050565b612a5581612a43565b8114612a5f575f80fd5b50565b5f81359050612a7081612a4c565b92915050565b5f8060408385031215612a8c57612a8b6128aa565b5b5f612a9985828601612a62565b9250506020612aaa8582860161291e565b9150509250929050565b612abd816128cd565b82525050565b5f602082019050612ad65f830184612ab4565b92915050565b5f805f60608486031215612af357612af26128aa565b5b5f612b0086828701612a62565b9350506020612b118682870161291e565b9250506040612b228682870161291e565b9150509250925092565b5f612b36826129f9565b9050919050565b612b4681612b2c565b82525050565b5f602082019050612b5f5f830184612b3d565b92915050565b5f60208284031215612b7a57612b796128aa565b5b5f612b8784828501612a62565b91505092915050565b612b99816128cd565b82525050565b612ba88161283c565b82525050565b7f4e487b71000000000000000000000000000000000000000000000000000000005f52602160045260245ffd5b60068110612bec57612beb612bae565b5b50565b5f819050612bfc82612bdb565b919050565b5f612c0b82612bef565b9050919050565b612c1b81612c01565b82525050565b61016082015f820151612c365f850182612b90565b506020820151612c496020850182612b9f565b506040820151612c5c6040850182612b9f565b506060820151612c6f6060850182612b9f565b506080820151612c826080850182612c12565b5060a0820151612c9560a0850182612b9f565b5060c0820151612ca860c0850182612b9f565b5060e0820151612cbb60e0850182612b9f565b50610100820151612cd0610100850182612b9f565b50610120820151612ce5610120850182612b9f565b50610140820151612cfa610140850182612b90565b50505050565b5f61016082019050612d145f830184612c21565b92915050565b5f60208284031215612d2f57612d2e6128aa565b5b5f612d3c848285016128f4565b91505092915050565b5f8160601b9050919050565b5f612d5b82612d45565b9050919050565b5f612d6c82612d51565b9050919050565b612d84612d7f826128cd565b612d62565b82525050565b5f819050919050565b612da4612d9f8261283c565b612d8a565b82525050565b5f612db58286612d73565b601482019150612dc58285612d93565b602082019150612dd58284612d93565b602082019150819050949350505050565b5f604082019050612df95f830185612ab4565b612e066020830184612845565b9392505050565b5f8115159050919050565b612e2181612e0d565b8114612e2b575f80fd5b50565b5f81519050612e3c81612e18565b92915050565b5f60208284031215612e5757612e566128aa565b5b5f612e6484828501612e2e565b91505092915050565b612e7681612a43565b82525050565b5f604082019050612e8f5f830185612ab4565b612e9c6020830184612e6d565b9392505050565b5f604082019050612eb65f830185612845565b612ec36020830184612845565b9392505050565b7f4e487b71000000000000000000000000000000000000000000000000000000005f52601160045260245ffd5b5f612f018261283c565b9150612f0c8361283c565b9250828201905080821115612f2457612f23612eca565b5b92915050565b5f612f348261283c565b9150612f3f8361283c565b9250828203905081811115612f5757612f56612eca565b5b92915050565b5f612f678261283c565b9150612f728361283c565b9250828202612f808161283c565b91508282048414831517612f9757612f96612eca565b5b5092915050565b7f4e487b71000000000000000000000000000000000000000000000000000000005f52601260045260245ffd5b5f612fd58261283c565b9150612fe08361283c565b925082612ff057612fef612f9e565b5b828204905092915050565b5f8151905061300981612908565b92915050565b5f60208284031215613024576130236128aa565b5b5f61303184828501612ffb565b91505092915050565b5f8160011c9050919050565b5f808291508390505b600185111561308f5780860481111561306b5761306a612eca565b5b600185161561307a5780820291505b80810290506130888561303a565b945061304f565b94509492505050565b5f826130a75760019050613162565b816130b4575f9050613162565b81600181146130ca57600281146130d457613103565b6001915050613162565b60ff8411156130e6576130e5612eca565b5b8360020a9150848211156130fd576130fc612eca565b5b50613162565b5060208310610133831016604e8410600b84101617156131385782820a90508381111561313357613132612eca565b5b613162565b6131458484846001613046565b9250905081840481111561315c5761315b612eca565b5b81810290505b9392505050565b5f6131738261283c565b915061317e8361286d565b92506131ab7fffffffffffffffffffffffffffffffffffffffffffffffffffffffffffffffff8484613098565b905092915050565b5f80fd5b5f601f19601f8301169050919050565b7f4e487b71000000000000000000000000000000000000000000000000000000005f52604160045260245ffd5b6131fd826131b7565b810181811067ffffffffffffffff8211171561321c5761321b6131c7565b5b80604052505050565b5f61322e6128a1565b905061323a82826131f4565b919050565b5f60808284031215613254576132536131b3565b5b61325e6080613225565b90505f61326d84828501612ffb565b5f83015250602061328084828501612ffb565b602083015250604061329484828501612ffb565b60408301525060606132a884828501612ffb565b60608301525092915050565b5f608082840312156132c9576132c86128aa565b5b5f6132d68482850161323f565b9150509291505056fea2646970667358221220a4bf7cf5f59c8c516e230f949aa3e9b07424f2bbdd48cb154dc17901aa599d7564736f6c63430008180033","linkReferences":{}},"methodIdentifiers":{"acceptOwnership()":"79ba5097","createuShare(string,string,uint256,(uint256,uint256,uint256,uint256,uint256,bool))":"d980bb75","i_uShareMarket()":"7421533d","i_usdc()":"ff40e1d0","owner()":"8da5cb5b","pendingOwner()":"e30c3978","renounceOwnership()":"715018a6","s_uShareId(address)":"376be447","setuShareId(address,bytes32)":"bde4d946","transferOwnership(address)":"f2fde38b"},"id":68}