{"abi":[{"type":"constructor","inputs":[{"name":"_name","type":"string","internalType":"string"},{"name":"_symbol","type":"string","internalType":"string"},{"name":"_totalSupply","type":"uint256","internalType":"uint256"},{"name":"_market","type":"address","internalType":"address"}],"stateMutability":"nonpayable"},{"type":"function","name":"allowance","inputs":[{"name":"owner","type":"address","internalType":"address"},{"name":"spender","type":"address","internalType":"address"}],"outputs":[{"name":"","type":"uint256","internalType":"uint256"}],"stateMutability":"view"},{"type":"function","name":"approve","inputs":[{"name":"spender","type":"address","internalType":"address"},{"name":"value","type":"uint256","internalType":"uint256"}],"outputs":[{"name":"","type":"bool","internalType":"bool"}],"stateMutability":"nonpayable"},{"type":"function","name":"balanceOf","inputs":[{"name":"account","type":"address","internalType":"address"}],"outputs":[{"name":"","type":"uint256","internalType":"uint256"}],"stateMutability":"view"},{"type":"function","name":"burn","inputs":[{"name":"value","type":"uint256","internalType":"uint256"}],"outputs":[],"stateMutability":"nonpayable"},{"type":"function","name":"burnFrom","inputs":[{"name":"account","type":"address","internalType":"address"},{"name":"value","type":"uint256","internalType":"uint256"}],"outputs":[],"stateMutability":"nonpayable"},{"type":"function","name":"decimals","inputs":[],"outputs":[{"name":"","type":"uint8","internalType":"uint8"}],"stateMutability":"view"},{"type":"function","name":"name","inputs":[],"outputs":[{"name":"","type":"string","internalType":"string"}],"stateMutability":"view"},{"type":"function","name":"symbol","inputs":[],"outputs":[{"name":"","type":"string","internalType":"string"}],"stateMutability":"view"},{"type":"function","name":"totalSupply","inputs":[],"outputs":[{"name":"","type":"uint256","internalType":"uint256"}],"stateMutability":"view"},{"type":"function","name":"transfer","inputs":[{"name":"to","type":"address","internalType":"address"},{"name":"value","type":"uint256","internalType":"uint256"}],"outputs":[{"name":"","type":"bool","internalType":"bool"}],"stateMutability":"nonpayable"},{"type":"function","name":"transferFrom","inputs":[{"name":"from","type":"address","internalType":"address"},{"name":"to","type":"address","internalType":"address"},{"name":"value","type":"uint256","internalType":"uint256"}],"outputs":[{"name":"","type":"bool","internalType":"bool"}],"stateMutability":"nonpayable"},{"type":"event","name":"Approval","inputs":[{"name":"owner","type":"address","indexed":true,"internalType":"address"},{"name":"spender","type":"address","indexed":true,"internalType":"address"},{"name":"value","type":"uint256","indexed":false,"internalType":"uint256"}],"anonymous":false},{"type":"event","name":"Transfer","inputs":[{"name":"from","type":"address","indexed":true,"internalType":"address"},{"name":"to","type":"address","indexed":true,"internalType":"address"},{"name":"value","type":"uint256","indexed":false,"internalType":"uint256"}],"anonymous":false},{"type":"error","name":"ERC20InsufficientAllowance","inputs":[{"name":"spender","type":"address","internalType":"address"},{"name":"allowance","type":"uint256","internalType":"uint256"},{"name":"needed","type":"uint256","internalType":"uint256"}]},{"type":"error","name":"ERC20InsufficientBalance","inputs":[{"name":"sender","type":"address","internalType":"address"},{"name":"balance","type":"uint256","internalType":"uint256"},{"name":"needed","type":"uint256","internalType":"uint256"}]},{"type":"error","name":"ERC20InvalidApprover","inputs":[{"name":"approver","type":"address","internalType":"address"}]},{"type":"error","name":"ERC20InvalidReceiver","inputs":[{"name":"receiver","type":"address","internalType":"address"}]},{"type":"error","name":"ERC20InvalidSender","inputs":[{"name":"sender","type":"address","internalType":"address"}]},{"type":"error","name":"ERC20InvalidSpender","inputs":[{"name":"spender","type":"address","internalType":"address"}]}],"bytecode":{"object":"0x608060405234801562000010575f80fd5b5060405162001b3a38038062001b3a83398181016040528101906200003691906200074b565b8383816003908162000049919062000a26565b5080600490816200005b919062000a26565b5050506200007033836200008d60201b60201c565b620000833382846200011760201b60201c565b5050505062000c04565b5f73ffffffffffffffffffffffffffffffffffffffff168273ffffffffffffffffffffffffffffffffffffffff160362000100575f6040517fec442f05000000000000000000000000000000000000000000000000000000008152600401620000f7919062000b1b565b60405180910390fd5b620001135f83836200013160201b60201c565b5050565b6200012c83838360016200035560201b60201c565b505050565b5f73ffffffffffffffffffffffffffffffffffffffff168373ffffffffffffffffffffffffffffffffffffffff160362000185578060025f82825462000178919062000b63565b9250508190555062000256565b5f805f8573ffffffffffffffffffffffffffffffffffffffff1673ffffffffffffffffffffffffffffffffffffffff1681526020019081526020015f205490508181101562000211578381836040517fe450d38c000000000000000000000000000000000000000000000000000000008152600401620002089392919062000bae565b60405180910390fd5b8181035f808673ffffffffffffffffffffffffffffffffffffffff1673ffffffffffffffffffffffffffffffffffffffff1681526020019081526020015f2081905550505b5f73ffffffffffffffffffffffffffffffffffffffff168273ffffffffffffffffffffffffffffffffffffffff16036200029f578060025f8282540392505081905550620002e9565b805f808473ffffffffffffffffffffffffffffffffffffffff1673ffffffffffffffffffffffffffffffffffffffff1681526020019081526020015f205f82825401925050819055505b8173ffffffffffffffffffffffffffffffffffffffff168373ffffffffffffffffffffffffffffffffffffffff167fddf252ad1be2c89b69c2b068fc378daa952ba7f163c4a11628f55a4df523b3ef8360405162000348919062000be9565b60405180910390a3505050565b5f73ffffffffffffffffffffffffffffffffffffffff168473ffffffffffffffffffffffffffffffffffffffff1603620003c8575f6040517fe602df05000000000000000000000000000000000000000000000000000000008152600401620003bf919062000b1b565b60405180910390fd5b5f73ffffffffffffffffffffffffffffffffffffffff168373ffffffffffffffffffffffffffffffffffffffff16036200043b575f6040517f94280d6200000000000000000000000000000000000000000000000000000000815260040162000432919062000b1b565b60405180910390fd5b8160015f8673ffffffffffffffffffffffffffffffffffffffff1673ffffffffffffffffffffffffffffffffffffffff1681526020019081526020015f205f8573ffffffffffffffffffffffffffffffffffffffff1673ffffffffffffffffffffffffffffffffffffffff1681526020019081526020015f2081905550801562000527578273ffffffffffffffffffffffffffffffffffffffff168473ffffffffffffffffffffffffffffffffffffffff167f8c5be1e5ebec7d5bd14f71427d1e84f3dd0314c0f7b2291e5b200ac8c7c3b925846040516200051e919062000be9565b60405180910390a35b50505050565b5f604051905090565b5f80fd5b5f80fd5b5f80fd5b5f80fd5b5f601f19601f8301169050919050565b7f4e487b71000000000000000000000000000000000000000000000000000000005f52604160045260245ffd5b6200058e8262000546565b810181811067ffffffffffffffff82111715620005b057620005af62000556565b5b80604052505050565b5f620005c46200052d565b9050620005d2828262000583565b919050565b5f67ffffffffffffffff821115620005f457620005f362000556565b5b620005ff8262000546565b9050602081019050919050565b5f5b838110156200062b5780820151818401526020810190506200060e565b5f8484015250505050565b5f6200064c6200064684620005d7565b620005b9565b9050828152602081018484840111156200066b576200066a62000542565b5b620006788482856200060c565b509392505050565b5f82601f8301126200069757620006966200053e565b5b8151620006a984826020860162000636565b91505092915050565b5f819050919050565b620006c681620006b2565b8114620006d1575f80fd5b50565b5f81519050620006e481620006bb565b92915050565b5f73ffffffffffffffffffffffffffffffffffffffff82169050919050565b5f6200071582620006ea565b9050919050565b620007278162000709565b811462000732575f80fd5b50565b5f8151905062000745816200071c565b92915050565b5f805f806080858703121562000766576200076562000536565b5b5f85015167ffffffffffffffff8111156200078657620007856200053a565b5b620007948782880162000680565b945050602085015167ffffffffffffffff811115620007b857620007b76200053a565b5b620007c68782880162000680565b9350506040620007d987828801620006d4565b9250506060620007ec8782880162000735565b91505092959194509250565b5f81519050919050565b7f4e487b71000000000000000000000000000000000000000000000000000000005f52602260045260245ffd5b5f60028204905060018216806200084757607f821691505b6020821081036200085d576200085c62000802565b5b50919050565b5f819050815f5260205f209050919050565b5f6020601f8301049050919050565b5f82821b905092915050565b5f60088302620008c17fffffffffffffffffffffffffffffffffffffffffffffffffffffffffffffffff8262000884565b620008cd868362000884565b95508019841693508086168417925050509392505050565b5f819050919050565b5f6200090e620009086200090284620006b2565b620008e5565b620006b2565b9050919050565b5f819050919050565b6200092983620008ee565b62000941620009388262000915565b84845462000890565b825550505050565b5f90565b6200095762000949565b620009648184846200091e565b505050565b5b818110156200098b576200097f5f826200094d565b6001810190506200096a565b5050565b601f821115620009da57620009a48162000863565b620009af8462000875565b81016020851015620009bf578190505b620009d7620009ce8562000875565b83018262000969565b50505b505050565b5f82821c905092915050565b5f620009fc5f1984600802620009df565b1980831691505092915050565b5f62000a168383620009eb565b9150826002028217905092915050565b62000a3182620007f8565b67ffffffffffffffff81111562000a4d5762000a4c62000556565b5b62000a5982546200082f565b62000a668282856200098f565b5f60209050601f83116001811462000a9c575f841562000a87578287015190505b62000a93858262000a09565b86555062000b02565b601f19841662000aac8662000863565b5f5b8281101562000ad55784890151825560018201915060208501945060208101905062000aae565b8683101562000af5578489015162000af1601f891682620009eb565b8355505b6001600288020188555050505b505050505050565b62000b158162000709565b82525050565b5f60208201905062000b305f83018462000b0a565b92915050565b7f4e487b71000000000000000000000000000000000000000000000000000000005f52601160045260245ffd5b5f62000b6f82620006b2565b915062000b7c83620006b2565b925082820190508082111562000b975762000b9662000b36565b5b92915050565b62000ba881620006b2565b82525050565b5f60608201905062000bc35f83018662000b0a565b62000bd2602083018562000b9d565b62000be1604083018462000b9d565b949350505050565b5f60208201905062000bfe5f83018462000b9d565b92915050565b610f288062000c125f395ff3fe608060405234801561000f575f80fd5b50600436106100a7575f3560e01c806342966c681161006f57806342966c681461016557806370a082311461018157806379cc6790146101b157806395d89b41146101cd578063a9059cbb146101eb578063dd62ed3e1461021b576100a7565b806306fdde03146100ab578063095ea7b3146100c957806318160ddd146100f957806323b872dd14610117578063313ce56714610147575b5f80fd5b6100b361024b565b6040516100c09190610b76565b60405180910390f35b6100e360048036038101906100de9190610c27565b6102db565b6040516100f09190610c7f565b60405180910390f35b6101016102fd565b60405161010e9190610ca7565b60405180910390f35b610131600480360381019061012c9190610cc0565b610306565b60405161013e9190610c7f565b60405180910390f35b61014f610334565b60405161015c9190610d2b565b60405180910390f35b61017f600480360381019061017a9190610d44565b61033c565b005b61019b60048036038101906101969190610d6f565b610350565b6040516101a89190610ca7565b60405180910390f35b6101cb60048036038101906101c69190610c27565b610395565b005b6101d56103b5565b6040516101e29190610b76565b60405180910390f35b61020560048036038101906102009190610c27565b610445565b6040516102129190610c7f565b60405180910390f35b61023560048036038101906102309190610d9a565b610467565b6040516102429190610ca7565b60405180910390f35b60606003805461025a90610e05565b80601f016020809104026020016040519081016040528092919081815260200182805461028690610e05565b80156102d15780601f106102a8576101008083540402835291602001916102d1565b820191905f5260205f20905b8154815290600101906020018083116102b457829003601f168201915b5050505050905090565b5f806102e56104e9565b90506102f28185856104f0565b600191505092915050565b5f600254905090565b5f806103106104e9565b905061031d858285610502565b610328858585610595565b60019150509392505050565b5f6012905090565b61034d6103476104e9565b82610685565b50565b5f805f8373ffffffffffffffffffffffffffffffffffffffff1673ffffffffffffffffffffffffffffffffffffffff1681526020019081526020015f20549050919050565b6103a7826103a16104e9565b83610502565b6103b18282610685565b5050565b6060600480546103c490610e05565b80601f01602080910402602001604051908101604052809291908181526020018280546103f090610e05565b801561043b5780601f106104125761010080835404028352916020019161043b565b820191905f5260205f20905b81548152906001019060200180831161041e57829003601f168201915b5050505050905090565b5f8061044f6104e9565b905061045c818585610595565b600191505092915050565b5f60015f8473ffffffffffffffffffffffffffffffffffffffff1673ffffffffffffffffffffffffffffffffffffffff1681526020019081526020015f205f8373ffffffffffffffffffffffffffffffffffffffff1673ffffffffffffffffffffffffffffffffffffffff1681526020019081526020015f2054905092915050565b5f33905090565b6104fd8383836001610704565b505050565b5f61050d8484610467565b90507fffffffffffffffffffffffffffffffffffffffffffffffffffffffffffffffff81101561058f5781811015610580578281836040517ffb8f41b200000000000000000000000000000000000000000000000000000000815260040161057793929190610e44565b60405180910390fd5b61058e84848484035f610704565b5b50505050565b5f73ffffffffffffffffffffffffffffffffffffffff168373ffffffffffffffffffffffffffffffffffffffff1603610605575f6040517f96c6fd1e0000000000000000000000000000000000000000000000000000000081526004016105fc9190610e79565b60405180910390fd5b5f73ffffffffffffffffffffffffffffffffffffffff168273ffffffffffffffffffffffffffffffffffffffff1603610675575f6040517fec442f0500000000000000000000000000000000000000000000000000000000815260040161066c9190610e79565b60405180910390fd5b6106808383836108d3565b505050565b5f73ffffffffffffffffffffffffffffffffffffffff168273ffffffffffffffffffffffffffffffffffffffff16036106f5575f6040517f96c6fd1e0000000000000000000000000000000000000000000000000000000081526004016106ec9190610e79565b60405180910390fd5b610700825f836108d3565b5050565b5f73ffffffffffffffffffffffffffffffffffffffff168473ffffffffffffffffffffffffffffffffffffffff1603610774575f6040517fe602df0500000000000000000000000000000000000000000000000000000000815260040161076b9190610e79565b60405180910390fd5b5f73ffffffffffffffffffffffffffffffffffffffff168373ffffffffffffffffffffffffffffffffffffffff16036107e4575f6040517f94280d620000000000000000000000000000000000000000000000000000000081526004016107db9190610e79565b60405180910390fd5b8160015f8673ffffffffffffffffffffffffffffffffffffffff1673ffffffffffffffffffffffffffffffffffffffff1681526020019081526020015f205f8573ffffffffffffffffffffffffffffffffffffffff1673ffffffffffffffffffffffffffffffffffffffff1681526020019081526020015f208190555080156108cd578273ffffffffffffffffffffffffffffffffffffffff168473ffffffffffffffffffffffffffffffffffffffff167f8c5be1e5ebec7d5bd14f71427d1e84f3dd0314c0f7b2291e5b200ac8c7c3b925846040516108c49190610ca7565b60405180910390a35b50505050565b5f73ffffffffffffffffffffffffffffffffffffffff168373ffffffffffffffffffffffffffffffffffffffff1603610923578060025f8282546109179190610ebf565b925050819055506109f1565b5f805f8573ffffffffffffffffffffffffffffffffffffffff1673ffffffffffffffffffffffffffffffffffffffff1681526020019081526020015f20549050818110156109ac578381836040517fe450d38c0000000000000000000000000000000000000000000000000000000081526004016109a393929190610e44565b60405180910390fd5b8181035f808673ffffffffffffffffffffffffffffffffffffffff1673ffffffffffffffffffffffffffffffffffffffff1681526020019081526020015f2081905550505b5f73ffffffffffffffffffffffffffffffffffffffff168273ffffffffffffffffffffffffffffffffffffffff1603610a38578060025f8282540392505081905550610a82565b805f808473ffffffffffffffffffffffffffffffffffffffff1673ffffffffffffffffffffffffffffffffffffffff1681526020019081526020015f205f82825401925050819055505b8173ffffffffffffffffffffffffffffffffffffffff168373ffffffffffffffffffffffffffffffffffffffff167fddf252ad1be2c89b69c2b068fc378daa952ba7f163c4a11628f55a4df523b3ef83604051610adf9190610ca7565b60405180910390a3505050565b5f81519050919050565b5f82825260208201905092915050565b5f5b83811015610b23578082015181840152602081019050610b08565b5f8484015250505050565b5f601f19601f8301169050919050565b5f610b4882610aec565b610b528185610af6565b9350610b62818560208601610b06565b610b6b81610b2e565b840191505092915050565b5f6020820190508181035f830152610b8e8184610b3e565b905092915050565b5f80fd5b5f73ffffffffffffffffffffffffffffffffffffffff82169050919050565b5f610bc382610b9a565b9050919050565b610bd381610bb9565b8114610bdd575f80fd5b50565b5f81359050610bee81610bca565b92915050565b5f819050919050565b610c0681610bf4565b8114610c10575f80fd5b50565b5f81359050610c2181610bfd565b92915050565b5f8060408385031215610c3d57610c3c610b96565b5b5f610c4a85828601610be0565b9250506020610c5b85828601610c13565b9150509250929050565b5f8115159050919050565b610c7981610c65565b82525050565b5f602082019050610c925f830184610c70565b92915050565b610ca181610bf4565b82525050565b5f602082019050610cba5f830184610c98565b92915050565b5f805f60608486031215610cd757610cd6610b96565b5b5f610ce486828701610be0565b9350506020610cf586828701610be0565b9250506040610d0686828701610c13565b9150509250925092565b5f60ff82169050919050565b610d2581610d10565b82525050565b5f602082019050610d3e5f830184610d1c565b92915050565b5f60208284031215610d5957610d58610b96565b5b5f610d6684828501610c13565b91505092915050565b5f60208284031215610d8457610d83610b96565b5b5f610d9184828501610be0565b91505092915050565b5f8060408385031215610db057610daf610b96565b5b5f610dbd85828601610be0565b9250506020610dce85828601610be0565b9150509250929050565b7f4e487b71000000000000000000000000000000000000000000000000000000005f52602260045260245ffd5b5f6002820490506001821680610e1c57607f821691505b602082108103610e2f57610e2e610dd8565b5b50919050565b610e3e81610bb9565b82525050565b5f606082019050610e575f830186610e35565b610e646020830185610c98565b610e716040830184610c98565b949350505050565b5f602082019050610e8c5f830184610e35565b92915050565b7f4e487b71000000000000000000000000000000000000000000000000000000005f52601160045260245ffd5b5f610ec982610bf4565b9150610ed483610bf4565b9250828201905080821115610eec57610eeb610e92565b5b9291505056fea264697066735822122030c15a75feb32358a640e57c56a6e9bf174cfc6c1990a52a81c876d006ea9b2364736f6c63430008180033","linkReferences":{}},"methodIdentifiers":{"allowance(address,address)":"dd62ed3e","approve(address,uint256)":"095ea7b3","balanceOf(address)":"70a08231","burn(uint256)":"42966c68","burnFrom(address,uint256)":"79cc6790","decimals()":"313ce567","name()":"06fdde03","symbol()":"95d89b41","totalSupply()":"18160ddd","transfer(address,uint256)":"a9059cbb","transferFrom(address,address,uint256)":"23b872dd"},"id":67}