{"abi":[{"type":"constructor","inputs":[{"name":"_usdc","type":"address","internalType":"address"},{"name":"_uranoToken","type":"address","internalType":"address"},{"name":"_owner","type":"address","internalType":"address"},{"name":"_staking","type":"address","internalType":"address"}],"stateMutability":"nonpayable"},{"type":"function","name":"PRE_SALE_DURATION","inputs":[],"outputs":[{"name":"","type":"uint256","internalType":"uint256"}],"stateMutability":"view"},{"type":"function","name":"USHARE_DECIMAL_PRECISION","inputs":[],"outputs":[{"name":"","type":"uint256","internalType":"uint256"}],"stateMutability":"view"},{"type":"function","name":"acceptOwnership","inputs":[],"outputs":[],"stateMutability":"nonpayable"},{"type":"function","name":"addCashflow","inputs":[{"name":"_uShareId","type":"bytes32","internalType":"bytes32"},{"name":"_amountOfUSDC","type":"uint256","internalType":"uint256"},{"name":"_distributionDuration","type":"uint256","internalType":"uint256"}],"outputs":[],"stateMutability":"nonpayable"},{"type":"function","name":"buyuShare","inputs":[{"name":"_uShareId","type":"bytes32","internalType":"bytes32"},{"name":"_amount","type":"uint256","internalType":"uint256"}],"outputs":[],"stateMutability":"nonpayable"},{"type":"function","name":"buyuShareOnPreSale","inputs":[{"name":"_uShareId","type":"bytes32","internalType":"bytes32"},{"name":"_amount","type":"uint256","internalType":"uint256"}],"outputs":[],"stateMutability":"nonpayable"},{"type":"function","name":"claimRedistribution","inputs":[{"name":"_uShareId","type":"bytes32","internalType":"bytes32"},{"name":"_amountOfShares","type":"uint256","internalType":"uint256"}],"outputs":[],"stateMutability":"nonpayable"},{"type":"function","name":"closeuShareSaleAndWithdrawUsdc","inputs":[{"name":"_uShareId","type":"bytes32","internalType":"bytes32"}],"outputs":[],"stateMutability":"nonpayable"},{"type":"function","name":"createRedistribution","inputs":[{"name":"_uShareId","type":"bytes32","internalType":"bytes32"},{"name":"_amountOfUSDCProfits","type":"uint256","internalType":"uint256"}],"outputs":[],"stateMutability":"nonpayable"},{"type":"function","name":"createuShareSale","inputs":[{"name":"_uShareToken","type":"address","internalType":"address"},{"name":"_uShareAmount","type":"uint256","internalType":"uint256"},{"name":"_uSharePriceInUSDC","type":"uint256","internalType":"uint256"},{"name":"_minUranoAmountForPreSale","type":"uint256","internalType":"uint256"},{"name":"_snapshotBlock","type":"uint256","internalType":"uint256"},{"name":"_saleDuration","type":"uint256","internalType":"uint256"},{"name":"_uStaking","type":"address","internalType":"address"}],"outputs":[],"stateMutability":"nonpayable"},{"type":"function","name":"getuShareInfo","inputs":[{"name":"_uShareId","type":"bytes32","internalType":"bytes32"}],"outputs":[{"name":"","type":"tuple","internalType":"struct uShareMarket.uShare","components":[{"name":"uShareToken","type":"address","internalType":"address"},{"name":"uShareAmount","type":"uint256","internalType":"uint256"},{"name":"uShareSold","type":"uint256","internalType":"uint256"},{"name":"uSharePrice","type":"uint256","internalType":"uint256"},{"name":"status","type":"uint8","internalType":"enum uShareMarket.uShareStatus"},{"name":"startTime","type":"uint256","internalType":"uint256"},{"name":"minUranoAmountForPreSale","type":"uint256","internalType":"uint256"},{"name":"snapshotBlock","type":"uint256","internalType":"uint256"},{"name":"saleDuration","type":"uint256","internalType":"uint256"},{"name":"amountOfUSDCProfits","type":"uint256","internalType":"uint256"},{"name":"uStaking","type":"address","internalType":"address"}]}],"stateMutability":"view"},{"type":"function","name":"i_minuShareAmountForOneUSDC","inputs":[],"outputs":[{"name":"","type":"uint256","internalType":"uint256"}],"stateMutability":"view"},{"type":"function","name":"i_staking","inputs":[],"outputs":[{"name":"","type":"address","internalType":"contract Staking"}],"stateMutability":"view"},{"type":"function","name":"i_uShareFactory","inputs":[],"outputs":[{"name":"","type":"address","internalType":"address"}],"stateMutability":"view"},{"type":"function","name":"i_uranoToken","inputs":[],"outputs":[{"name":"","type":"address","internalType":"contract UranoToken"}],"stateMutability":"view"},{"type":"function","name":"i_usdc","inputs":[],"outputs":[{"name":"","type":"address","internalType":"address"}],"stateMutability":"view"},{"type":"function","name":"i_usdcDecimals","inputs":[],"outputs":[{"name":"","type":"uint8","internalType":"uint8"}],"stateMutability":"view"},{"type":"function","name":"owner","inputs":[],"outputs":[{"name":"","type":"address","internalType":"address"}],"stateMutability":"view"},{"type":"function","name":"pendingOwner","inputs":[],"outputs":[{"name":"","type":"address","internalType":"address"}],"stateMutability":"view"},{"type":"function","name":"renounceOwnership","inputs":[],"outputs":[],"stateMutability":"nonpayable"},{"type":"function","name":"transferOwnership","inputs":[{"name":"newOwner","type":"address","internalType":"address"}],"outputs":[],"stateMutability":"nonpayable"},{"type":"event","name":"CashflowAdded","inputs":[{"name":"uShareId","type":"bytes32","indexed":true,"internalType":"bytes32"},{"name":"amountOfUSDC","type":"uint256","indexed":true,"internalType":"uint256"},{"name":"distributionDuration","type":"uint256","indexed":true,"internalType":"uint256"}],"anonymous":false},{"type":"event","name":"OwnershipTransferStarted","inputs":[{"name":"previousOwner","type":"address","indexed":true,"internalType":"address"},{"name":"newOwner","type":"address","indexed":true,"internalType":"address"}],"anonymous":false},{"type":"event","name":"OwnershipTransferred","inputs":[{"name":"previousOwner","type":"address","indexed":true,"internalType":"address"},{"name":"newOwner","type":"address","indexed":true,"internalType":"address"}],"anonymous":false},{"type":"event","name":"RedistributionClaimed","inputs":[{"name":"uShareId","type":"bytes32","indexed":true,"internalType":"bytes32"},{"name":"amountOfShares","type":"uint256","indexed":true,"internalType":"uint256"},{"name":"amountOfUSDCProfits","type":"uint256","indexed":true,"internalType":"uint256"}],"anonymous":false},{"type":"event","name":"RedistributionClosed","inputs":[{"name":"uShareId","type":"bytes32","indexed":true,"internalType":"bytes32"}],"anonymous":false},{"type":"event","name":"RedistributionCreated","inputs":[{"name":"uShareId","type":"bytes32","indexed":true,"internalType":"bytes32"},{"name":"amountOfUSDCProfits","type":"uint256","indexed":true,"internalType":"uint256"}],"anonymous":false},{"type":"event","name":"UsdcWithdrawn","inputs":[{"name":"amount","type":"uint256","indexed":true,"internalType":"uint256"},{"name":"uShareId","type":"bytes32","indexed":true,"internalType":"bytes32"}],"anonymous":false},{"type":"event","name":"uShareSaleClosed","inputs":[{"name":"uShareId","type":"bytes32","indexed":true,"internalType":"bytes32"}],"anonymous":false},{"type":"event","name":"uShareSaleCompleted","inputs":[{"name":"uShareId","type":"bytes32","indexed":true,"internalType":"bytes32"}],"anonymous":false},{"type":"event","name":"uShareSaleCreated","inputs":[{"name":"uShareId","type":"bytes32","indexed":true,"internalType":"bytes32"},{"name":"uShareToken","type":"address","indexed":true,"internalType":"address"},{"name":"uShareAmount","type":"uint256","indexed":false,"internalType":"uint256"},{"name":"uSharePrice","type":"uint256","indexed":false,"internalType":"uint256"}],"anonymous":false},{"type":"error","name":"OwnableInvalidOwner","inputs":[{"name":"owner","type":"address","internalType":"address"}]},{"type":"error","name":"OwnableUnauthorizedAccount","inputs":[{"name":"account","type":"address","internalType":"address"}]},{"type":"error","name":"SafeERC20FailedOperation","inputs":[{"name":"token","type":"address","internalType":"address"}]},{"type":"error","name":"uShareMarket__CashflowStillActive","inputs":[]},{"type":"error","name":"uShareMarket__InsufficientUsdcBalance","inputs":[]},{"type":"error","name":"uShareMarket__InsufficientuShareAmount","inputs":[]},{"type":"error","name":"uShareMarket__InvalidAmountInStaking","inputs":[]},{"type":"error","name":"uShareMarket__InvalidAmountOfUSDCProfits","inputs":[]},{"type":"error","name":"uShareMarket__InvaliduShareAmount","inputs":[]},{"type":"error","name":"uShareMarket__InvaliduShareId","inputs":[]},{"type":"error","name":"uShareMarket__InvaliduSharePrice","inputs":[]},{"type":"error","name":"uShareMarket__InvaliduShareToken","inputs":[]},{"type":"error","name":"uShareMarket__NoCashflow","inputs":[]},{"type":"error","name":"uShareMarket__NotuShareFactory","inputs":[]},{"type":"error","name":"uShareMarket__RedistributionNotActive","inputs":[]},{"type":"error","name":"uShareMarket__SaleNotEnded","inputs":[]},{"type":"error","name":"uShareMarket__TooSmalluShareAmount","inputs":[]},{"type":"error","name":"uShareMarket__ZeroAmount","inputs":[]},{"type":"error","name":"uShareMarket__uShareNotActive","inputs":[]},{"type":"error","name":"uShareMarket__uSharePublicSaleNotStarted","inputs":[]}],"bytecode":{"object":"0x61014060405234801562000011575f80fd5b5060405162003a9338038062003a938339818101604052810190620000379190620003a2565b815f73ffffffffffffffffffffffffffffffffffffffff168173ffffffffffffffffffffffffffffffffffffffff1603620000ab575f6040517f1e4fbdf7000000000000000000000000000000000000000000000000000000008152600401620000a2919062000422565b60405180910390fd5b620000bc816200024460201b60201c565b503373ffffffffffffffffffffffffffffffffffffffff1660808173ffffffffffffffffffffffffffffffffffffffff16815250508373ffffffffffffffffffffffffffffffffffffffff1660a08173ffffffffffffffffffffffffffffffffffffffff16815250508373ffffffffffffffffffffffffffffffffffffffff1663313ce5676040518163ffffffff1660e01b8152600401602060405180830381865afa1580156200016f573d5f803e3d5ffd5b505050506040513d601f19601f8201168201806040525081019062000195919062000478565b60ff166101008160ff168152505061010051600a620001b591906200062e565b670de0b6b3a7640000620001ca9190620006ab565b61012081815250508273ffffffffffffffffffffffffffffffffffffffff1660c08173ffffffffffffffffffffffffffffffffffffffff16815250508073ffffffffffffffffffffffffffffffffffffffff1660e08173ffffffffffffffffffffffffffffffffffffffff168152505050505050620006e2565b60015f6101000a81549073ffffffffffffffffffffffffffffffffffffffff021916905562000279816200027c60201b60201c565b50565b5f805f9054906101000a900473ffffffffffffffffffffffffffffffffffffffff169050815f806101000a81548173ffffffffffffffffffffffffffffffffffffffff021916908373ffffffffffffffffffffffffffffffffffffffff1602179055508173ffffffffffffffffffffffffffffffffffffffff168173ffffffffffffffffffffffffffffffffffffffff167f8be0079c531659141344cd1fd0a4f28419497f9722a3daafe3b4186f6b6457e060405160405180910390a35050565b5f80fd5b5f73ffffffffffffffffffffffffffffffffffffffff82169050919050565b5f6200036c8262000341565b9050919050565b6200037e8162000360565b811462000389575f80fd5b50565b5f815190506200039c8162000373565b92915050565b5f805f8060808587031215620003bd57620003bc6200033d565b5b5f620003cc878288016200038c565b9450506020620003df878288016200038c565b9350506040620003f2878288016200038c565b925050606062000405878288016200038c565b91505092959194509250565b6200041c8162000360565b82525050565b5f602082019050620004375f83018462000411565b92915050565b5f60ff82169050919050565b62000454816200043d565b81146200045f575f80fd5b50565b5f81519050620004728162000449565b92915050565b5f6020828403121562000490576200048f6200033d565b5b5f6200049f8482850162000462565b91505092915050565b7f4e487b71000000000000000000000000000000000000000000000000000000005f52601160045260245ffd5b5f8160011c9050919050565b5f808291508390505b600185111562000532578086048111156200050a5762000509620004a8565b5b60018516156200051a5780820291505b80810290506200052a85620004d5565b9450620004ea565b94509492505050565b5f826200054c57600190506200061e565b816200055b575f90506200061e565b81600181146200057457600281146200057f57620005b5565b60019150506200061e565b60ff841115620005945762000593620004a8565b5b8360020a915084821115620005ae57620005ad620004a8565b5b506200061e565b5060208310610133831016604e8410600b8410161715620005ef5782820a905083811115620005e957620005e8620004a8565b5b6200061e565b620005fe8484846001620004e1565b92509050818404811115620006185762000617620004a8565b5b81810290505b9392505050565b5f819050919050565b5f6200063a8262000625565b915062000647836200043d565b9250620006767fffffffffffffffffffffffffffffffffffffffffffffffffffffffffffffffff84846200053b565b905092915050565b7f4e487b71000000000000000000000000000000000000000000000000000000005f52601260045260245ffd5b5f620006b78262000625565b9150620006c48362000625565b925082620006d757620006d66200067e565b5b828204905092915050565b60805160a05160c05160e05161010051610120516133156200077e5f395f818161091b01526123f701525f8181610397015261241801525f818161157c015261257301525f6108f701525f818161075001528181610c360152818161108e01528181611405015281816118d901528181611c5401528181612300015261237c01525f81816103bb0152818161080d015261110801526133155ff3fe608060405234801561000f575f80fd5b5060043610610135575f3560e01c806377130fe3116100b6578063d5bd20851161007a578063d5bd2085146102c9578063e30c3978146102e5578063f201287714610303578063f2fde38b14610333578063fe52529a1461034f578063ff40e1d01461036b57610135565b806377130fe31461024b57806379ba5097146102675780638436c8ff146102715780638a4bc0371461028f5780638da5cb5b146102ab57610135565b80633f930941116100fd5780633f930941146101cd5780633fc35553146101eb57806342e95e4c1461020757806357e0acc714610223578063715018a61461024157610135565b8063019a40f4146101395780630de78d32146101575780632139e2a91461017557806323f9d589146101915780632fa9f6a5146101af575b5f80fd5b610141610389565b60405161014e9190612854565b60405180910390f35b61015f610395565b60405161016c9190612888565b60405180910390f35b61018f600480360381019061018a9190612932565b6103b9565b005b6101996108ee565b6040516101a69190612854565b60405180910390f35b6101b76108f5565b6040516101c49190612a2a565b60405180910390f35b6101d5610919565b6040516101e29190612854565b60405180910390f35b61020560048036038101906102009190612a76565b61093d565b005b610221600480360381019061021c9190612a76565b610cb0565b005b61022b611106565b6040516102389190612ac3565b60405180910390f35b61024961112a565b005b61026560048036038101906102609190612adc565b61113d565b005b61026f6114ec565b005b61027961157a565b6040516102869190612b4c565b60405180910390f35b6102a960048036038101906102a49190612b65565b61159e565b005b6102b361197e565b6040516102c09190612ac3565b60405180910390f35b6102e360048036038101906102de9190612a76565b6119a5565b005b6102ed611dae565b6040516102fa9190612ac3565b60405180910390f35b61031d60048036038101906103189190612b65565b611dd6565b60405161032a9190612d00565b60405180910390f35b61034d60048036038101906103489190612d1a565b611f35565b005b61036960048036038101906103649190612a76565b611fe1565b005b61037361237a565b6040516103809190612ac3565b60405180910390f35b670de0b6b3a764000081565b7f000000000000000000000000000000000000000000000000000000000000000081565b7f000000000000000000000000000000000000000000000000000000000000000073ffffffffffffffffffffffffffffffffffffffff163373ffffffffffffffffffffffffffffffffffffffff161461043e576040517f9d2e98ca00000000000000000000000000000000000000000000000000000000815260040160405180910390fd5b5f73ffffffffffffffffffffffffffffffffffffffff168773ffffffffffffffffffffffffffffffffffffffff16036104a3576040517facaa94cc00000000000000000000000000000000000000000000000000000000815260040160405180910390fd5b5f86036104dc576040517ff9ded5be00000000000000000000000000000000000000000000000000000000815260040160405180910390fd5b5f8503610515576040517f44883d7800000000000000000000000000000000000000000000000000000000815260040160405180910390fd5b5f87878760405160200161052b93929190612daa565b6040516020818303038152906040528051906020012090506040518061016001604052808973ffffffffffffffffffffffffffffffffffffffff1681526020018881526020015f81526020018781526020016001600581111561059157610590612bae565b5b81526020014281526020018681526020018581526020018481526020015f81526020018373ffffffffffffffffffffffffffffffffffffffff1681525060025f8381526020019081526020015f205f820151815f015f6101000a81548173ffffffffffffffffffffffffffffffffffffffff021916908373ffffffffffffffffffffffffffffffffffffffff1602179055506020820151816001015560408201518160020155606082015181600301556080820151816004015f6101000a81548160ff0219169083600581111561066b5761066a612bae565b5b021790555060a0820151816005015560c0820151816006015560e082015181600701556101008201518160080155610120820151816009015561014082015181600a015f6101000a81548173ffffffffffffffffffffffffffffffffffffffff021916908373ffffffffffffffffffffffffffffffffffffffff16021790555090505061071b3330898b73ffffffffffffffffffffffffffffffffffffffff1661239e909392919063ffffffff16565b5f73ffffffffffffffffffffffffffffffffffffffff168273ffffffffffffffffffffffffffffffffffffffff161461080b577f000000000000000000000000000000000000000000000000000000000000000073ffffffffffffffffffffffffffffffffffffffff1663095ea7b3837fffffffffffffffffffffffffffffffffffffffffffffffffffffffffffffffff6040518363ffffffff1660e01b81526004016107c9929190612de6565b6020604051808303815f875af11580156107e5573d5f803e3d5ffd5b505050506040513d601f19601f820116820180604052508101906108099190612e42565b505b7f000000000000000000000000000000000000000000000000000000000000000073ffffffffffffffffffffffffffffffffffffffff1663bde4d94689836040518363ffffffff1660e01b8152600401610866929190612e7c565b5f604051808303815f87803b15801561087d575f80fd5b505af115801561088f573d5f803e3d5ffd5b505050508773ffffffffffffffffffffffffffffffffffffffff16817fce40d4a797dc4606926684f9bab9c4109fd74028ef4a36a4f577a375300351cc89896040516108dc929190612ea3565b60405180910390a35050505050505050565b6202a30081565b7f000000000000000000000000000000000000000000000000000000000000000081565b7f000000000000000000000000000000000000000000000000000000000000000081565b5f60025f8481526020019081526020015f20604051806101600160405290815f82015f9054906101000a900473ffffffffffffffffffffffffffffffffffffffff1673ffffffffffffffffffffffffffffffffffffffff1673ffffffffffffffffffffffffffffffffffffffff168152602001600182015481526020016002820154815260200160038201548152602001600482015f9054906101000a900460ff1660058111156109f1576109f0612bae565b5b6005811115610a0357610a02612bae565b5b81526020016005820154815260200160068201548152602001600782015481526020016008820154815260200160098201548152602001600a82015f9054906101000a900473ffffffffffffffffffffffffffffffffffffffff1673ffffffffffffffffffffffffffffffffffffffff1673ffffffffffffffffffffffffffffffffffffffff168152505090506202a3008160a00151610aa39190612ef7565b421015610adc576040517fef262bda00000000000000000000000000000000000000000000000000000000815260040160405180910390fd5b60016005811115610af057610aef612bae565b5b81608001516005811115610b0757610b06612bae565b5b14610b3e576040517f5693f4ab00000000000000000000000000000000000000000000000000000000815260040160405180910390fd5b5f8203610b77576040517ff9ded5be00000000000000000000000000000000000000000000000000000000815260040160405180910390fd5b5f81604001518260200151610b8c9190612f2a565b905080831115610b9a578092505b610ba782606001516123f3565b831015610be0576040517f1ae700d200000000000000000000000000000000000000000000000000000000815260040160405180910390fd5b5f670de0b6b3a7640000836060015185610bfa9190612f5d565b610c049190612fcb565b9050826040015184610c169190612ef7565b60025f8781526020019081526020015f2060020181905550610c7b3330837f000000000000000000000000000000000000000000000000000000000000000073ffffffffffffffffffffffffffffffffffffffff1661239e909392919063ffffffff16565b610ca93385855f015173ffffffffffffffffffffffffffffffffffffffff1661245e9092919063ffffffff16565b5050505050565b610cb86124b1565b5f801b8203610cf3576040517f04f7c90400000000000000000000000000000000000000000000000000000000815260040160405180910390fd5b5f8103610d2c576040517f3f375cad00000000000000000000000000000000000000000000000000000000815260040160405180910390fd5b5f60025f8481526020019081526020015f20604051806101600160405290815f82015f9054906101000a900473ffffffffffffffffffffffffffffffffffffffff1673ffffffffffffffffffffffffffffffffffffffff1673ffffffffffffffffffffffffffffffffffffffff168152602001600182015481526020016002820154815260200160038201548152602001600482015f9054906101000a900460ff166005811115610de057610ddf612bae565b5b6005811115610df257610df1612bae565b5b81526020016005820154815260200160068201548152602001600782015481526020016008820154815260200160098201548152602001600a82015f9054906101000a900473ffffffffffffffffffffffffffffffffffffffff1673ffffffffffffffffffffffffffffffffffffffff1673ffffffffffffffffffffffffffffffffffffffff168152505090505f73ffffffffffffffffffffffffffffffffffffffff1681610140015173ffffffffffffffffffffffffffffffffffffffff1614610fce5780610140015173ffffffffffffffffffffffffffffffffffffffff16630e39673d6040518163ffffffff1660e01b8152600401602060405180830381865afa158015610f05573d5f803e3d5ffd5b505050506040513d601f19601f82011682018060405250810190610f299190612e42565b80610f92575060026005811115610f4357610f42612bae565b5b81608001516005811115610f5a57610f59612bae565b5b14158015610f91575060036005811115610f7757610f76612bae565b5b81608001516005811115610f8e57610f8d612bae565b5b14155b5b15610fc9576040517f9727484600000000000000000000000000000000000000000000000000000000815260040160405180910390fd5b611031565b60026005811115610fe257610fe1612bae565b5b81608001516005811115610ff957610ff8612bae565b5b14611030576040517fd1c92ac700000000000000000000000000000000000000000000000000000000815260040160405180910390fd5b5b600460025f8581526020019081526020015f206004015f6101000a81548160ff0219169083600581111561106857611067612bae565b5b02179055508160025f8581526020019081526020015f20600901819055506110d33330847f000000000000000000000000000000000000000000000000000000000000000073ffffffffffffffffffffffffffffffffffffffff1661239e909392919063ffffffff16565b81837f35d370c3755731f350557bb89d4fed48ff675ad80293da87e45ec9ef20fa399f60405160405180910390a3505050565b7f000000000000000000000000000000000000000000000000000000000000000081565b6111326124b1565b61113b5f612538565b565b6111456124b1565b5f60025f8581526020019081526020015f20604051806101600160405290815f82015f9054906101000a900473ffffffffffffffffffffffffffffffffffffffff1673ffffffffffffffffffffffffffffffffffffffff1673ffffffffffffffffffffffffffffffffffffffff168152602001600182015481526020016002820154815260200160038201548152602001600482015f9054906101000a900460ff1660058111156111f9576111f8612bae565b5b600581111561120b5761120a612bae565b5b81526020016005820154815260200160068201548152602001600782015481526020016008820154815260200160098201548152602001600a82015f9054906101000a900473ffffffffffffffffffffffffffffffffffffffff1673ffffffffffffffffffffffffffffffffffffffff1673ffffffffffffffffffffffffffffffffffffffff16815250509050600260058111156112ac576112ab612bae565b5b816080015160058111156112c3576112c2612bae565b5b141580156112fa5750600360058111156112e0576112df612bae565b5b816080015160058111156112f7576112f6612bae565b5b14155b15611331576040517fd1c92ac700000000000000000000000000000000000000000000000000000000815260040160405180910390fd5b5f73ffffffffffffffffffffffffffffffffffffffff1681610140015173ffffffffffffffffffffffffffffffffffffffff160361139b576040517ff79ca78000000000000000000000000000000000000000000000000000000000815260040160405180910390fd5b600260058111156113af576113ae612bae565b5b816080015160058111156113c6576113c5612bae565b5b036113fd576003816080019060058111156113e4576113e3612bae565b5b908160058111156113f8576113f7612bae565b5b815250505b61144a3330857f000000000000000000000000000000000000000000000000000000000000000073ffffffffffffffffffffffffffffffffffffffff1661239e909392919063ffffffff16565b80610140015173ffffffffffffffffffffffffffffffffffffffff1663bdd071fb84846040518363ffffffff1660e01b815260040161148a929190612ea3565b5f604051808303815f87803b1580156114a1575f80fd5b505af11580156114b3573d5f803e3d5ffd5b505050508183857f9ee8bb40d1b73566ab8cdada5f50c875db78066643b96ce7f0f4b53cfb5802f760405160405180910390a450505050565b5f6114f5612568565b90508073ffffffffffffffffffffffffffffffffffffffff16611516611dae565b73ffffffffffffffffffffffffffffffffffffffff161461156e57806040517f118cdaa70000000000000000000000000000000000000000000000000000000081526004016115659190612ac3565b60405180910390fd5b61157781612538565b50565b7f000000000000000000000000000000000000000000000000000000000000000081565b6115a66124b1565b5f801b81036115e1576040517f04f7c90400000000000000000000000000000000000000000000000000000000815260040160405180910390fd5b5f60025f8381526020019081526020015f20604051806101600160405290815f82015f9054906101000a900473ffffffffffffffffffffffffffffffffffffffff1673ffffffffffffffffffffffffffffffffffffffff1673ffffffffffffffffffffffffffffffffffffffff168152602001600182015481526020016002820154815260200160038201548152602001600482015f9054906101000a900460ff16600581111561169557611694612bae565b5b60058111156116a7576116a6612bae565b5b81526020016005820154815260200160068201548152602001600782015481526020016008820154815260200160098201548152602001600a82015f9054906101000a900473ffffffffffffffffffffffffffffffffffffffff1673ffffffffffffffffffffffffffffffffffffffff1673ffffffffffffffffffffffffffffffffffffffff168152505090506001600581111561174857611747612bae565b5b8160800151600581111561175f5761175e612bae565b5b14611796576040517f5693f4ab00000000000000000000000000000000000000000000000000000000815260040160405180910390fd5b8061010001518160a001516117ab9190612ef7565b4210156117e4576040517fd1c92ac700000000000000000000000000000000000000000000000000000000815260040160405180910390fd5b5f670de0b6b3a7640000826060015183604001516118029190612f5d565b61180c9190612fcb565b90505f826040015183602001516118239190612f2a565b90506002805f8681526020019081526020015f206004015f6101000a81548160ff0219169083600581111561185b5761185a612bae565b5b02179055505f8111156118d257825f015173ffffffffffffffffffffffffffffffffffffffff166342966c68826040518263ffffffff1660e01b81526004016118a49190612854565b5f604051808303815f87803b1580156118bb575f80fd5b505af11580156118cd573d5f803e3d5ffd5b505050505b61191d33837f000000000000000000000000000000000000000000000000000000000000000073ffffffffffffffffffffffffffffffffffffffff1661245e9092919063ffffffff16565b83827f03c6e1086bf3f14e6997cca809f9dd90d3254092fb0b219e516e45625a70cd0f60405160405180910390a3837f1390d3e1afd773aa59cdfd2c556e5a69ff973da1a0c9e9450586cd29be3cb3f460405160405180910390a250505050565b5f805f9054906101000a900473ffffffffffffffffffffffffffffffffffffffff16905090565b5f60025f8481526020019081526020015f20604051806101600160405290815f82015f9054906101000a900473ffffffffffffffffffffffffffffffffffffffff1673ffffffffffffffffffffffffffffffffffffffff1673ffffffffffffffffffffffffffffffffffffffff168152602001600182015481526020016002820154815260200160038201548152602001600482015f9054906101000a900460ff166005811115611a5957611a58612bae565b5b6005811115611a6b57611a6a612bae565b5b81526020016005820154815260200160068201548152602001600782015481526020016008820154815260200160098201548152602001600a82015f9054906101000a900473ffffffffffffffffffffffffffffffffffffffff1673ffffffffffffffffffffffffffffffffffffffff1673ffffffffffffffffffffffffffffffffffffffff168152505090505f801b8303611b33576040517f04f7c90400000000000000000000000000000000000000000000000000000000815260040160405180910390fd5b60046005811115611b4757611b46612bae565b5b81608001516005811115611b5e57611b5d612bae565b5b14611b95576040517fa8dd1e7200000000000000000000000000000000000000000000000000000000815260040160405180910390fd5b5f8160400151670de0b6b3a7640000836101200151611bb49190612f5d565b611bbe9190612fcb565b90505f670de0b6b3a76400008285611bd69190612f5d565b611be09190612fcb565b9050825f015173ffffffffffffffffffffffffffffffffffffffff166379cc679033866040518363ffffffff1660e01b8152600401611c20929190612de6565b5f604051808303815f87803b158015611c37575f80fd5b505af1158015611c49573d5f803e3d5ffd5b50505050611c9833827f000000000000000000000000000000000000000000000000000000000000000073ffffffffffffffffffffffffffffffffffffffff1661245e9092919063ffffffff16565b5f835f015173ffffffffffffffffffffffffffffffffffffffff166318160ddd6040518163ffffffff1660e01b8152600401602060405180830381865afa158015611ce5573d5f803e3d5ffd5b505050506040513d601f19601f82011682018060405250810190611d09919061300f565b03611d7857600560025f8781526020019081526020015f206004015f6101000a81548160ff02191690836005811115611d4557611d44612bae565b5b0217905550847fd10685aca788ed9a420350e305bc811cc0b8d1785556cea8ed44c53dfee1defa60405160405180910390a25b8084867f7645c5f5e5d03a99c03bb86805723aefcbc4e6e56a7550f764e02547c89c3f3f60405160405180910390a45050505050565b5f60015f9054906101000a900473ffffffffffffffffffffffffffffffffffffffff16905090565b611dde6127af565b60025f8381526020019081526020015f20604051806101600160405290815f82015f9054906101000a900473ffffffffffffffffffffffffffffffffffffffff1673ffffffffffffffffffffffffffffffffffffffff1673ffffffffffffffffffffffffffffffffffffffff168152602001600182015481526020016002820154815260200160038201548152602001600482015f9054906101000a900460ff166005811115611e9157611e90612bae565b5b6005811115611ea357611ea2612bae565b5b81526020016005820154815260200160068201548152602001600782015481526020016008820154815260200160098201548152602001600a82015f9054906101000a900473ffffffffffffffffffffffffffffffffffffffff1673ffffffffffffffffffffffffffffffffffffffff1673ffffffffffffffffffffffffffffffffffffffff16815250509050919050565b611f3d6124b1565b8060015f6101000a81548173ffffffffffffffffffffffffffffffffffffffff021916908373ffffffffffffffffffffffffffffffffffffffff1602179055508073ffffffffffffffffffffffffffffffffffffffff16611f9c61197e565b73ffffffffffffffffffffffffffffffffffffffff167f38d16b8cac22d99fc7c124b9cd0de2d3fa1faef420bfe791d8c362d765e2270060405160405180910390a350565b5f60025f8481526020019081526020015f20604051806101600160405290815f82015f9054906101000a900473ffffffffffffffffffffffffffffffffffffffff1673ffffffffffffffffffffffffffffffffffffffff1673ffffffffffffffffffffffffffffffffffffffff168152602001600182015481526020016002820154815260200160038201548152602001600482015f9054906101000a900460ff16600581111561209557612094612bae565b5b60058111156120a7576120a6612bae565b5b81526020016005820154815260200160068201548152602001600782015481526020016008820154815260200160098201548152602001600a82015f9054906101000a900473ffffffffffffffffffffffffffffffffffffffff1673ffffffffffffffffffffffffffffffffffffffff1673ffffffffffffffffffffffffffffffffffffffff168152505090506001600581111561214857612147612bae565b5b8160800151600581111561215f5761215e612bae565b5b14612196576040517f5693f4ab00000000000000000000000000000000000000000000000000000000815260040160405180910390fd5b5f82036121cf576040517ff9ded5be00000000000000000000000000000000000000000000000000000000815260040160405180910390fd5b6121dc81606001516123f3565b821015612215576040517f1ae700d200000000000000000000000000000000000000000000000000000000815260040160405180910390fd5b6122238160c001513361256f565b612259576040517f4b9adc8100000000000000000000000000000000000000000000000000000000815260040160405180910390fd5b5f8160400151826020015161226e9190612f2a565b9050808311156122aa576040517f612d122900000000000000000000000000000000000000000000000000000000815260040160405180910390fd5b5f670de0b6b3a76400008360600151856122c49190612f5d565b6122ce9190612fcb565b90508260400151846122e09190612ef7565b60025f8781526020019081526020015f20600201819055506123453330837f000000000000000000000000000000000000000000000000000000000000000073ffffffffffffffffffffffffffffffffffffffff1661239e909392919063ffffffff16565b6123733385855f015173ffffffffffffffffffffffffffffffffffffffff1661245e9092919063ffffffff16565b5050505050565b7f000000000000000000000000000000000000000000000000000000000000000081565b6123ac84848484600161261b565b6123ed57836040517f5274afe70000000000000000000000000000000000000000000000000000000081526004016123e49190612ac3565b60405180910390fd5b50505050565b5f817f00000000000000000000000000000000000000000000000000000000000000007f0000000000000000000000000000000000000000000000000000000000000000600a6124439190613169565b61244d9190612f5d565b6124579190612fcb565b9050919050565b61246b838383600161268c565b6124ac57826040517f5274afe70000000000000000000000000000000000000000000000000000000081526004016124a39190612ac3565b60405180910390fd5b505050565b6124b9612568565b73ffffffffffffffffffffffffffffffffffffffff166124d761197e565b73ffffffffffffffffffffffffffffffffffffffff1614612536576124fa612568565b6040517f118cdaa700000000000000000000000000000000000000000000000000000000815260040161252d9190612ac3565b60405180910390fd5b565b60015f6101000a81549073ffffffffffffffffffffffffffffffffffffffff0219169055612565816126ee565b50565b5f33905090565b5f807f000000000000000000000000000000000000000000000000000000000000000073ffffffffffffffffffffffffffffffffffffffff16631959a002846040518263ffffffff1660e01b81526004016125ca9190612ac3565b608060405180830381865afa1580156125e5573d5f803e3d5ffd5b505050506040513d601f19601f8201168201806040525081019061260991906132b4565b905083815f0151101591505092915050565b5f806323b872dd60e01b9050604051815f525f1960601c87166004525f1960601c86166024528460445260205f60645f808c5af1925060015f5114831661267957838315161561266d573d5f823e3d81fd5b5f883b113d1516831692505b806040525f606052505095945050505050565b5f8063a9059cbb60e01b9050604051815f525f1960601c86166004528460245260205f60445f808b5af1925060015f511483166126e05783831516156126d4573d5f823e3d81fd5b5f873b113d1516831692505b806040525050949350505050565b5f805f9054906101000a900473ffffffffffffffffffffffffffffffffffffffff169050815f806101000a81548173ffffffffffffffffffffffffffffffffffffffff021916908373ffffffffffffffffffffffffffffffffffffffff1602179055508173ffffffffffffffffffffffffffffffffffffffff168173ffffffffffffffffffffffffffffffffffffffff167f8be0079c531659141344cd1fd0a4f28419497f9722a3daafe3b4186f6b6457e060405160405180910390a35050565b6040518061016001604052805f73ffffffffffffffffffffffffffffffffffffffff1681526020015f81526020015f81526020015f81526020015f60058111156127fc576127fb612bae565b5b81526020015f81526020015f81526020015f81526020015f81526020015f81526020015f73ffffffffffffffffffffffffffffffffffffffff1681525090565b5f819050919050565b61284e8161283c565b82525050565b5f6020820190506128675f830184612845565b92915050565b5f60ff82169050919050565b6128828161286d565b82525050565b5f60208201905061289b5f830184612879565b92915050565b5f604051905090565b5f80fd5b5f73ffffffffffffffffffffffffffffffffffffffff82169050919050565b5f6128d7826128ae565b9050919050565b6128e7816128cd565b81146128f1575f80fd5b50565b5f81359050612902816128de565b92915050565b6129118161283c565b811461291b575f80fd5b50565b5f8135905061292c81612908565b92915050565b5f805f805f805f60e0888a03121561294d5761294c6128aa565b5b5f61295a8a828b016128f4565b975050602061296b8a828b0161291e565b965050604061297c8a828b0161291e565b955050606061298d8a828b0161291e565b945050608061299e8a828b0161291e565b93505060a06129af8a828b0161291e565b92505060c06129c08a828b016128f4565b91505092959891949750929550565b5f819050919050565b5f6129f26129ed6129e8846128ae565b6129cf565b6128ae565b9050919050565b5f612a03826129d8565b9050919050565b5f612a14826129f9565b9050919050565b612a2481612a0a565b82525050565b5f602082019050612a3d5f830184612a1b565b92915050565b5f819050919050565b612a5581612a43565b8114612a5f575f80fd5b50565b5f81359050612a7081612a4c565b92915050565b5f8060408385031215612a8c57612a8b6128aa565b5b5f612a9985828601612a62565b9250506020612aaa8582860161291e565b9150509250929050565b612abd816128cd565b82525050565b5f602082019050612ad65f830184612ab4565b92915050565b5f805f60608486031215612af357612af26128aa565b5b5f612b0086828701612a62565b9350506020612b118682870161291e565b9250506040612b228682870161291e565b9150509250925092565b5f612b36826129f9565b9050919050565b612b4681612b2c565b82525050565b5f602082019050612b5f5f830184612b3d565b92915050565b5f60208284031215612b7a57612b796128aa565b5b5f612b8784828501612a62565b91505092915050565b612b99816128cd565b82525050565b612ba88161283c565b82525050565b7f4e487b71000000000000000000000000000000000000000000000000000000005f52602160045260245ffd5b60068110612bec57612beb612bae565b5b50565b5f819050612bfc82612bdb565b919050565b5f612c0b82612bef565b9050919050565b612c1b81612c01565b82525050565b61016082015f820151612c365f850182612b90565b506020820151612c496020850182612b9f565b506040820151612c5c6040850182612b9f565b506060820151612c6f6060850182612b9f565b506080820151612c826080850182612c12565b5060a0820151612c9560a0850182612b9f565b5060c0820151612ca860c0850182612b9f565b5060e0820151612cbb60e0850182612b9f565b50610100820151612cd0610100850182612b9f565b50610120820151612ce5610120850182612b9f565b50610140820151612cfa610140850182612b90565b50505050565b5f61016082019050612d145f830184612c21565b92915050565b5f60208284031215612d2f57612d2e6128aa565b5b5f612d3c848285016128f4565b91505092915050565b5f8160601b9050919050565b5f612d5b82612d45565b9050919050565b5f612d6c82612d51565b9050919050565b612d84612d7f826128cd565b612d62565b82525050565b5f819050919050565b612da4612d9f8261283c565b612d8a565b82525050565b5f612db58286612d73565b601482019150612dc58285612d93565b602082019150612dd58284612d93565b602082019150819050949350505050565b5f604082019050612df95f830185612ab4565b612e066020830184612845565b9392505050565b5f8115159050919050565b612e2181612e0d565b8114612e2b575f80fd5b50565b5f81519050612e3c81612e18565b92915050565b5f60208284031215612e5757612e566128aa565b5b5f612e6484828501612e2e565b91505092915050565b612e7681612a43565b82525050565b5f604082019050612e8f5f830185612ab4565b612e9c6020830184612e6d565b9392505050565b5f604082019050612eb65f830185612845565b612ec36020830184612845565b9392505050565b7f4e487b71000000000000000000000000000000000000000000000000000000005f52601160045260245ffd5b5f612f018261283c565b9150612f0c8361283c565b9250828201905080821115612f2457612f23612eca565b5b92915050565b5f612f348261283c565b9150612f3f8361283c565b9250828203905081811115612f5757612f56612eca565b5b92915050565b5f612f678261283c565b9150612f728361283c565b9250828202612f808161283c565b91508282048414831517612f9757612f96612eca565b5b5092915050565b7f4e487b71000000000000000000000000000000000000000000000000000000005f52601260045260245ffd5b5f612fd58261283c565b9150612fe08361283c565b925082612ff057612fef612f9e565b5b828204905092915050565b5f8151905061300981612908565b92915050565b5f60208284031215613024576130236128aa565b5b5f61303184828501612ffb565b91505092915050565b5f8160011c9050919050565b5f808291508390505b600185111561308f5780860481111561306b5761306a612eca565b5b600185161561307a5780820291505b80810290506130888561303a565b945061304f565b94509492505050565b5f826130a75760019050613162565b816130b4575f9050613162565b81600181146130ca57600281146130d457613103565b6001915050613162565b60ff8411156130e6576130e5612eca565b5b8360020a9150848211156130fd576130fc612eca565b5b50613162565b5060208310610133831016604e8410600b84101617156131385782820a90508381111561313357613132612eca565b5b613162565b6131458484846001613046565b9250905081840481111561315c5761315b612eca565b5b81810290505b9392505050565b5f6131738261283c565b915061317e8361286d565b92506131ab7fffffffffffffffffffffffffffffffffffffffffffffffffffffffffffffffff8484613098565b905092915050565b5f80fd5b5f601f19601f8301169050919050565b7f4e487b71000000000000000000000000000000000000000000000000000000005f52604160045260245ffd5b6131fd826131b7565b810181811067ffffffffffffffff8211171561321c5761321b6131c7565b5b80604052505050565b5f61322e6128a1565b905061323a82826131f4565b919050565b5f60808284031215613254576132536131b3565b5b61325e6080613225565b90505f61326d84828501612ffb565b5f83015250602061328084828501612ffb565b602083015250604061329484828501612ffb565b60408301525060606132a884828501612ffb565b60608301525092915050565b5f608082840312156132c9576132c86128aa565b5b5f6132d68482850161323f565b9150509291505056fea2646970667358221220a4bf7cf5f59c8c516e230f949aa3e9b07424f2bbdd48cb154dc17901aa599d7564736f6c63430008180033","linkReferences":{}},"methodIdentifiers":{"PRE_SALE_DURATION()":"23f9d589","USHARE_DECIMAL_PRECISION()":"019a40f4","acceptOwnership()":"79ba5097","addCashflow(bytes32,uint256,uint256)":"77130fe3","buyuShare(bytes32,uint256)":"3fc35553","buyuShareOnPreSale(bytes32,uint256)":"fe52529a","claimRedistribution(bytes32,uint256)":"d5bd2085","closeuShareSaleAndWithdrawUsdc(bytes32)":"8a4bc037","createRedistribution(bytes32,uint256)":"42e95e4c","createuShareSale(address,uint256,uint256,uint256,uint256,uint256,address)":"2139e2a9","getuShareInfo(bytes32)":"f2012877","i_minuShareAmountForOneUSDC()":"3f930941","i_staking()":"8436c8ff","i_uShareFactory()":"57e0acc7","i_uranoToken()":"2fa9f6a5","i_usdc()":"ff40e1d0","i_usdcDecimals()":"0de78d32","owner()":"8da5cb5b","pendingOwner()":"e30c3978","renounceOwnership()":"715018a6","transferOwnership(address)":"f2fde38b"},"id":69}