{"abi":[{"type":"constructor","inputs":[{"name":"_uShareToken","type":"address","internalType":"address"},{"name":"_USDCToken","type":"address","internalType":"address"},{"name":"_uShareMarket","type":"address","internalType":"address"}],"stateMutability":"nonpayable"},{"type":"function","name":"DECIMAL_PRECISION","inputs":[],"outputs":[{"name":"","type":"uint256","internalType":"uint256"}],"stateMutability":"view"},{"type":"function","name":"MINIMUM_DURATION","inputs":[],"outputs":[{"name":"","type":"uint256","internalType":"uint256"}],"stateMutability":"view"},{"type":"function","name":"amountStaked","inputs":[{"name":"_user","type":"address","internalType":"address"}],"outputs":[{"name":"","type":"uint256","internalType":"uint256"}],"stateMutability":"view"},{"type":"function","name":"claimRewards","inputs":[],"outputs":[],"stateMutability":"nonpayable"},{"type":"function","name":"depositRewards","inputs":[{"name":"_amount","type":"uint256","internalType":"uint256"},{"name":"_distributionDuration","type":"uint256","internalType":"uint256"}],"outputs":[],"stateMutability":"nonpayable"},{"type":"function","name":"i_USDCToken","inputs":[],"outputs":[{"name":"","type":"address","internalType":"contract IERC20"}],"stateMutability":"view"},{"type":"function","name":"i_uShareMarket","inputs":[],"outputs":[{"name":"","type":"address","internalType":"address"}],"stateMutability":"view"},{"type":"function","name":"i_uShareToken","inputs":[],"outputs":[{"name":"","type":"address","internalType":"contract IERC20"}],"stateMutability":"view"},{"type":"function","name":"isCashflowActive","inputs":[],"outputs":[{"name":"","type":"bool","internalType":"bool"}],"stateMutability":"view"},{"type":"function","name":"s_accumulatedRewardPerUnitStaked","inputs":[],"outputs":[{"name":"","type":"uint256","internalType":"uint256"}],"stateMutability":"view"},{"type":"function","name":"s_amountRewarded","inputs":[],"outputs":[{"name":"","type":"uint256","internalType":"uint256"}],"stateMutability":"view"},{"type":"function","name":"s_lastRewardTimestamp","inputs":[],"outputs":[{"name":"","type":"uint256","internalType":"uint256"}],"stateMutability":"view"},{"type":"function","name":"s_rewardPerSecond","inputs":[],"outputs":[{"name":"","type":"uint256","internalType":"uint256"}],"stateMutability":"view"},{"type":"function","name":"s_totalReward","inputs":[],"outputs":[{"name":"","type":"uint256","internalType":"uint256"}],"stateMutability":"view"},{"type":"function","name":"s_totalStaked","inputs":[],"outputs":[{"name":"","type":"uint256","internalType":"uint256"}],"stateMutability":"view"},{"type":"function","name":"stake","inputs":[{"name":"_amount","type":"uint256","internalType":"uint256"}],"outputs":[],"stateMutability":"nonpayable"},{"type":"function","name":"userInfo","inputs":[{"name":"_user","type":"address","internalType":"address"}],"outputs":[{"name":"","type":"tuple","internalType":"struct uStaking.UserInfo","components":[{"name":"stakedAmount","type":"uint256","internalType":"uint256"},{"name":"rewardDebt","type":"uint256","internalType":"uint256"},{"name":"rewardEarned","type":"uint256","internalType":"uint256"},{"name":"stakingTimestamp","type":"uint256","internalType":"uint256"}]}],"stateMutability":"view"},{"type":"function","name":"withdraw","inputs":[{"name":"_amount","type":"uint256","internalType":"uint256"}],"outputs":[],"stateMutability":"nonpayable"},{"type":"event","name":"RewardDeposited","inputs":[{"name":"amount","type":"uint256","indexed":true,"internalType":"uint256"}],"anonymous":false},{"type":"event","name":"RewardPerSecondSet","inputs":[{"name":"rewardPerSecond","type":"uint256","indexed":true,"internalType":"uint256"}],"anonymous":false},{"type":"event","name":"RewardsClaimed","inputs":[{"name":"user","type":"address","indexed":true,"internalType":"address"},{"name":"amount","type":"uint256","indexed":true,"internalType":"uint256"}],"anonymous":false},{"type":"event","name":"Staked","inputs":[{"name":"user","type":"address","indexed":true,"internalType":"address"},{"name":"amount","type":"uint256","indexed":true,"internalType":"uint256"}],"anonymous":false},{"type":"event","name":"Withdrawn","inputs":[{"name":"user","type":"address","indexed":true,"internalType":"address"},{"name":"amount","type":"uint256","indexed":true,"internalType":"uint256"}],"anonymous":false},{"type":"error","name":"SafeERC20FailedOperation","inputs":[{"name":"token","type":"address","internalType":"address"}]},{"type":"error","name":"uStaking__InsufficientStakedAmount","inputs":[]},{"type":"error","name":"uStaking__MinimunDurationNotPassed","inputs":[]},{"type":"error","name":"uStaking__NoRewards","inputs":[]},{"type":"error","name":"uStaking__OnlyUShareMarket","inputs":[]},{"type":"error","name":"uStaking__ZeroAmount","inputs":[]},{"type":"error","name":"uStaking__ZeroDuration","inputs":[]},{"type":"error","name":"uStaking__ZeroRewardPerSecond","inputs":[]}],"bytecode":{"object":"0x60e060405234801562000010575f80fd5b506040516200157938038062001579833981810160405281019062000036919062000140565b8273ffffffffffffffffffffffffffffffffffffffff1660808173ffffffffffffffffffffffffffffffffffffffff16815250508173ffffffffffffffffffffffffffffffffffffffff1660a08173ffffffffffffffffffffffffffffffffffffffff16815250508073ffffffffffffffffffffffffffffffffffffffff1660c08173ffffffffffffffffffffffffffffffffffffffff168152505050505062000199565b5f80fd5b5f73ffffffffffffffffffffffffffffffffffffffff82169050919050565b5f6200010a82620000df565b9050919050565b6200011c81620000fe565b811462000127575f80fd5b50565b5f815190506200013a8162000111565b92915050565b5f805f606084860312156200015a5762000159620000db565b5b5f62000169868287016200012a565b93505060206200017c868287016200012a565b92505060406200018f868287016200012a565b9150509250925092565b60805160a05160c051611392620001e75f395f818161072e015261096101525f8181610353015281816106950152610ac601525f8181610567015281816108a9015261093d01526113925ff3fe608060405234801561000f575f80fd5b5060043610610114575f3560e01c80637421533d116100a0578063b2a7d8261161006f578063b2a7d82614610298578063bdd071fb146102b6578063ef40a670146102d2578063ef683cbb14610302578063ef772a601461032057610114565b80637421533d14610222578063a20baee614610240578063a694fc3a1461025e578063af059f201461027a57610114565b80632d28e89d116100e75780632d28e89d146101a25780632e1a7d4d146101c0578063372500ab146101dc5780633a000125146101e65780635667e4db1461020457610114565b80630e02811a146101185780630e39673d146101365780631347e985146101545780631959a00214610172575b5f80fd5b61012061033e565b60405161012d9190610fac565b60405180910390f35b61013e610344565b60405161014b9190610fdf565b60405180910390f35b61015c610351565b6040516101699190611072565b60405180910390f35b61018c600480360381019061018791906110ca565b610375565b6040516101999190611157565b60405180910390f35b6101aa6103f3565b6040516101b79190610fac565b60405180910390f35b6101da60048036038101906101d5919061119a565b6103fa565b005b6101e46105f3565b005b6101ee610720565b6040516101fb9190610fac565b60405180910390f35b61020c610726565b6040516102199190610fac565b60405180910390f35b61022a61072c565b60405161023791906111d4565b60405180910390f35b610248610750565b6040516102559190610fac565b60405180910390f35b6102786004803603810190610273919061119a565b61075c565b005b610282610935565b60405161028f9190610fac565b60405180910390f35b6102a061093b565b6040516102ad9190611072565b60405180910390f35b6102d060048036038101906102cb91906111ed565b61095f565b005b6102ec60048036038101906102e791906110ca565b610b3d565b6040516102f99190610fac565b60405180910390f35b61030a610b85565b6040516103179190610fac565b60405180910390f35b610328610b8b565b6040516103359190610fac565b60405180910390f35b60025481565b5f60045460015411905090565b7f000000000000000000000000000000000000000000000000000000000000000081565b61037d610f70565b60065f8373ffffffffffffffffffffffffffffffffffffffff1673ffffffffffffffffffffffffffffffffffffffff1681526020019081526020015f206040518060800160405290815f820154815260200160018201548152602001600282015481526020016003820154815250509050919050565b62093a8081565b5f8103610433576040517fc8a107b100000000000000000000000000000000000000000000000000000000815260040160405180910390fd5b5f60065f3373ffffffffffffffffffffffffffffffffffffffff1673ffffffffffffffffffffffffffffffffffffffff1681526020019081526020015f206040518060800160405290815f82015481526020016001820154815260200160028201548152602001600382015481525050905081815f015110156104e2576040517f439bdff300000000000000000000000000000000000000000000000000000000815260040160405180910390fd5b6104ea610b90565b6104f4335f610c2e565b8160065f3373ffffffffffffffffffffffffffffffffffffffff1673ffffffffffffffffffffffffffffffffffffffff1681526020019081526020015f205f015f8282546105429190611258565b92505081905550815f808282546105599190611258565b925050819055506105ab33837f000000000000000000000000000000000000000000000000000000000000000073ffffffffffffffffffffffffffffffffffffffff16610dbb9092919063ffffffff16565b813373ffffffffffffffffffffffffffffffffffffffff167f7084f5476618d8e60b11ef0d7d3f06914655adb8793e28ff7f018d4c76d505d560405160405180910390a35050565b6105fb610b90565b610605335f610c2e565b5f60065f3373ffffffffffffffffffffffffffffffffffffffff1673ffffffffffffffffffffffffffffffffffffffff1681526020019081526020015f206002015490505f60065f3373ffffffffffffffffffffffffffffffffffffffff1673ffffffffffffffffffffffffffffffffffffffff1681526020019081526020015f20600201819055506106d933827f000000000000000000000000000000000000000000000000000000000000000073ffffffffffffffffffffffffffffffffffffffff16610dbb9092919063ffffffff16565b803373ffffffffffffffffffffffffffffffffffffffff167ffc30cddea38e2bf4d6ea7d3f9ed3b6ad7f176419f4963bd81318067a4aee73fe60405160405180910390a350565b60035481565b60045481565b7f000000000000000000000000000000000000000000000000000000000000000081565b670de0b6b3a764000081565b5f8103610795576040517fc8a107b100000000000000000000000000000000000000000000000000000000815260040160405180910390fd5b5f60025414806107a757505f60015411155b156107de576040517f272aae2d00000000000000000000000000000000000000000000000000000000815260040160405180910390fd5b6107e6610b90565b6107f03382610c2e565b8060065f3373ffffffffffffffffffffffffffffffffffffffff1673ffffffffffffffffffffffffffffffffffffffff1681526020019081526020015f205f015f82825461083e919061128b565b925050819055504260065f3373ffffffffffffffffffffffffffffffffffffffff1673ffffffffffffffffffffffffffffffffffffffff1681526020019081526020015f2060030181905550805f8082825461089a919061128b565b925050819055506108ee3330837f000000000000000000000000000000000000000000000000000000000000000073ffffffffffffffffffffffffffffffffffffffff16610e0e909392919063ffffffff16565b803373ffffffffffffffffffffffffffffffffffffffff167f9e71bc8eea02a63969f509818f2dafb9254532904319f9dbda79b67bd34a5f3d60405160405180910390a350565b60015481565b7f000000000000000000000000000000000000000000000000000000000000000081565b7f000000000000000000000000000000000000000000000000000000000000000073ffffffffffffffffffffffffffffffffffffffff163373ffffffffffffffffffffffffffffffffffffffff16146109e4576040517f71bc737400000000000000000000000000000000000000000000000000000000815260040160405180910390fd5b5f8203610a1d576040517fc8a107b100000000000000000000000000000000000000000000000000000000815260040160405180910390fd5b5f8103610a56576040517fc7514ab400000000000000000000000000000000000000000000000000000000815260040160405180910390fd5b8160015f828254610a67919061128b565b925050819055505f600454600154610a7f9190611258565b90505f811115610aab578183610a9591906112eb565b81610aa0919061128b565b600281905550610abe565b8183610ab791906112eb565b6002819055505b610b0b3330857f000000000000000000000000000000000000000000000000000000000000000073ffffffffffffffffffffffffffffffffffffffff16610e0e909392919063ffffffff16565b827f4b19cb5d8df041d8b4d367efa19af33a21d398f599fb445a29acd9d5e56318c660405160405180910390a2505050565b5f60065f8373ffffffffffffffffffffffffffffffffffffffff1673ffffffffffffffffffffffffffffffffffffffff1681526020019081526020015f205f01549050919050565b60055481565b5f5481565b5f60035442610b9f9190611258565b90505f805490505f8103610bbb57426003819055505050610c2c565b5f610be260045484600254610bd0919061131b565b610bda919061128b565b600154610e63565b9050806004819055504260038190555081670de0b6b3a764000082610c07919061131b565b610c1191906112eb565b60055f828254610c21919061128b565b925050819055505050505b565b5f60065f8473ffffffffffffffffffffffffffffffffffffffff1673ffffffffffffffffffffffffffffffffffffffff1681526020019081526020015f206040518060800160405290815f8201548152602001600182015481526020016002820154815260200160038201548152505090505f8160200151670de0b6b3a7640000835f0151600554610cc0919061131b565b610cca91906112eb565b610cd49190611258565b90505f831115610cf75782825f01818151610cef919061128b565b915081815250505b8060065f8673ffffffffffffffffffffffffffffffffffffffff1673ffffffffffffffffffffffffffffffffffffffff1681526020019081526020015f206002015f828254610d46919061128b565b92505081905550670de0b6b3a7640000600554835f0151610d67919061131b565b610d7191906112eb565b60065f8673ffffffffffffffffffffffffffffffffffffffff1673ffffffffffffffffffffffffffffffffffffffff1681526020019081526020015f206001018190555050505050565b610dc88383836001610e79565b610e0957826040517f5274afe7000000000000000000000000000000000000000000000000000000008152600401610e0091906111d4565b60405180910390fd5b505050565b610e1c848484846001610edb565b610e5d57836040517f5274afe7000000000000000000000000000000000000000000000000000000008152600401610e5491906111d4565b60405180910390fd5b50505050565b5f610e718284108484610f4c565b905092915050565b5f8063a9059cbb60e01b9050604051815f525f1960601c86166004528460245260205f60445f808b5af1925060015f51148316610ecd578383151615610ec1573d5f823e3d81fd5b5f873b113d1516831692505b806040525050949350505050565b5f806323b872dd60e01b9050604051815f525f1960601c87166004525f1960601c86166024528460445260205f60645f808c5af1925060015f51148316610f39578383151615610f2d573d5f823e3d81fd5b5f883b113d1516831692505b806040525f606052505095945050505050565b5f610f5684610f65565b82841802821890509392505050565b5f8115159050919050565b60405180608001604052805f81526020015f81526020015f81526020015f81525090565b5f819050919050565b610fa681610f94565b82525050565b5f602082019050610fbf5f830184610f9d565b92915050565b5f8115159050919050565b610fd981610fc5565b82525050565b5f602082019050610ff25f830184610fd0565b92915050565b5f73ffffffffffffffffffffffffffffffffffffffff82169050919050565b5f819050919050565b5f61103a61103561103084610ff8565b611017565b610ff8565b9050919050565b5f61104b82611020565b9050919050565b5f61105c82611041565b9050919050565b61106c81611052565b82525050565b5f6020820190506110855f830184611063565b92915050565b5f80fd5b5f61109982610ff8565b9050919050565b6110a98161108f565b81146110b3575f80fd5b50565b5f813590506110c4816110a0565b92915050565b5f602082840312156110df576110de61108b565b5b5f6110ec848285016110b6565b91505092915050565b6110fe81610f94565b82525050565b608082015f8201516111185f8501826110f5565b50602082015161112b60208501826110f5565b50604082015161113e60408501826110f5565b50606082015161115160608501826110f5565b50505050565b5f60808201905061116a5f830184611104565b92915050565b61117981610f94565b8114611183575f80fd5b50565b5f8135905061119481611170565b92915050565b5f602082840312156111af576111ae61108b565b5b5f6111bc84828501611186565b91505092915050565b6111ce8161108f565b82525050565b5f6020820190506111e75f8301846111c5565b92915050565b5f80604083850312156112035761120261108b565b5b5f61121085828601611186565b925050602061122185828601611186565b9150509250929050565b7f4e487b71000000000000000000000000000000000000000000000000000000005f52601160045260245ffd5b5f61126282610f94565b915061126d83610f94565b92508282039050818111156112855761128461122b565b5b92915050565b5f61129582610f94565b91506112a083610f94565b92508282019050808211156112b8576112b761122b565b5b92915050565b7f4e487b71000000000000000000000000000000000000000000000000000000005f52601260045260245ffd5b5f6112f582610f94565b915061130083610f94565b9250826113105761130f6112be565b5b828204905092915050565b5f61132582610f94565b915061133083610f94565b925082820261133e81610f94565b915082820484148315176113555761135461122b565b5b509291505056fea2646970667358221220fc935e045d63a7aad3e24ecbdc44d75e8ec6a9de2f912dc19f83e02618dd9efa64736f6c63430008180033","linkReferences":{}},"methodIdentifiers":{"DECIMAL_PRECISION()":"a20baee6","MINIMUM_DURATION()":"2d28e89d","amountStaked(address)":"ef40a670","claimRewards()":"372500ab","depositRewards(uint256,uint256)":"bdd071fb","i_USDCToken()":"1347e985","i_uShareMarket()":"7421533d","i_uShareToken()":"b2a7d826","isCashflowActive()":"0e39673d","s_accumulatedRewardPerUnitStaked()":"ef683cbb","s_amountRewarded()":"5667e4db","s_lastRewardTimestamp()":"3a000125","s_rewardPerSecond()":"0e02811a","s_totalReward()":"af059f20","s_totalStaked()":"ef772a60","stake(uint256)":"a694fc3a","userInfo(address)":"1959a002","withdraw(uint256)":"2e1a7d4d"},"id":70}