{"abi":[{"type":"constructor","inputs":[{"name":"_token","type":"address","internalType":"contract IERC20"},{"name":"_merkleRoot","type":"bytes32","internalType":"bytes32"},{"name":"_tgeTimestamp","type":"uint256","internalType":"uint256"}],"stateMutability":"nonpayable"},{"type":"function","name":"claim","inputs":[{"name":"data","type":"tuple","internalType":"struct Vesting.VestingData","components":[{"name":"beneficiary","type":"address","internalType":"address"},{"name":"totalAmount","type":"uint256","internalType":"uint256"},{"name":"cliffInSeconds","type":"uint256","internalType":"uint256"},{"name":"vestingInSeconds","type":"uint256","internalType":"uint256"},{"name":"tgePercentage","type":"uint256","internalType":"uint256"}]},{"name":"merkleProof","type":"bytes32[]","internalType":"bytes32[]"}],"outputs":[],"stateMutability":"nonpayable"},{"type":"function","name":"claimable","inputs":[{"name":"data","type":"tuple","internalType":"struct Vesting.VestingData","components":[{"name":"beneficiary","type":"address","internalType":"address"},{"name":"totalAmount","type":"uint256","internalType":"uint256"},{"name":"cliffInSeconds","type":"uint256","internalType":"uint256"},{"name":"vestingInSeconds","type":"uint256","internalType":"uint256"},{"name":"tgePercentage","type":"uint256","internalType":"uint256"}]},{"name":"merkleProof","type":"bytes32[]","internalType":"bytes32[]"}],"outputs":[{"name":"","type":"uint256","internalType":"uint256"}],"stateMutability":"view"},{"type":"function","name":"merkleRoot","inputs":[],"outputs":[{"name":"","type":"bytes32","internalType":"bytes32"}],"stateMutability":"view"},{"type":"function","name":"owner","inputs":[],"outputs":[{"name":"","type":"address","internalType":"address"}],"stateMutability":"view"},{"type":"function","name":"renounceOwnership","inputs":[],"outputs":[],"stateMutability":"nonpayable"},{"type":"function","name":"rescueTokens","inputs":[{"name":"_tokenToRescue","type":"address","internalType":"contract IERC20"},{"name":"_amount","type":"uint256","internalType":"uint256"}],"outputs":[],"stateMutability":"nonpayable"},{"type":"function","name":"tgeTimestamp","inputs":[],"outputs":[{"name":"","type":"uint256","internalType":"uint256"}],"stateMutability":"view"},{"type":"function","name":"token","inputs":[],"outputs":[{"name":"","type":"address","internalType":"contract IERC20"}],"stateMutability":"view"},{"type":"function","name":"totalClaimed","inputs":[{"name":"","type":"address","internalType":"address"}],"outputs":[{"name":"","type":"uint256","internalType":"uint256"}],"stateMutability":"view"},{"type":"function","name":"transferOwnership","inputs":[{"name":"newOwner","type":"address","internalType":"address"}],"outputs":[],"stateMutability":"nonpayable"},{"type":"event","name":"Claimed","inputs":[{"name":"beneficiary","type":"address","indexed":true,"internalType":"address"},{"name":"amountClaimed","type":"uint256","indexed":false,"internalType":"uint256"},{"name":"totalClaimedSoFar","type":"uint256","indexed":false,"internalType":"uint256"}],"anonymous":false},{"type":"event","name":"OwnershipTransferred","inputs":[{"name":"previousOwner","type":"address","indexed":true,"internalType":"address"},{"name":"newOwner","type":"address","indexed":true,"internalType":"address"}],"anonymous":false},{"type":"error","name":"OwnableInvalidOwner","inputs":[{"name":"owner","type":"address","internalType":"address"}]},{"type":"error","name":"OwnableUnauthorizedAccount","inputs":[{"name":"account","type":"address","internalType":"address"}]},{"type":"error","name":"ReentrancyGuardReentrantCall","inputs":[]},{"type":"error","name":"SafeERC20FailedOperation","inputs":[{"name":"token","type":"address","internalType":"address"}]}],"bytecode":{"object":"0x60e060405234801562000010575f80fd5b5060405162001a7738038062001a77833981810160405281019062000036919062000409565b335f73ffffffffffffffffffffffffffffffffffffffff168173ffffffffffffffffffffffffffffffffffffffff1603620000aa575f6040517f1e4fbdf7000000000000000000000000000000000000000000000000000000008152600401620000a1919062000473565b60405180910390fd5b620000bb816200022e60201b60201c565b506001620000de620000d2620002ef60201b60201c565b6200031860201b60201c565b5f01819055505f73ffffffffffffffffffffffffffffffffffffffff168373ffffffffffffffffffffffffffffffffffffffff160362000155576040517f08c379a00000000000000000000000000000000000000000000000000000000081526004016200014c90620004ec565b60405180910390fd5b5f801b82036200019c576040517f08c379a000000000000000000000000000000000000000000000000000000000815260040162000193906200055a565b60405180910390fd5b5f8111620001e1576040517f08c379a0000000000000000000000000000000000000000000000000000000008152600401620001d890620005c8565b60405180910390fd5b8273ffffffffffffffffffffffffffffffffffffffff1660808173ffffffffffffffffffffffffffffffffffffffff16815250508160a081815250508060c08181525050505050620005e8565b5f805f9054906101000a900473ffffffffffffffffffffffffffffffffffffffff169050815f806101000a81548173ffffffffffffffffffffffffffffffffffffffff021916908373ffffffffffffffffffffffffffffffffffffffff1602179055508173ffffffffffffffffffffffffffffffffffffffff168173ffffffffffffffffffffffffffffffffffffffff167f8be0079c531659141344cd1fd0a4f28419497f9722a3daafe3b4186f6b6457e060405160405180910390a35050565b5f7f9b779b17422d0df92223018b32b4d1fa46e071723d6817e2486d003becc55f005f1b905090565b5f819050919050565b5f80fd5b5f73ffffffffffffffffffffffffffffffffffffffff82169050919050565b5f620003508262000325565b9050919050565b5f620003638262000344565b9050919050565b620003758162000357565b811462000380575f80fd5b50565b5f8151905062000393816200036a565b92915050565b5f819050919050565b620003ad8162000399565b8114620003b8575f80fd5b50565b5f81519050620003cb81620003a2565b92915050565b5f819050919050565b620003e581620003d1565b8114620003f0575f80fd5b50565b5f815190506200040381620003da565b92915050565b5f805f6060848603121562000423576200042262000321565b5b5f620004328682870162000383565b93505060206200044586828701620003bb565b92505060406200045886828701620003f3565b9150509250925092565b6200046d8162000344565b82525050565b5f602082019050620004885f83018462000462565b92915050565b5f82825260208201905092915050565b7f496e76616c696420746f6b656e206164647265737300000000000000000000005f82015250565b5f620004d46015836200048e565b9150620004e1826200049e565b602082019050919050565b5f6020820190508181035f8301526200050581620004c6565b9050919050565b7f496e76616c6964206d65726b6c6520726f6f74000000000000000000000000005f82015250565b5f620005426013836200048e565b91506200054f826200050c565b602082019050919050565b5f6020820190508181035f830152620005738162000534565b9050919050565b7f496e76616c6964205447452074696d657374616d7000000000000000000000005f82015250565b5f620005b06015836200048e565b9150620005bd826200057a565b602082019050919050565b5f6020820190508181035f830152620005e181620005a2565b9050919050565b60805160a05160c05161143a6200063d5f395f8181610623015281816108be015261092601525f81816102af015281816104f9015261069901525f81816104a2015281816105250152610809015261143a5ff3fe608060405234801561000f575f80fd5b506004361061009c575f3560e01c8063a4317ef411610064578063a4317ef41461011e578063d38acbe31461013c578063ef5d9ae81461016c578063f2fde38b1461019c578063fc0c546a146101b85761009c565b80632a650e75146100a05780632eb4a7ab146100bc57806357376198146100da578063715018a6146100f65780638da5cb5b14610100575b5f80fd5b6100ba60048036038101906100b59190610d89565b6101d6565b005b6100c46104f7565b6040516100d19190610dfe565b60405180910390f35b6100f460048036038101906100ef9190610eb5565b61051b565b005b6100fe6105e7565b005b6101086105fa565b6040516101159190610f02565b60405180910390f35b610126610621565b6040516101339190610f2a565b60405180910390f35b61015660048036038101906101519190610d89565b610645565b6040516101639190610f2a565b60405180910390f35b61018660048036038101906101819190610f6d565b61076e565b6040516101939190610f2a565b60405180910390f35b6101b660048036038101906101b19190610f6d565b610783565b005b6101c0610807565b6040516101cd9190610ff3565b60405180910390f35b6101de61082b565b825f0160208101906101f09190610f6d565b73ffffffffffffffffffffffffffffffffffffffff163373ffffffffffffffffffffffffffffffffffffffff161461025d576040517f08c379a000000000000000000000000000000000000000000000000000000000815260040161025490611066565b60405180910390fd5b5f6102678461084d565b90506102d48383808060200260200160405190810160405280939291908181526020018383602002808284375f81840152601f19601f820116905080830192505050505050507f0000000000000000000000000000000000000000000000000000000000000000836108a5565b610313576040517f08c379a000000000000000000000000000000000000000000000000000000000815260040161030a906110ce565b60405180910390fd5b5f6103314286602001358760400135886060013589608001356108bb565b90505f60015f875f0160208101906103499190610f6d565b73ffffffffffffffffffffffffffffffffffffffff1673ffffffffffffffffffffffffffffffffffffffff1681526020019081526020015f205490508082116103c7576040517f08c379a00000000000000000000000000000000000000000000000000000000081526004016103be90611136565b60405180910390fd5b5f81836103d49190611181565b90508260015f895f0160208101906103ec9190610f6d565b73ffffffffffffffffffffffffffffffffffffffff1673ffffffffffffffffffffffffffffffffffffffff1681526020019081526020015f2081905550865f01602081019061043b9190610f6d565b73ffffffffffffffffffffffffffffffffffffffff167f987d620f307ff6b94d58743cb7a7509f24071586a77759b77c2d4e29f75a2f9a82856040516104829291906111b4565b60405180910390a26104e6875f01602081019061049f9190610f6d565b827f000000000000000000000000000000000000000000000000000000000000000073ffffffffffffffffffffffffffffffffffffffff166109c59092919063ffffffff16565b505050506104f2610a18565b505050565b7f000000000000000000000000000000000000000000000000000000000000000081565b610523610a32565b7f000000000000000000000000000000000000000000000000000000000000000073ffffffffffffffffffffffffffffffffffffffff168273ffffffffffffffffffffffffffffffffffffffff16036105b1576040517f08c379a00000000000000000000000000000000000000000000000000000000081526004016105a890611225565b60405180910390fd5b6105e36105bc6105fa565b828473ffffffffffffffffffffffffffffffffffffffff166109c59092919063ffffffff16565b5050565b6105ef610a32565b6105f85f610ab9565b565b5f805f9054906101000a900473ffffffffffffffffffffffffffffffffffffffff16905090565b7f000000000000000000000000000000000000000000000000000000000000000081565b5f806106508561084d565b90505f6106be8585808060200260200160405190810160405280939291908181526020018383602002808284375f81840152601f19601f820116905080830192505050505050507f0000000000000000000000000000000000000000000000000000000000000000846108a5565b9050806106cf575f92505050610767565b5f6106ed42886020013589604001358a606001358b608001356108bb565b90505f60015f895f0160208101906107059190610f6d565b73ffffffffffffffffffffffffffffffffffffffff1673ffffffffffffffffffffffffffffffffffffffff1681526020019081526020015f20549050808211610754575f945050505050610767565b80826107609190611181565b9450505050505b9392505050565b6001602052805f5260405f205f915090505481565b61078b610a32565b5f73ffffffffffffffffffffffffffffffffffffffff168173ffffffffffffffffffffffffffffffffffffffff16036107fb575f6040517f1e4fbdf70000000000000000000000000000000000000000000000000000000081526004016107f29190610f02565b60405180910390fd5b61080481610ab9565b50565b7f000000000000000000000000000000000000000000000000000000000000000081565b610833610b7a565b6002610845610840610bbb565b610be4565b5f0181905550565b5f815f0160208101906108609190610f6d565b82602001358360400135846060013585608001356040516020016108889594939291906112a8565b604051602081830303815290604052805190602001209050919050565b5f826108b18584610bed565b1490509392505050565b5f7f00000000000000000000000000000000000000000000000000000000000000008610156108ec575f90506109bc565b5f606483876108fb9190611306565b6109059190611374565b90505f8514801561091557505f84145b1561092357859150506109bc565b5f7f0000000000000000000000000000000000000000000000000000000000000000886109509190611181565b9050858110156109645781925050506109bc565b5f82886109719190611181565b90505f87836109809190611181565b90508681111561098e578690505b5f87828461099c9190611306565b6109a69190611374565b905080856109b491906113a4565b955050505050505b95945050505050565b6109d28383836001610c3b565b610a1357826040517f5274afe7000000000000000000000000000000000000000000000000000000008152600401610a0a9190610f02565b60405180910390fd5b505050565b6001610a2a610a25610bbb565b610be4565b5f0181905550565b610a3a610c9d565b73ffffffffffffffffffffffffffffffffffffffff16610a586105fa565b73ffffffffffffffffffffffffffffffffffffffff1614610ab757610a7b610c9d565b6040517f118cdaa7000000000000000000000000000000000000000000000000000000008152600401610aae9190610f02565b60405180910390fd5b565b5f805f9054906101000a900473ffffffffffffffffffffffffffffffffffffffff169050815f806101000a81548173ffffffffffffffffffffffffffffffffffffffff021916908373ffffffffffffffffffffffffffffffffffffffff1602179055508173ffffffffffffffffffffffffffffffffffffffff168173ffffffffffffffffffffffffffffffffffffffff167f8be0079c531659141344cd1fd0a4f28419497f9722a3daafe3b4186f6b6457e060405160405180910390a35050565b610b82610ca4565b15610bb9576040517f3ee5aeb500000000000000000000000000000000000000000000000000000000815260040160405180910390fd5b565b5f7f9b779b17422d0df92223018b32b4d1fa46e071723d6817e2486d003becc55f005f1b905090565b5f819050919050565b5f808290505f5b8451811015610c3057610c2182868381518110610c1457610c136113d7565b5b6020026020010151610cc0565b91508080600101915050610bf4565b508091505092915050565b5f8063a9059cbb60e01b9050604051815f525f1960601c86166004528460245260205f60445f808b5af1925060015f51148316610c8f578383151615610c83573d5f823e3d81fd5b5f873b113d1516831692505b806040525050949350505050565b5f33905090565b5f6002610cb7610cb2610bbb565b610be4565b5f015414905090565b5f818310610cd757610cd28284610cea565b610ce2565b610ce18383610cea565b5b905092915050565b5f825f528160205260405f20905092915050565b5f80fd5b5f80fd5b5f80fd5b5f60a08284031215610d1f57610d1e610d06565b5b81905092915050565b5f80fd5b5f80fd5b5f80fd5b5f8083601f840112610d4957610d48610d28565b5b8235905067ffffffffffffffff811115610d6657610d65610d2c565b5b602083019150836020820283011115610d8257610d81610d30565b5b9250929050565b5f805f60c08486031215610da057610d9f610cfe565b5b5f610dad86828701610d0a565b93505060a084013567ffffffffffffffff811115610dce57610dcd610d02565b5b610dda86828701610d34565b92509250509250925092565b5f819050919050565b610df881610de6565b82525050565b5f602082019050610e115f830184610def565b92915050565b5f73ffffffffffffffffffffffffffffffffffffffff82169050919050565b5f610e4082610e17565b9050919050565b5f610e5182610e36565b9050919050565b610e6181610e47565b8114610e6b575f80fd5b50565b5f81359050610e7c81610e58565b92915050565b5f819050919050565b610e9481610e82565b8114610e9e575f80fd5b50565b5f81359050610eaf81610e8b565b92915050565b5f8060408385031215610ecb57610eca610cfe565b5b5f610ed885828601610e6e565b9250506020610ee985828601610ea1565b9150509250929050565b610efc81610e36565b82525050565b5f602082019050610f155f830184610ef3565b92915050565b610f2481610e82565b82525050565b5f602082019050610f3d5f830184610f1b565b92915050565b610f4c81610e36565b8114610f56575f80fd5b50565b5f81359050610f6781610f43565b92915050565b5f60208284031215610f8257610f81610cfe565b5b5f610f8f84828501610f59565b91505092915050565b5f819050919050565b5f610fbb610fb6610fb184610e17565b610f98565b610e17565b9050919050565b5f610fcc82610fa1565b9050919050565b5f610fdd82610fc2565b9050919050565b610fed81610fd3565b82525050565b5f6020820190506110065f830184610fe4565b92915050565b5f82825260208201905092915050565b7f4e6f74207468652062656e6566696369617279000000000000000000000000005f82015250565b5f61105060138361100c565b915061105b8261101c565b602082019050919050565b5f6020820190508181035f83015261107d81611044565b9050919050565b7f496e76616c6964204d65726b6c652070726f6f660000000000000000000000005f82015250565b5f6110b860148361100c565b91506110c382611084565b602082019050919050565b5f6020820190508181035f8301526110e5816110ac565b9050919050565b7f4e6f7468696e67206c65667420746f20636c61696d00000000000000000000005f82015250565b5f61112060158361100c565b915061112b826110ec565b602082019050919050565b5f6020820190508181035f83015261114d81611114565b9050919050565b7f4e487b71000000000000000000000000000000000000000000000000000000005f52601160045260245ffd5b5f61118b82610e82565b915061119683610e82565b92508282039050818111156111ae576111ad611154565b5b92915050565b5f6040820190506111c75f830185610f1b565b6111d46020830184610f1b565b9392505050565b7f43616e6e6f7420726573637565207468652076657374696e6720746f6b656e005f82015250565b5f61120f601f8361100c565b915061121a826111db565b602082019050919050565b5f6020820190508181035f83015261123c81611203565b9050919050565b5f8160601b9050919050565b5f61125982611243565b9050919050565b5f61126a8261124f565b9050919050565b61128261127d82610e36565b611260565b82525050565b5f819050919050565b6112a261129d82610e82565b611288565b82525050565b5f6112b38288611271565b6014820191506112c38287611291565b6020820191506112d38286611291565b6020820191506112e38285611291565b6020820191506112f38284611291565b6020820191508190509695505050505050565b5f61131082610e82565b915061131b83610e82565b925082820261132981610e82565b915082820484148315176113405761133f611154565b5b5092915050565b7f4e487b71000000000000000000000000000000000000000000000000000000005f52601260045260245ffd5b5f61137e82610e82565b915061138983610e82565b92508261139957611398611347565b5b828204905092915050565b5f6113ae82610e82565b91506113b983610e82565b92508282019050808211156113d1576113d0611154565b5b92915050565b7f4e487b71000000000000000000000000000000000000000000000000000000005f52603260045260245ffdfea26469706673582212203e9cd7438975989ef15900509b4ef5ad08f3d6216daf669e4c405cf0f885265264736f6c63430008180033","linkReferences":{}},"methodIdentifiers":{"claim((address,uint256,uint256,uint256,uint256),bytes32[])":"2a650e75","claimable((address,uint256,uint256,uint256,uint256),bytes32[])":"d38acbe3","merkleRoot()":"2eb4a7ab","owner()":"8da5cb5b","renounceOwnership()":"715018a6","rescueTokens(address,uint256)":"57376198","tgeTimestamp()":"a4317ef4","token()":"fc0c546a","totalClaimed(address)":"ef5d9ae8","transferOwnership(address)":"f2fde38b"},"id":66}